:020000040000fa
:080000000001040000000000f3
:020000040000fa
:0400080038020000ba
:020000040000fa
:04000c007a02000074
:020000040000fa
:04001000ba02000030
:020000040000fa
:04001400580200008e
:020000040000fa
:040018009a02000048
:020000040000fa
:04001c001c030000c1
:020000040000fa
:040020001c030000bd
:020000040000fa
:040024001c030000b9
:020000040000fa
:040028001c030000b5
:020000040000fa
:04002c001c030000b1
:020000040000fa
:040030001c030000ad
:020000040000fa
:04003400da020000ec
:020000040000fa
:040038001c030000a5
:020000040000fa
:04003c001c030000a1
:020000040000fa
:040040001c0300009d
:020000040000fa
:040044001c03000099
:020000040000fa
:040048001c03000095
:020000040000fa
:04004c001c03000091
:020000040000fa
:040050001c0300008d
:020000040000fa
:040054001c03000089
:020000040000fa
:040058001c03000085
:020000040000fa
:04005c001c03000081
:020000040000fa
:040060001c0300007d
:020000040000fa
:040064001c03000079
:020000040000fa
:040068001c03000075
:020000040000fa
:04006c001c03000071
:020000040000fa
:040070001c0300006d
:020000040000fa
:040074001c03000069
:020000040000fa
:040078001c03000065
:020000040000fa
:04007c001c03000061
:020000040000fa
:040080001c0300005d
:020000040000fa
:040084001c03000059
:020000040000fa
:040088001c03000055
:020000040000fa
:04008c001c03000051
:020000040000fa
:040090001c0300004d
:020000040000fa
:040094001c03000049
:020000040000fa
:040098001c03000045
:020000040000fa
:04009c001c03000041
:020000040000fa
:0400a0001c0300003d
:020000040000fa
:0400a4001c03000039
:020000040000fa
:0400a8001c03000035
:020000040000fa
:0400ac001c03000031
:020000040000fa
:0400b0001c0300002d
:020000040000fa
:0400b4001c03000029
:020000040000fa
:0400b8001c03000025
:020000040000fa
:0400bc001c03000021
:020000040000fa
:0400c0001c0300001d
:020000040000fa
:0400c4001c03000019
:020000040000fa
:0400c8001c03000015
:020000040000fa
:0400cc001c03000011
:020000040000fa
:0400d0001c0300000d
:020000040000fa
:0400d4001c03000009
:020000040000fa
:0400d8001c03000005
:020000040000fa
:0400dc001c03000001
:020000040000fa
:0400e0001c030000fd
:020000040000fa
:0400e4001c030000f9
:020000040000fa
:0400e8001c030000f5
:020000040000fa
:0400ec001c030000f1
:020000040000fa
:0400f0001c030000ed
:020000040000fa
:0400f4001c030000e9
:020000040000fa
:0400f8001c030000e5
:020000040000fa
:0400fc001c030000e1
:020000040000fa
:040100001c030000dc
:020000040000fa
:040104001c030000d8
:020000040000fa
:040108001c030000d4
:020000040000fa
:04010c001c030000d0
:020000040000fa
:040110001c030000cc
:020000040000fa
:040114001c030000c8
:020000040000fa
:040118001c030000c4
:020000040000fa
:04011c001c030000c0
:020000040000fa
:040120001c030000bc
:020000040000fa
:040124001c030000b8
:020000040000fa
:040128001c030000b4
:020000040000fa
:04012c001c030000b0
:020000040000fa
:040130001c030000ac
:020000040000fa
:040134001c030000a8
:020000040000fa
:040138001c030000a4
:020000040000fa
:04013c001c030000a0
:020000040000fa
:040140001c0300009c
:020000040000fa
:040144001c03000098
:020000040000fa
:040148001c03000094
:020000040000fa
:04014c001c03000090
:020000040000fa
:040150001c0300008c
:020000040000fa
:040154001c03000088
:020000040000fa
:040158001c03000084
:020000040000fa
:04015c001c03000080
:020000040000fa
:040160001c0300007c
:020000040000fa
:040164001c03000078
:020000040000fa
:040168001c03000074
:020000040000fa
:04016c001c03000070
:020000040000fa
:040170001c0300006c
:020000040000fa
:040174001c03000068
:020000040000fa
:040178001c03000064
:020000040000fa
:04017c001c03000060
:020000040000fa
:040180001c0300005c
:020000040000fa
:040184001c03000058
:020000040000fa
:040188001c03000054
:020000040000fa
:04018c001c03000050
:020000040000fa
:040190001c0300004c
:020000040000fa
:040194001c03000048
:020000040000fa
:040198001c03000044
:020000040000fa
:04019c001c03000040
:020000040000fa
:0401a0001c0300003c
:020000040000fa
:0401a4001c03000038
:020000040000fa
:0401a8001c03000034
:020000040000fa
:0401ac001c03000030
:020000040000fa
:0401b0001c0300002c
:020000040000fa
:0401b4001c03000028
:020000040000fa
:0401b8001c03000024
:020000040000fa
:0401bc001c03000020
:020000040000fa
:0401c0001c0300001c
:020000040000fa
:0401c4001c03000018
:020000040000fa
:0401c8001c03000014
:020000040000fa
:0401cc001c03000010
:020000040000fa
:0401d0001c0300000c
:020000040000fa
:0401d4001c03000008
:020000040000fa
:0401d8001c03000004
:020000040000fa
:0401dc001c03000000
:020000040000fa
:0401e0001c030000fc
:020000040000fa
:0401e4001c030000f8
:020000040000fa
:0401e8001c030000f4
:020000040000fa
:0401ec001c030000f0
:020000040000fa
:0401f0001c030000ec
:020000040000fa
:0401f4001c030000e8
:020000040000fa
:0401f8001c030000e4
:020000040000fa
:0401fc001c030000e0
:020000040000fa
:100200000f9a20000e7f24000e01880000000000dd
:10021000000020000000e000020032000001200089
:1002200020028800140007003b0107000000e000e6
:1002300003003a00e0ac2500010020000200370076
:100240000000200001002000810f7000010032003a
:1002500014000700000020000000e000020032004f
:100260000000020000000000f45302000000000043
:100270000040da000000fe004440a90000b4200065
:100280000000e00003003200002020009001880000
:100290004440a800000006008a1f78008b1f7800e9
:1002a00000000600a1028800800478000000eb0036
:1002b0001f003700e284440054a0b4009905ba003e
:1002c000e284440054a0b4009906ba00e2844400d9
:1002d00054a0b4000006eb00476fde00fd07b2003b
:1002e000ae018800636ce10003003a00eaff0700fa
:1002f0000000eb000e003700606ce10008003a00df
:10030000004deb000a05e800020039003420ec0043
:100310000af0a0008b05e900f9ff3e000400370059
:100320006168e100010032000086eb000b0007006d
:1003300019c7ba001905ba000e04e00003003a001c
:100340000a00e000dbff3a0000000600fe07b200f2
:10035000ae0288008a047800f5ff37000cd0a300b5
:10036000e20f4d001c00390089027800354dba00bb
:100370000a05e800020039003420ec000af0a00071
:100380008b05e9000f003200254dba000a05e80090
:10039000020039003420ec000af0a0008b05e900cf
:1003a000080032000c00e0000600320015cdba0053
:1003b0000a05e800020039003420ec000af0a00031
:1003c0008b05e9008984e80054a0b4000b00e0002c
:1003d000e2ff3a00000006009902ba00055d7800cd
:1003e0008b05e900f7ff3200c82ade00055d7800c2
:1003f0008b05e900f3ff32000c00e000f1ff320052
:1004000019ddba00eeff3700785d0400000000003f
:10041000ac55040000000000a25b040000000000d6
:10042000aa5b040000000000b25b040000000000b2
:10043000d85b040000000000085c0400000000001d
:10044000fe5b040000000000225c040000000000cd
:10045000165c0400000000008c1204000000000084
:100460003012040000000000fa1104000000000037
:100470003600f800809fbe00829fbe00849fbe00b1
:10048000869fbe000000fa008020a9000000eb005b
:10049000412e07000080fa004f03be004f02be004d
:1004a0004f01be004f00be003600f90000400600bc
:1004b0003600f800809fbe00829fbe00849fbe0071
:1004c000869fbe000000fa00382e07008040a90079
:1004d00010002000302e07000080fa004f03be00fd
:1004e0004f02be004f01be004f00be003600f900b3
:1004f000004006003600f800809fbe00829fbe00cc
:10050000849fbe00869fbe000000fa008060a900a4
:1005100020002000202e07000080fa004f03be00bc
:100520004f02be004f01be004f00be003600f90072
:10053000004006003600f800809fbe00829fbe008b
:10054000849fbe00869fbe000000fa008080a90044
:1005500030002000102e07000080fa004f03be007c
:100560004f02be004f01be004f00be003600f90032
:10057000004006003600f800809fbe00829fbe004b
:10058000849fbe00869fbe000000fa008600a9007e
:1005900070002000002e07000080fa004f03be000c
:1005a0004f02be004f01be004f00be003600f900f2
:1005b000004006003600f800809fbe00829fbe000b
:1005c000849fbe00869fbe000000fa00a04280000b
:1005d0000000e00002003200a042800000000100a4
:1005e000b0428000c142800061004000e0804800cd
:1005f000b0428800c1428800d099200010407800a5
:100600008040e800d099200001487800c09920007f
:1006100011c0b300014878008860a9000080fa008a
:100620004f03be004f02be004f01be004f00be0090
:100630003600f900004006000040da000000fe002d
:10064000ec8747008e1f78006c875700440020001d
:10065000041f7800000f78006c87570002afbe00bf
:10066000e1bf9f006c805700051307001e00be000d
:100670004f077800cf00b10000000600ec8747006c
:100680008e1f780011002000a1bf9f006c875700cb
:10069000002f78006c805700fb1207001e007800c6
:1006a0004f077800cf00b100000006000800fa00f4
:1006b0008e81e80080097800640047000108780016
:1006c000660047000208780066004700100f7800b7
:1006d0000a003700640047001000780010407800de
:1006e000e4004700910078000101e800e4004700c1
:1006f000820878008f2c07001e0fe9001e0078008a
:100700000000e000f3ff3a006600470010007800a8
:100710000080fa000000060000000500f4ff2f0032
:100720008a0337000001be001e0007000470a70006
:1007300003f0a10003f8a30013003a006509b1001b
:1007400010003200090035006928e1000200350080
:1007500001002800000005000000400081804800e2
:100760008502e900fcff3a0000000600f88f420015
:10077000050035008100d1000080d3008502e8002b
:10078000fcff3a00000006008000eb0000000500be
:100790004f89de0082017800870337006011b800be
:1007a00095033700c70ade00f107b200f50fb2006b
:1007b00008003200e1cf4200020032000170a000c8
:1007c00024000500810f70000100320004080500bc
:1007d00044000500810f700002003a00140005007b
:1007e0008502e9000000400081c04800fcff3b009a
:1007f0000170a0002400050007f8270007836100ae
:100800000638e10004003a00f70720008783610002
:100810008703710001003a0003f0a200889fbe0028
:100820008a9fbe008c9fbe00470ade000480a100a4
:10083000c71ade000580a1000700280007856000b8
:1008400087856100f70f20000720e1009e0032003d
:100850000728e1009c003200010678000400e00057
:10086000b4003200f7072000878060000170a0000c
:100870000500e000c0003200f7072000878161001a
:100880000370a000050652000f003a000b50e10073
:100890000b0032000308e10002003a000200e10010
:1008a0007e003200020450008384580004003100ae
:1008b0000001fd008101fd008402fd008a05fd00ac
:1008c0006044b800210037000520e10005003d002c
:1008d0000001fd008101fd008402fd008a05fd008c
:1008e000050652007a60e100050035000170a100a4
:1008f0004722dd00848070008a807000630037002a
:100900006044b800ef02660007ff2f00070666008c
:100910000500e00006003400f08312008714dd00bb
:100920000511de00071bdd00060171008519de00e0
:100930007060e10005003500090478008204780049
:10094000030178008001eb00700656000b50e100b7
:1009500003003a0002004000838048000400370092
:1009600060041400e0841c000200580083805800da
:100970000188a300060032008100d1000080d3006e
:100980008984d3000884d3000402e80027003700dc
:100990000178a30025003a000100e00003003200c6
:1009a0008186cf00698656000a0037008c0020003f
:1009b0000000e00004003a00090078008804780094
:1009c0000004eb00700252008086cf000d06460046
:1009d0000c06e9007060e100060035008000780038
:1009e00009007800880478000004eb0070065600c7
:1009f000700252000c00e0000c0034008c08dd0096
:100a0000f00316000703de00868070000c00dd0096
:100a1000074bde00060070008c4cdd000743de0053
:100a2000868474000c44dd000c0252006120e10059
:100a30002000350061016000070028008781640004
:100a4000f7ff270087836400070374000300e000ba
:100a50000600320082037300040032000000e80048
:100a6000e08048000188a3000e003a00f70f200044
:100a70000720e1004a003d000170a1004722dd008f
:100a8000810072008a8070000000be004f06be0028
:100a90004f05be004f04be00000006006000b80015
:100aa000faff37008100d1000080d3000402e80083
:100ab000eeff37000401780089017400a1010700ee
:100ac0008a807000f1ff3700f70107000702780005
:100ad0000001fd008101fd00f3010700870278009d
:100ae000850372000778a300040032000001fd00b6
:100af0008101fd0006020700e4ff37008503620064
:100b00000768a300080032000b50e1000300320028
:100b1000f0ff2f00f1ff2700dcff37000001fd0090
:100b20008101fd00d9ff37000468a300d7ff320020
:100b3000faff3700f8ff2700888360000b003a00b7
:100b40000000e00009003a00830364008283730020
:100b5000020032000200be00ccff37000b50e10063
:100b6000ceff3a000200be00c8ff3700140020008c
:100b7000810064003eff3700f8ff27008883610092
:100b800004003a000200e00002003a008c00780005
:100b9000beff3700150020008301640039ff3700d5
:100ba00001f827000000200081007500b7ff370022
:100bb000889fbe008a9fbe008c9fbe001b00200045
:100bc0000202be00058668000600280006066600d0
:100bd0004709de00f20fb200820032000243e80053
:100be00080003200c729de00f30fb2007d00320022
:100bf0000343e8007b003200f107b2000170a0005f
:100c0000f507b2000570a000c708dd004903de004b
:100c1000868070004700dd00c72add004923de0022
:100c2000868272004722dd00030551000403500054
:100c30008583580003003100000040008180480097
:100c40000a05e9008c1f78008a9fbe00040050004e
:100c5000858058000402420085824a00000040005e
:100c6000818048000005eb000004be006033b8003e
:100c70000406be000d48e1005600310011000900d5
:100c80004dccd8000c01b8000d02b80084814100a1
:100c900060824a008283530003045c0084845c0009
:100ca00060055d000a00e00025003a00800578003c
:100cb0000d40e1004900310088007800070078000d
:100cc000110009004d88d8000c01b8000d02b800d1
:100cd0008481410060824a006003110083835b00cd
:100ce00004045c00e0845c000900e00021003a009c
:100cf0004f01be000300e0002b003200e301600062
:100d0000070673008c8171000100320064007000de
:100d10004200de004e5edd000c007000c258de00b6
:100d200001e0a00083010700cf01780081807100fd
:100d30004f06be004f05be004f04be000000060077
:100d40008c8343000d044c00e0844c0060054d0092
:100d50000000e9000a00e000d4ff32008c83430069
:100d60000d044c00e0844c0060054d000000e900db
:100d7000ceff37000c0343008d834b0060044c0012
:100d8000e0844c000000e9000900e000d8ff3200d8
:100d90000c0343008d834b0060044c00e0844c0046
:100da0000000e900d2ff37004200de004e5edd00a9
:100db0000c007000c258de0001e0a000cf017800f6
:100dc0000300e000daff320060001000e08018004d
:100dd000d7ff3700f0ff2f00aaff3700f0ff2f00ea
:100de000b9ff37000404be002f0107008706780012
:100df0000004fd008104fd002b010700078366004d
:100e00000678a300030032000960a7000800be00b6
:100e10002c0037000d78a300020032000800be004d
:100e2000280037000778a30026003a0001f0a1004f
:100e300009f0a1000668a30003003200f1ff2700bb
:100e4000f0ff2f00baff37000d68a3000300320047
:100e50000800be008c807000b5ff37000768a30053
:100e600007003a000648a30003003200f1ff270004
:100e7000f0ff2f00aeff37000d48a3000300320043
:100e80006000b8008c807000a9ff37000748a300fd
:100e90000400320001f82700000020008c80700060
:100ea000a3ff3700760107000004fd008104fd0068
:100eb00002057800720107000802be008a0178006e
:100ec00059ff37000160a00012022000f2428800a2
:100ed00097ff37000100e000120032000500e0003b
:100ee00010003200889fbe008a9fbe008c9fbe000b
:100ef0000006eb0001f8a3000300320060001000c0
:100f0000e08018000cf0a00005f8a30003003200f8
:100f100060021200e0821a000cf0a2008005eb00d3
:100f200041ff37006000b80002000500038368003d
:100f30000700280007036300470ade000480a100c1
:100f4000c71ade000580a100f70f20000720e1008e
:100f5000420032000728e10040003200889fbe00b6
:100f60008a9fbe008c1f7800f107b200f307b20021
:100f70000400e000640032000170a0000500e00001
:100f8000680032000370a00085054200eb07b10045
:100f90000204b8000302b8008484440060854a005b
:100fa000020ab800848444000a854a00030ab80093
:100fb00004054500040033000804d0008984d200f1
:100fc0000a85d2008b05e9006158e1003d0035003b
:100fd00002102000090161000308200089816100de
:100fe000f70720008783640008867300c84cde0082
:100ff000c853dd00878474004855de000300e0001c
:101000000600320082037600040032008904e80002
:1010100060054d000a88a3000c003a00f70f20007d
:101020000758e10044003d000a70a100c75ddd00e3
:101030000a8575008a007300090078004f06780061
:101040004f05be004f04be00000006000a05d10097
:101050008984d3008b05e800f0ff3700881f7800f3
:101060000604780090000700070278000001fd00e8
:101070008101fd008c000700870278008503720063
:101080000778a300050032000001fd008101fd008a
:101090009f0007004f0478000000060085037200df
:1010a0000748a30003003200f0ff2f00f1ff2700e4
:1010b000f8ff37000000200001f82700888070004a
:1010c000f4ff3700880178004848dd008081710016
:1010d0004848de00c850dd0001007000c850de0046
:1010e000060478000b017800160007008880700065
:1010f000d2ff37000500e000050032001700200095
:101100003a0007009dff370081037000f9ff3a00a5
:10111000860078004f0678004f05be004f04be00e1
:101120000000050083037100f9ff32002700200052
:101130002e00070094ff370001f82700868070001a
:10114000f4ff37000100e0002600320061011100c9
:101150007810e10023003c006022b8007010e1002c
:101160000400350080027800010078008000eb0068
:10117000700151000200e00009003400700311000a
:10118000062add00822ade008603dd0087827200e7
:101190000200de00860bdd00070070008208de0022
:1011a00084817100f4ff2700048262008481710051
:1011b00004002800848262006102600005f0a6003d
:1011c0000000060004827100070032000000e80001
:1011d000e0804800000006000002be006000b80089
:1011e000efff37006000b80000000600889fbe00d7
:1011f0000004eb006138e10016003a000100e00055
:1012000008003a00c800de004800dd008800200029
:101210000100e00003003a00c800de004800dd00e5
:10122000680444008184cf00e9845400060034003f
:101230008908dd00f08314008703de0087807000da
:101240000900dd0009044400610214004f04be00df
:10125000000006000300e00008003a00c811de00ac
:101260004811dd00880020000300e00003003a0080
:10127000c811de004811dd00680444008384cf00fb
:10128000e9845400060034008919dd00f08314005d
:101290008713de00878171000911dd000904440015
:1012a000e1021400e9ff37002700200001f0a70049
:1012b00017002000470bde00f60fb20004003200da
:1012c0000643e8000a0032004702b30000000600af
:1012d00001037800f607b2000603700002003a002e
:1012e0000703b300000006008702b30000000600f9
:1012f00001037800f607b200060370000200320016
:101300000770a000000006000760a00000000600b3
:101310000478a300040032000578a3000300320023
:101320000168a30001003a000200be000160a000b5
:101330000000060081017000270032008002eb00ef
:1013400001f8a3000300320060001000e0801800e4
:1013500015002000f40720000202420020003400a3
:10136000f7032000870360000604200000036300e9
:1013700002082000000161004700de00c909dd000d
:1013800000807100c708de000600e000080032009f
:1013900087037100060032001000b0000180b00029
:1013a0000188a30002003200c108de000402e80048
:1013b000f107b200f30f20000320e10003003d001d
:1013c0004722dd00810072002900370001f8270064
:1013d0000000eb00260037006000b80000000600a7
:1013e000680212007f20e100020034006000b800b3
:1013f0001f0037006011b8007020e10004003500c4
:1014000080017800010078008000eb00700252003b
:101410000400e00009003400f00312000719dd00a9
:101420008419de000703dd00868171000400de0000
:10143000070bdd00060070008408de00f7ff2700c0
:1014400083836300870371000600280003036300a1
:10145000070032000700e00003003a00610160006d
:1014600002817300020032001000b0000180b00061
:101470000500a6000000060001f0a0000000060024
:101480004f0ade004709de00f107b200f20fb2009a
:101490000b003200f207b1000170a000c708dd00a8
:1014a000c901de00838070004700dd000400a60053
:1014b0000000060060001000e08018000000060038
:1014c000810f700001003a00000006008182cf0009
:1014d0000500e00010003e008082cf00ee82420056
:1014e0007028e1000400390007003e008000780009
:1014f0000000eb000e003700708312008600de0053
:101500000500dd000a003700708352008600dd0010
:101510000000eb0006003700e28252008508dd0083
:10152000708312000603de00868070000500dd0077
:101530007507b0000501ea000400a60000000600df
:1015400060001000e080180000000600889fbe00c8
:101550008a9fbe00841f78007c0007004f0078003f
:1015600011003300f0ff2f00838f6c0006003b005a
:10157000040565000a00a7000800370009f0a6006e
:101580001000200008003700820f5400838f5c0099
:10159000030039001000200001003e000000200080
:1015a00009f0a7000000ea004f05be004f04be008e
:1015b0000000e00000000600881f780003047800a7
:1015c0000300e00007003d0060001000e08018000c
:1015d00060011900e081190002003b0001f02d00bc
:1015e000030037000400070008f0a70001f0a00086
:1015f0004f04780000000600889fbe008a9fbe004e
:101600000082700004027100048271002600320022
:101610000004be000200be006011b8006b0920008b
:10162000950220000182cf000a0039000541b10077
:101630000082cf00070039000541b1000982cf00c8
:10164000040039000541b1000882cf0001003900d3
:101650000541b10005425200120032000a003b0071
:1016600082817100610164008100d1000080d3009b
:101670008984d3000884d3008b05e8000442e80085
:10168000f7ff3a00070037000804440089844c0043
:1016900000004800818048008b05e9000442e90011
:1016a000f9ff3a00030007004f05be004f04be00db
:1016b0000000060081002000618055000b003d0005
:1016c0000b00200061fe2f000100e1001d0034002e
:1016d00082817100610164008904d1000884d30013
:1016e0000000e800faff3a00710020006100640089
:1016f0000300700002006000090032006104440031
:10170000e0844c000988a500050032008b05e80044
:101710006808e10002003a008904d1000884d3007f
:10172000f20f20000258e10005003d00c75ddd001a
:10173000f907b200898075000800780000000600f3
:101740000bf827008b007800000005000004be00a5
:1017500014fc07000003be000405be000200be002a
:1017600010fc0700844f7500000006000400fa001a
:10177000889fbe008a9fbe000004be004709de00ad
:1017800003002000f20fb200f207b100f60f510083
:1017900031003c000200e0001c003500faff2f0081
:1017a000fb0720000201e900030033008b85d10014
:1017b0000a85d300fbff37008b8164000a016000bb
:1017c000e00f5100e08f590023003200020020009a
:1017d00003b8270011fc0700a0bf9f00b1bf9f0006
:1017e000e00f5400e08f5c00020035000a04440062
:1017f0008b844c000a85ea008b85ea008b806400ac
:101800000a0064000004be0012003700020020003d
:1018100003b8270001fc0700a0bf9f00b1bf9f00d5
:10182000e00f5400e08f5c0003003d000800200042
:1018300009002800070037000800440089804c0098
:10184000e00f5000e08f5800020032000800200036
:1018500009f823000800be004f05be004f04be007b
:101860000080fa00000006008001780002003700c6
:10187000b15978000201e9000200e000fcff3a00e3
:1018800000000600889fbe008a9fbe00800478008a
:101890000200e0005a00320001407800814c7800dc
:1018a00082814400f1f99f00e20f5100540036009c
:1018b00091449800a1449800e1f99f00d1f99f005c
:1018c000e60f51004e003600b1449800c1f99f0068
:1018d000e80f51004a0036000905ea00630565007b
:1018e0000a8444000a055100c1ff2f00010565006c
:1018f0000080fb008000eb0012102000131020007d
:10190000af0b0700008cbe000a01440060b99f00c5
:1019100071b99f00e80f5500390036002004980087
:1019200031049800400498005104980020b99f00a9
:1019300031b99f0040b99f0051b99f00f80f550081
:101940002f0036006004980071049800000c980085
:10195000110c9800200c9800310c9800400c980055
:10196000510c980020b19f0031b19f0040b19f0001
:1019700051b19f0060b19f0071b19f0000b99f00fd
:1019800011b99f0064016400780141000204440021
:10199000020555006011b8000203be000002be003f
:1019a0000403be006022b800000072008180720053
:1019b00002017300838173000f0037000802780072
:1019c000009abe00029abe00009abe000292be00bb
:1019d000000c9800110c9800220c9800330c980011
:1019e000400c9800510c9800620c9800730c980001
:1019f0000a02b1000802b000ff0f5500efff3e00e1
:101a0000090078004f05be004f04be00000006002c
:101a100080007800040037003104e00002003a0042
:101a20000000510000000600010178000108a30039
:101a3000f9ff3a008101780031017800f4ef2f00be
:101a4000020242000281ea0002016200040828004a
:101a500004016100f7ff3200830078000101780083
:101a60003104e000fdff3a000000510000000600d4
:101a7000881f780000047800080078002b00070019
:101a8000080078004f047800000006000f04b00042
:101a90008e1f780002027800030178000000e00049
:101aa0000200320000077800020037000efc2f0011
:101ab0000f0747008002eb000100e0000100320048
:101ac0008102e9000f007800e003b1001d00090069
:101ad0000018eb0000fc2f000f00400000a8eb00f6
:101ae00023102000a3a79f00bea79f00c1a79f00af
:101af000d5a79f000100e00004003d00b0042000d5
:101b0000f04c88000080eb0005003700004feb0030
:101b1000fea79f00eea79f00840078003800070012
:101b20004f0778000f04b10000000600881f7800fe
:101b30008101780000027800808268000508a30017
:101b400002003200210037000201e90003007800a2
:101b5000040478000308a300070032000200e0003c
:101b600021003200b3407800015a78000104e000ff
:101b7000f5ff3a00020037000200e0001a003200d0
:101b80001004e00003003a0017003700031c78003f
:101b90000281e90080007800e10f51000800360062
:101ba000b0017800f5ef2f00838242000382ea0043
:101bb000048262000508280005026200f3ff32007b
:101bc00008007800010037000201e90000047800f5
:101bd0000200e00004003200b141780003587800b0
:101be0000304e000f8ff3a008000eb0008007800f2
:101bf00024ff0700080078004f047800000006006a
:101c00000200fa00881f780000047800e2bf9f00fd
:101c10006481570008007800ce010700980090000a
:101c20000148a300010032000080eb004f0478005f
:101c30000080fa0000000600889fbe008a1f78001e
:101c4000800478004900900002047800800f54005e
:101c50000100360000047800080178006a8544001d
:101c60001a00780000ff07001a004400000d7800f9
:101c7000e8844400990c14000048eb004f057800fc
:101c80004f04be0000000600f2874700889fbe0098
:101c90008a9fbe008c9fbe008e1f78008004780053
:101ca000010578000204780083057800610762006e
:101cb00002003a008b0f5400080039000801780038
:101cc0008a00780009007800e70107008b0f5400b4
:101cd00002003900880578001e003700088655008c
:101ce0000c017800f00f56000100360002012000c0
:101cf000010220007e805700e2fe07008c0678007b
:101d00000500370002012000fe805700090078001e
:101d1000d5010700f0865600ef8f5600f9ff3e0010
:101d20004461de0000ff2f000091b900020146006f
:101d3000fe80570009007800cb0107000e00e0008c
:101d400004003a00080178008a0078000900780051
:101d5000c50107000b0078004f0778004f06be0052
:101d60004f05be004f04be002f01b1000000060069
:101d700000000500000005000000050000017800db
:101d80000040eb008080fb0081804000e393200056
:101d900063c278000404e00003003a00f0932000de
:101da00060c078000000060092017800934f520056
:101db00004003a00f093200060c078000309e800b6
:101dc000010037000040e800ea4f5000edff360008
:101dd00000000600f6874700889fbe008a9fbe006d
:101de0008c9fbe008e1f780080047800010478006c
:101df00083057800040678000000eb00c0b79f0060
:101e00008080eb00d1b79f00e0b79f00f2b79f0042
:101e10000008200080bf9f00980078000100780033
:101e20000005eb00010037000a05e80030417800aa
:101e30000204e0000300320053c2b300834f51009c
:101e4000f9ff3a000a00e000040032000a017800bd
:101e50000900780084010700180c45001807780075
:101e600050c2b3009e4f100033013a000e07e80045
:101e70000e0c780010003700cfb097000100a000d2
:101e80000b003700cfb097000110a000080037000a
:101e9000cfb097000120a00005003700cfb0970019
:101ea0000130a00002003700cfb097000140a00031
:101eb000c1b79f00000ce80018007800904078003f
:101ec000b2c2b30082cf5000f1ff320007003c00e5
:101ed00002c2b30082cf5000f0ff320032c2b30022
:101ee00082cf500007003a00efff3700d2c2b300a4
:101ef00082cf5000e0ff320002c3b30082cf500017
:101f0000e0ff3200a2c2b30082cf50000d003a00c1
:101f1000000ce8001c80e900000e7800100078003a
:101f2000e0b79f000000e0000f003d00cfb0970039
:101f30000100a200c1b79f000000ea00e0b79f00c7
:101f400009003700bd080700e0b79f000100370017
:101f5000000ce800180078009000fb000103b100bd
:101f6000e98f5000faff36004fb097000008a30039
:101f7000020032000010a100c0b79f0018007800d6
:101f8000e1c2b30090cf100016003a008000eb00d1
:101f9000d1b79f000000e800000c7800a1c2b30098
:101fa00090cf100006003a00000ce8001c80e90009
:101fb000000e780010007800d0b79f0009003700ad
:101fc0009e080700d0b79f0001003700000ce80012
:101fd000180078009000fb000103b100e98f500069
:101fe000faff36000800780064ff0700804678009a
:101ff000180078001000fb00b608070091062000ca
:10200000810f50003800320012003c0041062000d1
:10201000810f5000340032000a003c0011062000fd
:10202000810f50002000320031062000810f500047
:102030009a00320051022000810f5000ae003a0099
:10204000a700370071062000810f5000aa003c0055
:102050008200370001072000810f50005c00320031
:1020600007003c00e1062000810f500074003200a0
:10207000f1062000810f50009f003a003900370020
:1020800051072000810f50002700320081072000f7
:10209000810f50004200320031072000810f5000b4
:1020a00095003a00850037008d80fb000c01780018
:1020b00000fe2f000f0040008d0807000000e00028
:1020c0009c00320018007800000ce8009041780075
:1020d00002fe2f000f014100f88057000900780030
:1020e000400107000e0037008d80fb008c01780056
:1020f0001200200000fe2f000f0040009b08070088
:102100000000e0008b003200180ce80002fe2f00f7
:102110000f014100f880570009007800c203070052
:1021200000054500840037008d80fb008c0178009d
:102130000001eb0000fe2f000f0040008b0807009d
:102140000000e0007b003200180ce80002fe2f00c7
:102150000f014100f8805700090078005f07070071
:10216000efff37008d80fb008c0178000001eb0051
:1021700000fe2f000f0040007c0807000000e00078
:102180006c003200180ce80002fe2f000f01410025
:10219000f8805700090078009f060700e0ff37002d
:1021a0008d80fb008c0178000001eb0000fe2f0009
:1021b0000f0040006d0807000000e0005d003200e5
:1021c00018007800000ce8009041780016003700f5
:1021d0008c0178000001eb00010f200000fe2f00b1
:1021e0000f004000610807000000e00051003200cd
:1021f000180ce8000fb097009fb097002fb1970020
:10220000bfb19700e00f5000e08f5800e00f590079
:10221000e08f590003003a008001eb008293200018
:102220004000370083c7b30002fe2f000f014100ba
:10223000f88057000900780051070700b8ff370001
:102240000b0145008d80fb008c01780000fe2f0003
:102250000f0040009e080700360037008d80fb000d
:102260000c01780000fe2f000f004000200807003e
:102270000000e0002f00320018007800000ce80099
:102280009041780002fe2f000f014100f8805700b6
:1022900009007800be030700a1ff370000c8b300a3
:1022a00080cf560023003a00180ce8001c80e9009b
:1022b000000e7800104078000d00370000c8b30011
:1022c00080cf56001b003a00180ce8001c80e90083
:1022d000000e78008001eb0010017800110037003b
:1022e00001c8b30081cf560012003a00180ce80074
:1022f000e0df9f000800370050c2b300e0df9f001e
:102300000e0c78000000eb00c0b79f00e0b79f0004
:102310008080eb00d1b79f0013002000e2fd2f006a
:102320000f014100f8805700090078006f06070090
:102330007bff3700180ce8000a0078004f07780090
:102340004f06be004f05be004f04be006f01b10036
:10235000000006008200fa00889fbe008a1f7800f5
:102360000005780082047800c13f9f000004eb0064
:10237000100037000902780088017800a2f72f00ca
:102380000f01410081f72f008f8040000a00780084
:1023900090fe070008004000880f500004003d0038
:1023a000b0042000f04c88000084eb0004003700eb
:1023b000000478004f3897001004e000edff3a0069
:1023c000080078004f0578004f04be000080fa0036
:1023d000000006000000fa00cfb89700688157009f
:1023e000b04680001000780005fe07000080fa006b
:1023f0000000060000000600c08d2000000006005e
:10240000fdff0700d0468800c04688000000060097
:10241000889fbe008a1f78008004780049009000e1
:1024200002047800800f5400010036000004780098
:10243000080178006a8544001a0078000afd070048
:102440001a004400000d7800e8844400990c140040
:102450000048eb004f0578004f04be000000060066
:102460001000780091f83700900190000388a300d5
:1024700001003200e6ff37000348a30001003a00e4
:10248000f7ff070000000600889fbe008a1f780043
:1024900000047800010578000000eb000800e0006f
:1024a0001a003200180090000058a3000c003200ff
:1024b000ea04440068009000990f100008003600fc
:1024c000b80990000001eb00820078000800780055
:1024d000030001000080eb001900e0000b00320057
:1024e000740044000008eb006c0044000008eb009e
:1024f0006a0044000008eb000000eb000a00e00066
:1025000002003200180078005cf807004f057800e0
:102510004f04be0000000600889fbe008a1f78009e
:102520000004be000000eb000800e00029003200bb
:10253000180090000058a300120032006a05440001
:10254000680090009a0f100008003600b80990004b
:102550000001eb0082007800080078000300010011
:102560000080eb001a00e0001a0032007400440002
:102570000008eb006c0044000008eb006a00440017
:102580000008eb00780a900008109000800f5200bd
:10259000060031000002520011002000cfa2de0030
:1025a000612bb9001800780025f807000002200010
:1025b000080040000008eb007e0044000008eb002b
:1025c0000000eb000900e000020032001800780073
:1025d0002af807004f0578004f04be0000000600ef
:1025e00000000600ef03b000889fbe008a9fbe0077
:1025f0008c9fbe008e1f7800c09f9f00834678008e
:1026000001007800b0017800f3a79f001000780067
:10261000f09f9f0021029000d4a79f00c10290006c
:10262000b59f9f00310790003204be002205be0016
:10263000d8b79f00e9b79f00fab79f008bbf9f00f4
:102640006022b8006033b8000800be000a01be0076
:102650000b0807000000e0000b003d005fb0970092
:10266000efb097007fb197008fb9970003f0a200f9
:10267000d0b79f00e1b79f00f2b79f0083bf9f00d4
:10268000d0c2b30004003700ffa097000128a300c8
:1026900008003200b0c2b300004f78005fa197007d
:1026a0000201e900e2a79f001300200083af9f0012
:1026b0000f0037007fa297000438a3000800320003
:1026c00000c2b300004f7800dfa297008502e90046
:1026d000e5a79f001600200086af9f00040037008a
:1026e000dfa39700e7a79f000004eb0088af9f00df
:1026f0005fb09700efb097007fb197008fb9970058
:10270000b7ff0700f4ff2f00f5ff2f00f6ff2f00a3
:10271000f7ff270004026000858260000603610065
:10272000878361006000b8000200200003ff2700db
:102730000020e10001a8e10002b0e10003b8e100df
:102740000b003a008d06fb001d04b1008fac970012
:1027500009004700c1972000f98f5600010036009c
:102760000198200094070700009820001d02370000
:102770000020e10001a8e10002b0e10003b8e1009f
:102780000b0036008d06fb001d04b1000fad970055
:102790000a00470041982000f98f560001003600da
:1027a0008198200084070700809820000d023700e0
:1027b00000c3b3008fad970000f77d000b00e80069
:1027c000000147008d00fb00f3fb2f0083814000d8
:1027d000d39f9f0081c7b300f98f510001003e00d5
:1027e00081c5b300014978000000e80080af9f0078
:1027f0006022b8006033b8005fb09700efb0970078
:102800007fb197008fb997009d0707000000e00097
:102810005e0032000002eb006044b8000a002000b5
:102820000bff230098a79f00a9a79f00baa79f00ae
:10283000cba79f0004067800050037000c06e800cf
:102840001fac9700afac97003fad9700cfad97009e
:102850000802be000a03be000800be000a01be0056
:10286000e30707000002be000203be0094af9f0012
:10287000a5af9f00b6af9f00c7af9f005fb09700a6
:10288000efb097007fb197008fb997007c070700e2
:102890000000e000e9ff3d009caf9f002a003700e8
:1028a0006022b8000600200007fe23000800be00da
:1028b0000a01be00c80807006022b8006033b800f3
:1028c0006f0707000000e00016003a006022b80021
:1028d00006002000073524000800be000a01be00e3
:1028e000bd0807000004be000205be006022b8005b
:1028f00006002000073524005fb09700efb0970076
:102900007fb197008fb99700b30807000002be009f
:102910000203be00d4b79f00e5b79f00f6b79f0043
:1029200087bf9f006022b8000600200007fe23003a
:102930000800be000a01be00a70807000004be0090
:102940000205be000c06e9000802be000a03be0034
:102950005fb09700efb097007fb197008fb99700f5
:10296000470707000000e000cdff35000800be006b
:102970000a01be0090a79f00a1a79f00b2a79f00d9
:10298000c3a79f009caf9f00090037008000eb00a9
:1029900091af9f006022b8000600200007ff2300cf
:1029a00094a79f00a5a79f00b6a79f00c7a79f0059
:1029b000ff9a9700800120000500e000010035002b
:1029c0007f9897000000e800e09f9f001fa49700f9
:1029d000afa497003fa59700cfa5970098b79f0099
:1029e000a9b79f00bab79f00cbb79f005fb497000d
:1029f000efb497007fb597008fbd97000006eb00fe
:102a00003a0037001fb29700afb297003fb397006c
:102a1000cfb397000800be000a01be00bf07070041
:102a2000260b07000002be000203be00d4af9f00c9
:102a3000e5af9f00f6af9f0087b79f003407070000
:102a40008002780085a79f001fb29700afb2970061
:102a50003fb39700cfb397005fa89700efa8970008
:102a60007fa997008fb197005b0807000002be00a6
:102a70000203be000800be000a01be0056070700a0
:102a80000004be000205be006022b800060020005f
:102a900007fb23001fb09700afb097003fb197002e
:102aa000cfb197004c0807000002be000203be0031
:102ab00094b79f00a5b79f00b6b79f00c7b79f0008
:102ac0000c06e800ff9a97000500e00007003d00b3
:102ad0006022b8006033b8000800be000a01be00e2
:102ae000e70607000000e000040032006f9b97003b
:102af000860f5600c3ff350001003700ec9f9f0092
:102b00006022b80006002000070224001fb09700d2
:102b1000afb097003fb19700cfb197002e080700e4
:102b20000002be000203be0094b79f00a5b79f003d
:102b3000b6b79f00c7b79f000800be000a01be00dd
:102b4000cf0607000000e0000d0035001fb297001f
:102b5000afb297003fb39700cfb397000800be0015
:102b60000a01be00c60607000000e00011003a009e
:102b70008fa297000508a300080032000d0037005f
:102b80006044b8006055b80098b79f00a9b79f008f
:102b9000bab79f00cbb79f00060037006000b800af
:102ba0006011b80090b79f00a1b79f00b2b79f0017
:102bb000c3b79f001fb29700afb297003fb3970013
:102bc000cfb397005fb09700efb097007fb1970049
:102bd0008fb99700060707000002be000203be007f
:102be00094b79f00a5b79f00b6b79f00c7b79f00d7
:102bf0007bfe07000203be000002be00f0ff2f00b4
:102c0000f1ff2f00f2ff2f00f3ff27000004620006
:102c1000818462000205630083856300d8b79f004a
:102c2000e9b79f00fab79f008bbf9f006000b80014
:102c30000200200003ff27000040e10001c8e1007e
:102c400002d0e10003d8e100befe3200efa49700fd
:102c50008986e9000fae97000005eb00dab79f0008
:102c60008aa79f00daaf9f006c0037001fa2970071
:102c7000afa297003fa39700cfa397001fb0970084
:102c8000afb097003fb19700cfb19700230707007f
:102c90008a0a07000004be000205be009c06070069
:102ca000800078000100e00007003a005fa897006c
:102cb0000000e00004003200dfb097008100e8006f
:102cc000e1a79f002e0037000fa197000200e0004f
:102cd00009003a00dfa997000300e0000600320077
:102ce000e0c2b30000777e000c06e8008d06e90024
:102cf0001400200084a79f000c014700dfb297005a
:102d0000e5a79f00050078000300370003c3b30068
:102d1000035978000000e9000000e000fbff3a00e2
:102d2000e0a79f005fb3970006064600e98f5000ba
:102d300003003c00000320000100400002003700b7
:102d40007005200001004000df9b9700f98f5300c1
:102d500006003e00800078000150a0001106b1007e
:102d6000f98f500001003e001a06070000777e0030
:102d70000c06e800dfb097000180ea00808646007c
:102d80001fa29700afa297003fa39700cfa3970081
:102d90000800be000a01be008f0707000002be0047
:102da0000203be001fb09700afb097003fb197007d
:102db000cfb19700880607000002be000203be00e4
:102dc00094b79f00a5b79f00b6b79f00c7b79f00f5
:102dd0006022b8000600200007fb23001fa0970018
:102de000afa097003fa19700cfa197007a070700f7
:102df0000004be000205be0098a79f00a9a79f007f
:102e0000baa79f00cba79f00dfac97008904e90019
:102e1000d9af9f006fa59700dab79f00dfad97008d
:102e20000b00ea00ef989700810f500004003d006e
:102e30003f99970065005100800f56008bff3900c5
:102e40008fa197000300e0001a003a005fb29700dc
:102e50000400e00070003400ff9a97000500e000d5
:102e60006d0034007fa397000608a3006a003a00b3
:102e70008c004700e0c2b300804878000c06e800f0
:102e80000400780002c3b300826878000000e90003
:102e9000fcff3a00dfb39700070646008d06e90005
:102ea0008786560003003700e0c2b30000777e003b
:102eb0000c06e8000c0047000048eb003f9c970020
:102ec0008800e900010147000049eb008001eb00a8
:102ed0009fac97000900e00003003d008904ea0070
:102ee00099af9f0013002000120020001faa970036
:102ef00081037800000478000a003700810378001d
:102f0000a5002000110009000502d8000002be0043
:102f10000703470009c3b30009cb42000201e900df
:102f20008d06e9008700e9000400e000f3ff3a00a5
:102f3000e10f5100f1ff3200080078000102470064
:102f4000b2c2b3000300e00001003200d2c2b300fd
:102f5000024a78000101e9008200470003c7b3007c
:102f60005f9d9700f90f550001003e0003c5b300b7
:102f700083487800820f5600010031008e0507005b
:102f8000ffa5970063806500e20f500014003a002f
:102f90000d84e9004240a900110034000e007800c1
:102fa0009bfa07008d06e900808646008d064700e3
:102fb00002003700ee6678000000e9008fa8970055
:102fc000810f5000fbff310001004700080178002d
:102fd000010320002bfa07000001eb00d2a79f009d
:102fe0000e0078008afa07007fa29700dfa1970001
:102ff000000178008e0078004f98970022fb0700b0
:103000004f0778004f06be004f05be004f04be00bc
:10301000ef03b10000000600ffa197000348a300e2
:10302000a1ff3a00a3ff3700ec874700889fbe004e
:103030008a9fbe008c9fbe008e1f7800000678001d
:103040000104780018079000280590009806780081
:10305000cdb79f00b80590003202be002203be002b
:103060000400be000601be004f18de006011b8006b
:103070008000eb00d0b79f00e1b79f00f2b79f0040
:1030800083bf9f00800478000900e0000600320042
:103090006000b8006011b80004025000858258003a
:1030a00006035900878359000e00e0000200350036
:1030b0000d10a100cdb79f000900e00005003a0007
:1030c0004fb097000028a30002003a000038a30088
:1030d000020032008a00e900010037008a0078000f
:1030e000f8815700a200200008007800290307009b
:1030f0000900e00003003a00cfb097000128a300c8
:10310000080032000000e90000814500b1c2b300b0
:103110000900e00001003200d1c2b300014978008b
:10312000050037000138a300030032000000e90069
:1031300001c2b30081757800480190000201e900e6
:1031400000015100808045004fb297008a0178004d
:103150000c007800ccfa07009c0090000188a300c6
:103160000400320098009000810f500001003d00e3
:10317000010078004f0778004f06be004f05be00e3
:103180004f04be00cf00b1000000060000000600a2
:103190008f04b000889fbe008a9fbe008c9fbe0037
:1031a0008e1f7800809f9f00f19f9f00c3779f0034
:1031b00001007800b0007800e1a79f0010007800bf
:1031c000d0b79f00ff999700a3019000d3a79f005d
:1031d0007f9a970044029000f4979f00ff9a97000f
:1031e000b50690003204be002205be006022b80081
:1031f0006033b8000800be000a01be0020050700c9
:103200000000e00003003d000bf0a200d0c2b300bc
:10321000040037006fa397000628a30008003200bf
:10322000b0c2b300804e7800dfa397008703e900a7
:10323000c7af9f0010002000f0a79f000f003700cd
:10324000efa097000138a3000800320000c2b300cd
:10325000804e78005fa197000201e900c2af9f0095
:1032600013002000f3a79f00040037005fa297001f
:10327000c4af9f008002eb00f5a79f000800be00ce
:103280000a01be00c1ff0700f4ff2f00f5ff2f0069
:10329000f6ff2f00f7ff2700040260008582600020
:1032a00006036100878361006000b800020020000f
:1032b00003ff27000020e10001a8e10002b0e100c7
:1032c00003b8e10010003a004f7397008600fb003e
:1032d0001104b100ffa3970007804600f98f50004a
:1032e00002003e00c1982000010037000199200033
:1032f000b104070000992000c5f90700ffa097005e
:1033000001014000140037000020e10001a8e100a5
:1033100002b0e10003b8e100120036004f719700df
:103320008200fb001104b100ffa19700038046005a
:10333000f98f500002003e00419920000100370043
:10334000819920009c04070080992000b0f90700b3
:103350007fa29700040140006fa29700dfa19700b1
:10336000190237006022b8006033b8000800be00c0
:103370000a01be00c20407000000e000680032003d
:103380006000b8000200200003ff230080af9f0010
:1033900091af9f00a2af9f00b3af9f000007eb006b
:1033a0000802be000a03be00d4af9f00e5af9f0035
:1033b000f6af9f0087b79f00070037000e07e800b1
:1033c0000800be000a01be0080af9f0091af9f00c1
:1033d000a2af9f00b3af9f006022b800060020009c
:1033e000470224000fa897009fa897002fa99700d5
:1033f000bfa99700f80507000004be000205be0043
:103400000002be000203be005fa89700efa897006d
:103410007fa997008fb19700990407000000e00092
:10342000e6ff3d000006eb000fac97009fac970055
:103430002fad9700bfad97002500370040ed2f005e
:10344000800f570019003d000c00e00016003a0004
:103450006022b80006002000073524005fa897000e
:10346000efa897007fa997008fb19700da050700b2
:103470000002be000203be00d4af9f00e5af9f0074
:10348000f6af9f0087b79f006022b80006002000bb
:10349000073524000800be000a01be00ce05070063
:1034a0000004be000205be001c0020006022b8001f
:1034b00006002000470224000800be000a01be00ea
:1034c000160507000004be000205be000e07e90055
:1034d0000802be000a03be005fa89700efa897008d
:1034e0007fa997008fb19700650407000000e000f6
:1034f000d2ff35000800be000a01be0080af9f0069
:1035000091af9f00a2af9f00b3af9f005fac970049
:10351000efac97007fad97008fb59700080037009c
:103520006022b8000600200007ff230084af9f0040
:1035300095af9f00a6af9f00b7af9f000007eb00bd
:10354000cf7297000500fb0062030700d0779f0051
:103550005fb39700600020000600e0000100350026
:103560005fb0970071c6b300df73970081cf53003f
:103570000a003a00dfb097000100e0009b01320032
:103580009b0137008e0f50009f013c00d0af9f0081
:1035900052c6b30082cf9f001e003700df71970034
:1035a00083cf9f000200370064c6b30084cf9f0022
:1035b0000000e800d0af9f0060c6b3008fca97003c
:1035c00080cf520013003a000e00e00008003d00da
:1035d0006000b8000200200003ff230080af9f00be
:1035e00091af9f00a2af9f00b3af9f000007eb0019
:1035f00061c6b30081cf9f0070c6b3005f719700b2
:10360000804f510003003200dfa997008e814100f6
:10361000d3af9f000faa97009faa97002fab9700e8
:10362000bfab970094b79f00a5b79f00b6b79f00a8
:10363000c7b79f000800be000a01be00d0b79f00b8
:10364000e1b79f00f2b79f0083bf9f000006eb0029
:103650000802be000a03be00b49f9f00c59f9f00e2
:10366000d69f9f00e79f9f00310037001fb2970051
:10367000afb297003fb39700cfb397005fb097000a
:10368000efb097007fb197008fb99700a3040700b0
:103690000a0807000004be000205be001c04070063
:1036a0008002780085a79f001fb29700afb29700f5
:1036b0003fb39700cfb397000800be000a01be00d9
:1036c000450507005fb29700efb297007fb3970000
:1036d0008fbb9700400407000002be000203be003b
:1036e00007f0a200d4b79f00e5b79f00f6b79f0090
:1036f00087bf9f006022b800060020004702240018
:103700001fb09700afb097003fb19700cfb19700bf
:10371000820407000002be000203be0094b79f00af
:10372000a5b79f00b6b79f00c7b79f000c06e8007b
:10373000dfaa9700850f5600ccff35003f9c97000d
:10374000cf9c97005f9d9700ef9d97006022b80087
:1037500006002000470124001fb09700afb097007b
:103760003fb19700cfb197001b0507000002be00d4
:103770000203be0094b79f00a5b79f00b6b79f0095
:10378000c7b79f005fb09700efb097007fb1970079
:103790008fb99700ba0307000000e0000f00350062
:1037a0001fb29700afb297003fb39700cfb3970017
:1037b0005fb09700efb097007fb197008fb9970087
:1037c000af0307000000e00011003a008fa297004d
:1037d0000508a300080032000d0037006000b800a3
:1037e0006011b80090b79f00a1b79f00b2b79f00cb
:1037f000c3b79f00060037006022b8006033b800ee
:1038000094b79f00a5b79f00b6b79f00c7b79f00aa
:103810001fb29700afb297003fb39700cfb39700a6
:103820000800be000a01be00f10307000002be004e
:103830000203be0084a79f0095a79f00a6a79f0034
:10384000b7a79f0050c6b3008fca970080cf520021
:1038500003003a000003eb00d6b79f0001003700d9
:10386000deb79f007fa697000000eb0090b79f0097
:10387000909f9f00b09f9f008e007800e1979f006f
:10388000660037000faa97009faa97002fab9700fa
:10389000bfab97000fa097009fa097002fa19700a4
:1038a000bfa197001d040700840707000004be00a5
:1038b0000205be009603070000017800efa1970003
:1038c0000348a3000c003a000200e0000a003a009e
:1038d00070c6b3005f729700804f520006003a0036
:1038e000dfb297000500e00003003d001fb3970022
:1038f0000607e800200037009f9b97000700e000c4
:103900000b003a005fb097000000e00008003d00a7
:10391000e0c2b30080767e000c06e800cfa89700d6
:103920008100e900c1af9f0013002000939f9f001a
:103930008c8046001fb797000300370000c3b30018
:10394000805878000e07e9000e00e000fbff3a0007
:103950001fb29700040646000c80460005c3b30062
:10396000054841000c06e8000480ea004fab9700d0
:1039700000034300c6af9f000faa97009faa9700bd
:103980002fab9700bfab97000800be000a01be0036
:10399000910407000fa297009fa297002fa3970002
:1039a000bfa397008c0307000002be000203be0005
:1039b00007f0a20084a79f0095a79f00a6a79f00dd
:1039c000b7a79f006022b80006002000470224002d
:1039d0000fa897009fa897002fa99700bfa997004d
:1039e000ce0307000002be000203be0084af9f00aa
:1039f00095af9f00a6af9f00b7af9f00dfb29700c3
:103a00008502e900d5b79f003f9b97000603e800b9
:103a1000b69f9f008e03780097b79f003f9897004e
:103a2000dfa89700810f500005003d007f999700a7
:103a30004200900065005000800f560091ff390051
:103a40006f9797009f9997000300e00006003a00e7
:103a50006fa297000448a30003003200e0c2b30045
:103a600080767e000c06e8000c8046000048eb00e3
:103a700051c6b3008fca970081cf520036003a007a
:103a80007f9397008600e900018146000049eb0022
:103a90008001eb000e00e00002003d000e07ea008e
:103aa000130020002200200081037800cfaa970095
:103ab000000478000b00370081037800a400200088
:103ac000110009000407d8000102780000077800ff
:103ad0000783460000c3b300004b42000201e90027
:103ae0008502e9008700e9000e00e000f2ff3a00dd
:103af0000200e000f0ff3c00c5af9f000800780026
:103b000001824600b2c2b3000300e00001003200af
:103b1000d2c2b300024a78000101e9008280460067
:103b2000cf7197000302fb001404b10053c6b30029
:103b3000f90f520001003e0053c4b30083487800df
:103b40004faa97000482e900c4af9f00820f56007d
:103b50000100310098020700efa297006380620025
:103b6000e20f500013003a004fab97000600e00050
:103b7000100034000d007800a5f70700040037009e
:103b8000cfab970087804600ed7078000000e90019
:103b9000ffa19700830f5000f9ff3100038046001a
:103ba0004fa997000103200036f707000002eb0041
:103bb000d4a79f000d00780095f707006fa297002b
:103bc000dfa19700000178008d0078000f98970022
:103bd0002df807004f0778004f06be004f05be00c6
:103be0004f04be008f04b10000000600100020004a
:103bf000e40f470063fe3d00d0af9f0055c6b30001
:103c000085cf9f0083fe37000e00e00066fe350082
:103c1000d0af9f0076fe37000200fa00889fbe00fa
:103c20008a9fbe0000057800010478000200780039
:103c300018019000a805900098007800b1bf9f007f
:103c4000b80490000200e000020035000110a1005d
:103c5000b1bf9f00ea815700820020008b007800ee
:103c60003002be002003be000800780049000700b3
:103c70003fb99700f0006100030032000000e90046
:103c800001c3b300817478003fb99700e800610078
:103c9000030032000000e90001c2b3008174780023
:103ca000480190000201e9000001510080804400b9
:103cb0003fba97008b0178000a007800f2f70700fe
:103cc0009a0090000188a300040032009800900040
:103cd000810f500001003d00010078004f05be003b
:103ce0004f04be000080fa0000000600ea8747008b
:103cf000889fbe008a9fbe008e1f78000004780057
:103d0000030078007287570084e2260055c726001a
:103d1000049fbe00c3962200030f78006c875700f3
:103d2000004feb0011059000a10490009105780070
:103d30000200e000020032000207780001003700b4
:103d4000728757000000e00002003a000e00780081
:103d50002ff707000a00e000030035008a0f50002b
:103d6000010036000a0078000b0278008901780013
:103d7000000178008e00780008007800c2f7070084
:103d80004f0778004f05be004f04be00af00b100e2
:103d900000000600f4874700889fbe008a9fbe008f
:103da0008c9fbe008e1f78000605be000404be0076
:103db00081bf9f0082b79f00f3b79f00b0009000c3
:103dc000e1b79f001301780092b79f009006900022
:103dd000400690000c06e9000d00e00001003d00e7
:103de0001d002000efb197000c8041000048eb005f
:103df0001e0020001f0037000c06e9000fb09700de
:103e0000cf80de006109b900a0b79f00b1b79f0065
:103e1000c2b79f00d3b79f000203be000002be00de
:103e20000800be000a01be00c205070000077800b6
:103e3000efb097000c80400003c3b3000348470075
:103e40008d06e9000fb897000000e90080bf9f00d1
:103e50002fb29700bfb297004fb39700dfb3970020
:103e60000800be000a01be00ab0507000205be0047
:103e70000004be000c00e0000d003200e00f540012
:103e8000e08f5c00e00f5d00e08f5d00daff3a003c
:103e90000d00e000d8ff3c008fb897000100e00063
:103ea000030034001fb197000218a300d2ff3a00ac
:103eb0000e00e00002003a00ffb197001340a1009d
:103ec0000c0078004f0778004f06be004f05be007b
:103ed0004f04be004f01b100000006000200fa00ce
:103ee000889fbe008a9fbe0080047800010478008d
:103ef00002007800180190002805900098007800d2
:103f0000b1bf9f00b80590000200e000020035003c
:103f10000110a100b1bf9f00ea815700a20020005c
:103f20008a0078003002be002003be00080078003e
:103f300098ff0700480190000201e90000015100cc
:103f4000808045003fba97008a0178000900780018
:103f50004df70700990090000188a300040032008b
:103f600098009000810f500001003d000100780092
:103f70004f05be004f04be000080fa00000006009e
:103f8000fa874700889fbe008a9fbe008c9fbe00b4
:103f90008e1f780080047800010478008205780084
:103fa000180190002805900018077800b8009000cc
:103fb0000200e000020035000e10a10001003700f1
:103fc0001200200070006700e0b79f000900320077
:103fd0003b02be002b03be00e00f5200e08f5a00f0
:103fe000e00f5b00e08f5b00020032008a86e90090
:103ff000010037008a067800e8026700f5b79f00e5
:10400000010032008d06e9003b02be002b03be001a
:10401000e4af9f00f5af9f0086b79f0097b79f0062
:10402000480690000c06e9000c8040000048eb00b8
:10403000efb297007fb2970089037800810478007f
:10404000d8af9f00020478008bbf9f008a057800dc
:10405000034578002a0037000c06e9006fab970093
:104060006f006300e90f500002003c000003b00045
:10407000010037007005b0000a03fb001604b10010
:10408000f90f53000c003e00000378000650a0001a
:104090001606b100f90f530007003e00b4b79f00a9
:1040a000a5b79f00c7b79f004a010700cfb397008d
:1040b000afb297003fb2970080747e000804e90019
:1040c0008d06e9006fa89700ffa897000fb1970031
:1040d0009fb19700460020008301d1000281d300e8
:1040e0008180d3000080d3000603e900faff3a0084
:1040f000e0af9f00f1af9f0082b79f0093b79f0092
:10410000e10f56000f0036006fa89700ffa8970038
:104110000fb197009fb19700e00f5000e08f58005b
:10412000e00f5900e08f5900cbff3a000800e00093
:10413000c9ff3c000d00e000020034000e18a3008f
:10414000c5ff3a0089007800f4b79f008704780023
:104150005fac97008a4178000b0578008fbd97000f
:104160000500e000100032003b02be002b03be0041
:10417000e4af9f00f5af9f0086b79f0097b79f0001
:10418000e00f5200e08f5a00e00f5b00e08f5b0011
:10419000050032000c06e90083707e000c06e90081
:1041a00000c3b30080707e00ffb297000500e000fe
:1041b000030032000c06e90000c2b30080707e00ec
:1041c000480190000201e9000c0151008c80400080
:1041d0000e0278008a01780009007800aaf607002c
:1041e000990090000188a30004003200980090001c
:1041f000810f500001003d00010078004f0778005a
:104200004f06be004f05be004f04be00af01b10017
:10421000000006008000780010002000020220004c
:10422000828f500004003200e9805000e48f50007b
:10423000010036000000eb0000000600889fbe0071
:104240008a1f7800800478000904780088047800c8
:10425000394578000a00fb00eeff07000000e0008f
:10426000f9ff3a00b0c2b300804f5500050032009c
:10427000d0c2b3008000eb00804f550005003a002b
:10428000020037008000eb00010037001100200021
:104290000804e8000000eb00030037006a02b900e0
:1042a000020052000003b0003801fb0003fd2f00a4
:1042b00082814100e98f5100f8ff36000100e000e3
:1042c00001003a000000ea004f0578004f04be00ec
:1042d00000000600f1fb2f0080804000f98f5000a5
:1042e00001003e000050a00000000600f9ff37006a
:1042f000881f78000004780000082000808f50009c
:104300001700350010082000808f50000b0034008b
:1043100030082000808f500011003a009200780091
:1043200068805000000978003002be002003be0003
:10433000049cbe000694be0007003700920278007d
:1043400064805200000978001000be00d100070010
:10435000009cbe000294be00100020000100370047
:104360000000eb004f0478000000060084082000e5
:10437000848f50001d0032000d003c001408200006
:10438000848f50002700320002003c000408200007
:104390000400370024082000848f50002a003200d7
:1043a00044082000848f500048003a003b0037004a
:1043b000040a2000848f50002c00320004003c00ce
:1043c00004092000848f500040003a002d0037007f
:1043d000020c2000828f50001e003200020f2000cd
:1043e000828f500039003a00300037009380e90096
:1043f0000200e00005003200810978001102fb0094
:10440000cfa2de00612bb9002d00370081097800b2
:10441000114278000482fb008002eb006033b80098
:104420002700370013027800e40052000200e00089
:104430000a003200810978001102be004fabde0095
:10444000860378001e00370093027800e88052004f
:104450000e00370093027800e48052008109780052
:104460001102be006033b800150037009380e900e8
:104470008109780011027800cfa2de00612bb9001b
:104480000f00370013037800e8005300810978001b
:104490003102be002103be00090037009380e9000d
:1044a0000200e00002003200f1ff37009380e900d3
:1044b00081097800110278008002eb006033b800b7
:1044c0000498be000690be00100005000000050024
:1044d00044082000848f5000270032000a003c006e
:1044e00014082000848f50001c0032002408200093
:1044f000848f50002600320004082000848f500072
:104500002c003a001c00370004092000848f500062
:104510001f00320004003c0084082000848f5000fb
:1045200024003a0007003700040a2000848f50005e
:1045300011003200040c2000848f50001d003a004e
:10454000060037009380e900810978009100780027
:104550000108780082487800150037009380e90050
:10456000810978009100780001087800cf91de0081
:104570008288be000e0037009380e9008109780030
:104580009100780001087800820878000800370060
:104590009380e90081097800910078000108780093
:1045a0006112b900612bb9008498be008690be00ec
:1045b0001000050000000500881f78000004780046
:1045c000080078000e000700080078004f0478000b
:1045d00000000600f1f92f0080804000f98f5000a4
:1045e00001003e00f005b20000000600f9ff3700b0
:1045f0000000060082f70700fdff0700fcff370000
:104600000101780080017800008268000408a3009e
:1046100005003200130037003240780080597800de
:104620000004e00014003200030278000208a30036
:10463000f9ff3a0003007800010037000318780002
:1046400082007800b2017800f5ef2f0083824200eb
:104650000382ea0004826200050828000502620065
:10466000f6ff3200000278003141780002587800ed
:104670000204e000fbff3a0004007800000006009e
:104680008f1fd100750207008f87e9000000e0004e
:10469000000006008103780042f007000001be0020
:1046a0006000b8000478a30013003a006220e10023
:1046b00015003e000d0039008301d1000281d300b6
:1046c0008180d3008301d1000281d3008180d30097
:1046d0008301d1000281d3008180d3000538b0006e
:1046e000c42add00f300b2008381720007f0a70046
:1046f00003f0a0000000060083ff27000200200056
:104700006110b900f9ff370003ff2700f7ff3700fa
:104710001400fa00889fbe008a9fbe008c9fbe00d6
:104720000004be000205be00680047000a90be00fb
:104730000890be00840207000070a7000bf0a100e3
:10474000304320009e02900080825200b0fe2f0075
:104750000028e10011003d00b0fc2f000028e1001e
:10476000150034001e0990008e0890007e00900015
:104770000501b0000201d1008180d3000080d30088
:104780008502e800fbff3a000b00e000a9023b00b5
:1047900060001000e0801800a6023700f0ff2f0034
:1047a000f1ff27000b00e000a2023b0001002800ff
:1047b000000020009f0237006000b8009d02370013
:1047c000020ab900001bb9000200b80081004200d3
:1047d00081004300000006008c9fbe008a9fbe003f
:1047e000889fbe00ca0107000bf0a200040037003a
:1047f0008c9fbe008a9fbe00889fbe00c401070038
:104800000c48e1000b003a000c40e10002003200cd
:104810008b010700400037008b066d003e00320020
:104820000af0a100f3012000f2ff2f006110b9008f
:10483000390037000c40e100370032000940e10048
:10484000010036007e0107008a856d00cf5dde0025
:104850000b0575000006eb008804fd008904540078
:10486000010032007d0107000a04e00011003a0057
:104870000800e00028003200040040008580480065
:1048800006014900878149000358a300180032003f
:104890008301d1000281d3008180d3000080d30046
:1048a0000c86d30001003900610676000804e80098
:1048b0001800370004005000858058000601590098
:1048c00087815900060031000af0a2000c06ea00b8
:1048d00060001800e080180060011900e0811900f4
:1048e00003003a000004eb000005eb000a0037006b
:1048f0000348a30007003a000c06460000004800e9
:104900008180480002014900838149000804e900d0
:10491000f7ff3700af013700c90137008c9fbe0099
:104920008a9fbe00889fbe00790107000b056d00bd
:104930000940e1000a003a000800e00002003200ed
:104940000c40e10006003a000af0a1000c047800d7
:10495000f3012000f2ff2f006110b9009d00370025
:104960000c40e1009b0032000800e000990032009a
:104970000c48e10002003a000004eb00030037009d
:104980000900e00004003a000c0478006000b80060
:104990006011b8008f0037000348a30006003a00fa
:1049a00000004000818048000201490083814900e5
:1049b0000804e900f8ff37000748a30006003a00a2
:1049c0000402420085824a0006034b0087834b00a5
:1049d0008904e900f8ff3700fd3f20008d84540072
:1049e000090454008a1f7800881f780000047800aa
:1049f0008104780002057800830578006000b80023
:104a00006011b8000d0420000500370008044400c0
:104a100089844c000a054d008b854d00080031004b
:104a20000404540085845c0006055d0087855d00f4
:104a30008381d2008d06d300f4ff3b0007003700ce
:104a40000404440085844c0006054d0087854d0014
:104a50008381d2008d06d300ecff3b0008044400a4
:104a600089844c000a054d008b854d0008003100fb
:104a70000404540085845c0006055d0087855d00a4
:104a80000281d2008d06d300f4ff3b0007003700ff
:104a90000404440085844c0006054d0087854d00c4
:104aa0000281d2008d06d300ecff3b0008044400d5
:104ab00089844c000a054d008b854d0008003100ab
:104ac0000404540085845c0006055d0087855d0054
:104ad0008180d2008d06d300f4ff3b000700370031
:104ae0000404440085844c0006054d0087854d0074
:104af0008180d2008d06d300ecff3b000804440007
:104b000089844c000a054d008b854d00080031005a
:104b10000404540085845c0006055d0087855d0003
:104b20000080d2008d06d300f4ff3b000700370061
:104b30000404440085844c0006054d0087854d0023
:104b40000080d2008d06d300ecff3b000b00e0009c
:104b500004003d000404440085844c0006054d001b
:104b600087854d000006eb008301d1000281d30050
:104b70008180d3000080d3000c86d3008301d10054
:104b80000281d3008180d3000080d3000c86d30043
:104b9000890474008b0575008b8474000100320059
:104ba000610676004f0478004f0578000348a300a3
:104bb00007003a000c0646000000480081804800cb
:104bc00002014900838149000804e900f7ff37002a
:104bd000000137001a0137008c9fbe008a9fbe007b
:104be000889fbe00ca0007000b056d008a0578008b
:104bf0000c40e10008003a000900e00082003a00a1
:104c00000af0a1000c047800f3012000f2ff2f004d
:104c10006110b9007c0037000c48e10004003a0044
:104c2000870007000900e00077003a00f4ff370032
:104c30000800e000740032000900e00002003a00c1
:104c40007f00070070003700ed3f20008d84540086
:104c5000090444008a1f7800881f7800871f7800a5
:104c6000861f7800851f7800841f7800cb19dd002f
:104c7000c515de008b8571004b11dd00450dde0092
:104c80000a057100cb08dd00c504de0089847000d0
:104c90004b04dd000440b8000546b8008c8040009d
:104ca00060814e00044eb8008c8040000d01490028
:104cb0008001eb000318ad000456b8000c01410060
:104cc0008d8149000002eb000420ad000646b800cb
:104cd0000c0141008d81490060024a00054eb80078
:104ce0000c0141008d81490060024a000556b80060
:104cf0008c8141000d024a008002eb000528ad00c6
:104d00000746b8008c8141000d024a00e0824a004b
:104d1000064eb8008c8141000d024a00e0824a0034
:104d20004f0678000c5eb8008c8141000d024a00ed
:104d3000e0824a000656b8000c0242008d824a000a
:104d40000003eb000630ad00074eb8000c02420035
:104d50008d824a0060034b004f0678000c5eb8005d
:104d60000c0242008d824a0060034b000756b800d7
:104d70008c8242000d034b008003eb000738ad002e
:104d80004f0678000c5eb8008c8242000d034b0089
:104d9000e0834b004f0678000c5eb8000c03430024
:104da0008d834b004f0478004f0578000748a3001f
:104db0000a003a00000040008180480002014900da
:104dc0008381490004024a0085824a0006034b00a1
:104dd00087834b000804e900f4ff370003067800de
:104de00080807000828070000100320061067600d1
:104df00087017800060178008500780004007800bb
:104e000088047800780037008d0037008c06460053
:104e100002003a000000a600000006006000480002
:104e2000e080480060014900e08149000350a6008d
:104e3000000006008301d1000804e800000006001d
:104e40000002fd008102fd000203fd008303fd005e
:104e50008804fd008a05fd00000006007048e1009e
:104e60001a0039007d0320000d48e1000a003900d6
:104e700081057000830671008c8575008d85750035
:104e80000006eb000cd8e700610676006000b80071
:104e90006011b800000006007048e1000b00390006
:104ea0008c05780000067800010078008200780008
:104eb000030178008001eb0003d8e700610676006b
:104ec000f0845400f4ff3a00000006006160e10045
:104ed0000c48ad00f08514008b06dd000966de008d
:104ee0000d0676008b0edd000900de000d0070005f
:104ef0008b16dd008908de008d8070008b1edd00c2
:104f00000911de000d0171008919de0000000600a4
:104f10000d002800fc7f20000d856100441cde0090
:104f2000ef8161000c046400010032000340a00026
:104f30008d856300c43cde00ef8363008c846400d5
:104f4000010032000740a0000c40e10006003a00da
:104f5000ef86610082867600818676008086760004
:104f600001003200180037000c48e10007003a0049
:104f7000ef866300868676008586760084867600d6
:104f800002003200aeff07000f0037000348a30005
:104f900005003a00810670008286760083867600de
:104fa000010032000804e8000748a30005003a00a9
:104fb00085067200868676008786760001003200bc
:104fc0008904e80000000600cf047800cf057800cf
:104fd0001b0037000002780081027800020378008d
:104fe00083037800880478000cf0a70087ff07008f
:104ff000fd7f20000d40e100040035000d04780025
:105000006000b8006011b8000d0037000800e00033
:105010000b003c0004007800850078000601780051
:1050200087017800e18414008cff07000cf0a700d2
:1050300076ff07000004eb000340a7000804e80027
:105040004444dd006fc56100880175004f04be0057
:105050004f05be004f06be0000000600889fbe0040
:105060008a9fbe008c9fbe000404be000605be00e1
:10507000809fbe00829fbe002100070004067800ca
:105080000800be000a01be001d000700840678006b
:105090004f03be004f02be008d4f76007fb09700d9
:1050a00013003300f0ff2f008b8f6b0006003b00d6
:1050b0000d0666000c00a7000a00370007f0a600e6
:1050c000100020000a003700880f5200898f5a0014
:1050d0008a0f5b008b8f5b000300390010002000fb
:1050e00001003e000000200007f0a7000000ea00d9
:1050f0004f06be004f05be004f04be000000060074
:1051000005ff270005826100070032000428e10046
:1051100001003200240005000600070001003a00eb
:10512000440005000408050002000700f9ff3a00ea
:10513000140005006f826100810270008502710019
:105140008502720000000600800078005002be0058
:105150005003be004439de00f700b200f37f2000a8
:1051600003016100090032000218e10016003a0054
:1051700085017200830173008381730000082000a1
:1051800015003a004000200013003700850172002e
:10519000830173008381730005003a0004a8be00f8
:1051a00006a8be00100020000b0037000201e90035
:1051b0000402420085824a0006034b0087834b00ad
:1051c0000748a300f9ff32000740a00004a8be0072
:1051d00006a8be00200020008000980092009800e1
:1051e00000000600680447000294be000094be0060
:1051f000fc0447008694be008494be000900780039
:10520000d1ff070008007800cfff07009900780061
:10521000814f70000b003b000800be000a00070031
:105220004f00b10003003700f3ff2700f2ff2f000b
:105230006110b9004f06be004f05be004f04be000e
:105240000080fa0000000600e48240001078a3000d
:1052500007003200640240001178a3003400be0051
:105260001401be00040032000330a7000000060055
:105270003500be001501be000330a000000006008e
:1052800000c0da000000060000c0da0000000600de
:10529000889fbe008a9fbe0030044200b0844a004e
:1052a00030054b0090854b006000b1000898be00af
:1052b0000a90be000440e10005c8e10006d0e1000c
:1052c00007d8e10002003100680040001008e80043
:1052d0004f05be004f04be0000000600889fbe00c0
:1052e0008a9fbe003004be002005be000418540092
:1052f00005985c0006185d0007985d00110020000d
:105300000440e10005c8e10006d0e10007d8e10053
:10531000010039008000eb00108810004f05be002e
:105320004f04be0000000600f4874700889fbe00bf
:105330008a9fbe008c9fbe008e1f7800d0b79f0052
:10534000e1b79f00f2b79f0083bf9f000605be0034
:105350000404be00cfae97000000eb00c0b79f0072
:10536000b0b79f00a0b79f0090b79f0080b79f0085
:10537000000678004fb09700000140000000e000f8
:1053800006003d003c0007000f07470045000700ee
:105390000f004000beff0700050037003600070081
:1053a0000f0747003f0007000f004000cbff07003a
:1053b0004fb797000e00e0000c0035005fb2970079
:1053c000efb297007fb397008fbb970010002000cb
:1053d000010020006011b80000027200818272009a
:1053e00002037300838373001c0007000c06e800af
:1053f00001042000810f5600deff3a000e00e0009d
:1054000005003d000802be000a03be0000fe2f009a
:105410000f0040009eff07000d00e00005003a006d
:105420000fb297009fb297002fb39700bfb39700ba
:105430000a0007005fb09700efb097007fb19700b8
:105440008fb997004f0778004f06be004f05be008a
:105450004f04be004f01b10000000600010007002c
:105460000000060094b79f00a5b79f00b6b79f0045
:10547000c7b79f00000006009fb097004f08de00ee
:1054800002017000a2b79f000fb097004f01de002d
:10549000818040008100710091b79f000efe2f00b7
:1054a00000000600de0078004f09de00000040002a
:1054b0000000710080b79f006fa897004f01de00c9
:1054c00081804000010f71000e0007004f3ade009e
:1054d0000000400004007000e0af9f0009000700da
:1054e0000402420085824a0006034b0087834b007a
:1054f000dcff07000802be000a03be0000fe2f000a
:10550000000006001fb29700afb297003fb39700ac
:10551000cfb3970000000600881f78001800200015
:10552000881f780080ff07008f87e9004f0478000c
:1055300000000600801feb007bff07008f87e9005b
:1055400000000600889fbe008a9fbe00e00f50004a
:10555000e08f5800e00f5900e08f59000c003d002b
:105560006044b8006055b8000000540081805c00c1
:1055700002015d0083815d00180020001500070016
:1055800008003d00180007000004eb00050037008c
:105590000004eb000f00070002003d0012000700ae
:1055a00018002000dcff07000800e00006003200c1
:1055b0006022b8006033b8000000520081805a00b9
:1055c00002015b0083815b004f05be004f04be00fb
:1055d00000000600e00f5200e08f5a00e00f5b0071
:1055e000e08f5b00000006006044b8006055b80022
:1055f0000402540085825c0006035d0087835d0021
:1056000000000600889fbe008a9fbe008c1f7800a5
:10561000e00f5000e08f5800e00f5900e08f590074
:105620000d003d006044b8006055b8000000540013
:1056300081805c0002015d0083815d001c00200010
:105640000820e10009a8e1000ab0e1000bb8e10080
:105650000d003d00080037000006eb00e00f52008f
