:100000000C94DE000C94FB000C94FB000C94FB00A1
:100010000C94FB000C94FB000C94FB000C94FB0074
:100020000C94FB000C94FB000C94FB000C94FB0064
:100030000C94FB000C94FB000C94FB000C94FB0054
:100040000C94FB000C94FB000C94FB000C94FB0044
:100050000C94FB000C94FB000C94FB000C94FB0034
:100060000C94FB000C94FB000C94FB000C94FB0024
:100070000C94FB000C94FB000C94FB000C94FB0014
:100080000C94FB000C94FB000C94FB000C94FB0004
:10009000E203FE03190434044F046A049204FB06CD
:1000A0001D073B075C077A079B07B807110818086C
:1000B0001F0826082D0834083B086E616E00696E23
:1000C000660000407A10F35A00A0724E1809001022
:1000D000A5D4E80000E87648170000E40B540200BD
:1000E00000CA9A3B000000E1F505000080969800E8
:1000F000000040420F000000A08601000000102711
:1001000000000000E80300000000640000000000A0
:100110000A00000000000100000000002C76D888D2
:10012000DC674F0823DFC1DFAE59E1B1B796E5E3E5
:10013000E453C63AE651997696E8E6C28426EB89FE
:100140008C9B62ED407C6FFCEFBC9C9F40F2BAA59B
:100150006FA5F490055A2AF75C936B6CF9676DC133
:100160001BFCE0E40D47FEF520E6B500D0ED902E37
:100170000300943577050080841E080000204E0A95
:10018000000000C80C333333330F986E12831141D3
:10019000EF8D2114893BE65516CFFEE6DB18D1849E
:1001A0004B381BF77C1D901DA4BBE42420328472C5
:1001B0005E228100C9F124ECA1E53D2711241FBE78
:1001C000CFEFCDBFDFE3DEBF18E2A0E0B8E2E4E6A8
:1001D000FBE302C005900D92AE30B107D9F728E2DB
:1001E000AEE0B8E201C01D92A43AB207E1F70E9466
:1001F000330D0C9438180C940000CF92DF92EF92DC
:10020000FF920F931F93CF93DF938C01EB017A0141
:100210006901DC011896ED91FC91199781E009952F
:10022000D8011496ED91FC911597A601B701CE0166
:100230000995C82F811108C0D8011896ED91FC913D
:10024000199780E0099501C0C1E08C2FDF91CF9113
:100250001F910F91FF90EF90DF90CF900895CF9373
:10026000DF93DB01BA01EC01EE81FF81A901CD0131
:100270000995811181E0DF91CF910895CF93DF93AC
:10028000009709F476C0DC011E96ED91FC911F9752
:10029000309709F470C0EC018C859D85892B49F459
:1002A00084E790E79F938F9309950F900F9083E0D9
:1002B00063C088819981009749F48FE890E79F9304
:1002C0008F9309950F900F9083E056C02A813B8150
:1002D000232B49F48CEA90E79F938F9309950F9015
:1002E0000F9083E049C02E813F81232B49F48CEC91
:1002F00090E79F938F9309950F900F9083E03CC0F8
:100300002C813D81232B49F487EE90E79F938F93B7
:1003100009950F900F9083E02FC02A853B85232BF2
:1003200049F483E091E79F938F9309950F900F9085
:1003300083E022C028853985232B49F481E291E7A7
:100340009F938F9309950F900F9083E015C0FC0148
:100350000995882359F0EE85FF858EE391E79F93F9
:100360008F9309950F900F9081E006C091E09A8BD2
:1003700003C082E001C083E0DF91CF910895009730
:1003800039F0FC012289213029F4608B80E0089546
:1003900082E0089583E00895009739F0FC012289F6
:1003A000213029F4618B80E0089582E0089583E094
:1003B0000895CF92DF92EF92FF920F931F93CF9306
:1003C000DF931F92CDB7DEB70097A9F1DC015296FB
:1003D0001C915297113089F56B017C011A96ED91B1
:1003E000FC911B9780E0099521E030E0AE014F5F62
:1003F0005F4F65E070E0C7010E942F01082FD70111
:100400001A96ED91FC911B9781E00995002369F004
:10041000D7011E96ED91FC911F9784EC91E79F9375
:100420008F9309950F900F9009C089818170F60113
:10043000808310E003C012E001C013E0812F0F9011
:10044000DF91CF911F910F91FF90EF90DF90CF90B0
:100450000895DF92EF92FF920F931F93CF93DF9354
:100460001F92CDB7DEB7009709F48AC0DC0152961F
:100470001C915297113009F085C0062F7C011A9605
:10048000ED91FC911B9780E0099521E030E0AE01F1
:100490004F5F5F4F65E070E0C7010E942F01D82ECB
:1004A000D7011A96ED91FC911B9781E00995DD200B
:1004B00069F0D7011E96ED91FC911F9784EC91E7AE
:1004C0009F938F9309950F900F905FC0D7011A9655
:1004D000ED91FC911B9780E0099520E030E040E031
:1004E00050E066E070E0C7010E94FD00D82ED70101
:1004F0001A96ED91FC911B9781E00995DD2069F03A
:10050000D7011E96ED91FC911F9787EE91E79F937F
:100510008F9309950F900F9038C06981862F837F44
:10052000602F70E0660F771F660F771F682B698357
:10053000D7011A96ED91FC911B9780E0099521E077
:1005400030E0AE014F5F5F4F61E070E0C7010E9495
:10055000FD00082FD7011A96ED91FC911B9781E0C1
:100560000995002389F0D7011E96ED91FC911F9704
:1005700083E192E79F938F9309950F900F9005C0A9
:1005800012E003C013E001C010E0812F0F90DF9153
:10059000CF911F910F91FF90EF90DF900895CF9230
:1005A000DF92EF92FF920F931F93CF93DF931F92EF
:1005B000CDB7DEB70097D1F1DC0152961C9152976E
:1005C0001130B1F56B017C011A96ED91FC911B97EE
:1005D00080E0099521E030E0AE014F5F5F4F65E0BC
:1005E00070E0C7010E942F01082FD7011A96ED91E4
:1005F000FC911B9781E00995002369F0D7011E96B5
:10060000ED91FC911F9784EC91E79F938F9309954F
:100610000F900F900EC089818C7090E09595879512
:1006200095958795F601808310E003C012E001C024
:1006300013E0812F0F90DF91CF911F910F91FF90C9
:10064000EF90DF90CF900895DF92EF92FF920F939B
:100650001F93CF93DF931F92CDB7DEB7009709F4B6
:1006600088C0DC0152961C915297113009F083C06A
:10067000062F7C011A96ED91FC911B9780E009955D
:1006800021E030E0AE014F5F5F4F65E070E0C701F1
:100690000E942F01D82ED7011A96ED91FC911B973D
:1006A00081E00995DD2069F0D7011E96ED91FC915E
:1006B0001F9784EC91E79F938F9309950F900F906C
:1006C0005DC0D7011A96ED91FC911B9780E00995CA
:1006D00020E030E040E050E066E070E0C7010E94BA
:1006E000FD00D82ED7011A96ED91FC911B9781E061
:1006F0000995DD2069F0D7011E96ED91FC911F97B9
:1007000087EE91E79F938F9309950F900F9036C0D6
:100710006981862F8F77B0E80B9FB0011124682B79
:100720006983D7011A96ED91FC911B9780E009959A
:1007300021E030E0AE014F5F5F4F61E070E0C70144
:100740000E94FD00082FD7011A96ED91FC911B978E
:1007500081E00995002389F0D7011E96ED91FC9167
:100760001F9783E192E79F938F9309950F900F90C6
:1007700005C012E003C013E001C010E0812F0F900C
:10078000DF91CF911F910F91FF90EF90DF9008952F
:100790000F931F93CF93DF93009709F4BFC0FC0121
:1007A000C289C13009F0BCC0DC01D0890D2F10E036
:1007B000F8013197E730F10508F0A4C0E85BFF4F7E
:1007C0000C9404166115F4E07F0708F4ADC01E9682
:1007D000ED91FC911F9783E08F938FEF8F937F9321
:1007E0006F9380EB92E79F938F9309950F900F90F3
:1007F0000F900F900F900F90CD2FA1C0611588E042
:10080000780708F493C01E96ED91FC911F9787E03E
:100810008F938FEF8F937F936F9386EE92E79F93E3
:100820008F9309950F900F900F900F900F900F904E
:1008300086C06115E0E17E0708F47AC01E96ED914E
:10084000FC911F978FE08F938FEF8F937F936F9320
:100850008CE193E79F938F9309950F900F900F90E2
:100860000F900F900F906BC06115F0E27F0708F4B6
:1008700061C01E96ED91FC911F978FE18F938FEFD2
:100880008F937F936F9382E593E79F938F9309955F
:100890000F900F900F900F900F900F9050C0611518
:1008A00080E4780708F448C01E96ED91FC911F97EC
:1008B0008FE38F938FEF8F937F936F9388E893E706
:1008C0009F938F9309950F900F900F900F900F901B
:1008D0000F9035C0772394F51E96ED91FC911F97EC
:1008E0008FE78F938FEF8F937F936F938DEB93E7CA
:1008F0009F938F9309950F900F900F900F900F90EB
:100900000F901DC01E96ED91FC911F9782EF93E70B
:100910009F938F9309950F900F9011C0C2E00FC065
:10092000C3E00DC0C0E00BC0C0E009C0C0E007C01C
:10093000C0E005C0C0E003C0C0E001C0C0E08C2F33
:10094000DF91CF911F910F910895AF92BF92CF92F7
:10095000DF92EF92FF920F931F93CF93DF93009755
:1009600009F456C0DC015296CC91C13009F052C056
:1009700069017A015B018C010E94C803D82F8111A3
:100980004BC0D8011A96ED91FC911B9780E0099518
:1009900020E030E040E050E063E070E0C8010E94F9
:1009A000FD00882369F0D8011E96ED91FC911F97F8
:1009B0008AE294E79F938F9309950F900F902DC033
:1009C00020E030E040E050E06B2D70E0C8010E9474
:1009D000FD00B50177279601A701C8010E942F01EC
:1009E000882369F0D8011E96ED91FC911F9782E54E
:1009F00094E79F938F9309950F900F900EC0D801A5
:100A00001A96ED91FC911B9781E00995CD2F05C0B9
:100A1000C2E003C0C3E001C0C4E08C2FDF91CF91DE
:100A20001F910F91FF90EF90DF90CF90BF90AF900C
:100A300008954F925F926F927F928F929F92AF92A2
:100A4000BF92CF92DF92EF92FF920F931F93CF93BB
:100A5000DF93CDB7DEB78C014A01422ECDB6DEB6AC
:100A6000E22EF12C8DB79EB78E199F098DBF9EBFC8
:100A7000ADB7BEB711963D015D010115110509F431
:100A800049C0F8015288F1E05F1248C09701AD01FA
:100A9000C8010E94A504882369F0D8011E96ED9133
:100AA000FC911F978EE694E79F938F9309950F9083
:100AB0000F9038C010920E2812C0282F30E0D501B8
:100AC000A20FB31F9C91F701E21BF30B3197EA0DC4
:100AD000FB1D20812C9390838F5F80930E28809143
:100AE0000E28942D9695891740F3A701B3018FE046
:100AF00098E20E94321780910F2890911028A091BF
:100B00001128B0911228F40180839183A283B383CA
:100B1000512C08C06894552451F804C00F2EF3E0FE
:100B20005F2EF02D852DCDBEDEBEDF91CF911F91C2
:100B30000F91FF90EF90DF90CF90BF90AF909F907C
:100B40008F907F906F905F904F900895EF92FF92FB
:100B50000F931F93CF93DF93009709F48CC0DC01B0
:100B60005296CC91C13009F088C07B018C01D0E055
:100B70001CC0ED2FF0E0EE0FFF1FEE0DFF1D60819A
:100B80007181C8010E94C803882371F0D8011E96A4
:100B9000ED91FC911F978CE894E79F938F930995B3
:100BA0000F900F90C4E06AC0DF5FD23010F3D8011D
:100BB0001A96ED91FC911B9780E0099520E030E0BA
:100BC00040E050E066E070E0C8010E94FD00D82FD0
:100BD000D8011A96ED91FC911B9781E00995DD23D0
:100BE00069F0D8011E96ED91FC911F9787EE91E771
:100BF0009F938F9309950F900F9040C0D8011A963C
:100C0000ED91FC911B9780E0099520E030E040E0F9
:100C100050E068ED70E0C8010E94FD00F7016181BD
:100C200021E030E0A70170E0C8010E94FD00A701AB
:100C30004E5F5F4FD70113966C9121E030E070E07A
:100C4000C8010E94FD00882369F0D8011E96ED912D
:100C5000FC911F9788EB94E79F938F9309950F90D2
:100C60000F900CC0D8011A96ED91FC911B9781E072
:100C70000995C0E003C0C2E001C0C3E08C2FDF9142
:100C8000CF911F910F91FF90EF9008956F927F92F7
:100C90008F929F92AF92BF92CF92DF92EF921F936B
:100CA000CF93DF93009709F473C0DC0152961C9137
:100CB000113009F06FC04A015B013C01C0E0D0E097
:100CC00059C0CE2CD12CCC9DC001CD9D900DDC9D6A
:100CD000900D1124A816B90608F04BC0B501680D97
:100CE000791D80E090E00E940E114B015C016E2D99
:100CF00070E080E090E00E940E119B01AC01C50104
:100D0000B4010E946D100E9456100E94DF10C61799
:100D1000D70708F041C0CE010197C89E5001C99E77
:100D2000B00CD89EB00C1124CA0CDB1CB1E0CB1A5D
:100D3000D108D3011E96ED91FC911F978DED94E79C
:100D40009F938F930995D3011E96ED91FC911F9768
:100D5000DF92CF92BF92AF92DF93CF9380E295E77D
:100D60009F938F930995ADB7BEB71A96ADBFBEBF1F
:100D700014C021960E94AD0BF301E1886E2D70E046
:100D80000E94F015C617D70708F49BCF10E005C0E6
:100D900012E003C013E001C010E0812FDF91CF917A
:100DA0001F91EF90DF90CF90BF90AF909F908F906A
:100DB0007F906F900895EF92FF920F931F93CF93C0
:100DC000DF93009709F408C1DC015296CC91C13041
:100DD00009F004C17A018B019C01FC01D0898D2F9F
:100DE00090E0FC013197E730F10508F0D9C0E15BF4
:100DF000FF4F0C940416D90151966C9170E080E07D
:100E000094E00E94F0156017710708F0D6C0D90170
:100E10001E96ED91FC911F977F936F931F930F93F5
:100E200082E595E79F938F9309950F900F900F9010
:100E30000F900F900F90CD2FD2C0F901618970E013
:100E400080E098E00E94F0156017710708F0B5C0C7
:100E50000684F785E02D7F936F931F930F9389E8A6
:100E600095E79F938F9309950F900F900F900F9098
:100E70000F900F90B4C0D90151966C9170E080E052
:100E800090E10E94F0156017710708F096C0D90133
:100E90001E96ED91FC911F977F936F931F930F9375
:100EA00080EC95E79F938F9309950F900F900F908B
:100EB0000F900F900F9093C0F901618970E080E06E
:100EC00090E20E94F0156017710708F076C0068462
:100ED000F785E02D7F936F931F930F9387EF95E72F
:100EE0009F938F9309950F900F900F900F900F90F5
:100EF0000F9075C0D90151966C9170E080E090E43C
:100F00000E94F0156017710708F057C0D9011E96AE
:100F1000ED91FC911F977F936F931F930F938EE238
:100F200096E79F938F9309950F900F900F900F90D6
:100F30000F900F9054C0F901618970E080E090E853
:100F40000E94F01560177107C0F50684F785E02D43
:100F50007F936F931F930F9384E696E79F938F93EE
:100F600009950F900F900F900F900F900F9037C032
:100F70001616170610F5D9011E96ED91FC911F97D4
:100F80001F921F921F936F938AE996E79F938F9307
:100F900009950F900F900F900F900F900F901FC01A
:100FA000D9011E96ED91FC911F9780ED96E79F93D6
:100FB0008F9309950F900F9012C0F9012189B80104
:100FC00061507109269FC001279F900D1124D70100
:100FD0008D939C93C0E003C0C2E001C0C3E08C2F9E
:100FE000DF91CF911F910F91FF90EF9008950F9394
:100FF0001F93CF93009709F44FC0DC015296CC9118
:101000005297C13009F04AC05096EC910E2F10E073
:10101000F8013197E730F10598F5EA5AFF4F0C9443
:10102000041680E094E0FB0180839183C0E037C028
:1010300080E098E0DB018D939C93C0E030C080E0BD
:1010400090E1FB0180839183C0E029C080E090E2C1
:10105000DB018D939C93C0E022C080E090E4FB0113
:1010600080839183C0E01BC080E090E8DB018D931A
:101070009C93C0E014C0FB0110821182C0E00FC03D
:10108000FC010684F785E02D85E097E79F938F9319
:1010900009950F900F9003C0C2E001C0C3E08C2FF0
:1010A000CF911F910F9108958F929F92AF92BF920F
:1010B000CF92DF92EF92FF920F931F93CF93DF9324
:1010C00000D01F92CDB7DEB7009709F494C0DC01C1
:1010D00052960C91013009F090C06B017C01BE0169
:1010E0006F5F7F4F0E94CF02BE016E5F7F4FC701CF
:1010F0000E94F7071981113041F008F483C01230C3
:1011000089F1133009F45BC068C0B60180E090E05B
:101110000E940E114B015C016A817B8180E090E0AE
:101120000E940E1120E030E040E45FE30E94E211F3
:101130009B01AC01C501B4010E94DD1188230CF4B0
:101140005EC0D7011E96ED91FC911F97DF92CF9262
:1011500082E297E79F938F9309950F900F900F90DE
:101160000F9050C0B60180E090E00E940E114B013C
:101170005C016A817B8180E090E00E940E1120E09A
:1011800030E040E05FE30E94E2119B01AC01C50149
:10119000B4010E94DD118823A4F1D7011E96ED91C0
:1011A000FC911F97DF92CF928AE797E79F938F93E7
:1011B00009950F900F900F900F90102F23C0D7011B
:1011C0001E96ED91FC911F978CEC97E79F938F9360
:1011D00009950F900F90102F15C0D7011E96ED9115
:1011E000FC911F978CE198E79F938F9309950F903F
:1011F0000F90102F07C012E005C013E003C010E0ED
:1012000001C010E0812F2396CDBFDEBFDF91CF91CB
:101210001F910F91FF90EF90DF90CF90BF90AF9014
:101220009F908F9008959F92AF92BF92CF92DF923E
:10123000EF92FF920F931F93CF93DF93009709F4E0
:101240008AC0DC015296CC91C13009F086C0790188
:101250006A015B018C01A9010E94460681117FC0D1
:10126000B501C8010E94C80381117BC0B501C80146
:101270000E945408D82F811176C0D8011A96ED919A
:10128000FC911B9780E0099520E030E040E050E0C1
:1012900066E070E0C8010E94FD00982ED8011A9601
:1012A000ED91FC911B9781E00995992069F0D80197
:1012B0001E96ED91FC911F9787EE91E79F938F9378
:1012C00009950F900F9050C0D8011A96ED91FC919E
:1012D0001B9780E0099520E030E040E050E062E0BC
:1012E00070E0C8010E94FD00882369F0D8011E96B5
:1012F000ED91FC911F9780E598E79F938F93099557
:101300000F900F9031C020E030E040E050E06B2DB6
:1013100070E0C8010E94FD00B50177279701A60182
:10132000C8010E94FD00882369F0D8011E96ED9146
:10133000FC911F9786E798E79F938F9309950F90ED
:101340000F9012C0D8011A96ED91FC911B9781E085
:101350000995CD2F09C0C2E007C0C3E005C0C6E0B3
:1013600003C0C4E001C0C5E08C2FDF91CF911F9175
:101370000F91FF90EF90DF90CF90BF90AF909F9034
:1013800008959F92AF92BF92CF92DF92EF92FF9219
:101390000F931F93CF93DF9300D0CDB7DEB78C01AF
:1013A0006B01ADB6BEB6DC0151964C9150E0EDB785
:1013B000FEB7E41BF50BEDBFFEBF8DB79EB70196E0
:1013C0007C016FEF70E00E943B170115110509F4D5
:1013D000A7C0D80152969C90B1E09B12A5C0AE0167
:1013E0004F5F5F4FB601C8010E94DB068111A1C0AB
:1013F00069817A81C8010E94540881119EC0D80178
:101400001A96ED91FC911B97099520E030E040E0A1
:1014100050E066E070E0C8010E94FD00D82ED801BF
:101420001A96ED91FC911B9781E00995DD2069F0FA
:10143000D8011E96ED91FC911F9787EE91E79F933F
:101440008F9309950F900F907CC0D8011A96ED915B
:10145000FC911B9780E00995F80180898730E9F4B9
:1014600020E030E040E050E062E470E0C8010E941B
:10147000FD006A8120E030E040E050E070E0C8010B
:101480000E94FD0069817A81772720E030E040E00A
:1014900050E0C8010E94FD002BC020E030E040E099
:1014A00050E062E070E0C8010E94FD00882369F00E
:1014B000D8011E96ED91FC911F9780E598E79F93C8
:1014C0008F9309950F900F903CC06A8120E030E027
:1014D00040E050E070E0C8010E94FD00F801218961
:1014E00030E069817A817727A701C8010E94FD0059
:1014F000882369F0D8011E96ED91FC911F978BED22
:1015000098E79F938F9309950F900F901AC0D80179
:101510001A96ED91FC911B9781E00995912C11C0D1
:101520006894992491F80DC00F2EF3E09F2EF02DB2
:1015300008C06894992492F804C00F2EF5E09F2EFD
:10154000F02D892DADBEBEBE0F900F90DF91CF91D3
:101550001F910F91FF90EF90DF90CF90BF90AF90D1
:101560009F900895CF93DF93009709F450C0EC014A
:1015700083E4FE0111928A95E9F74AE050E069EFB1
:1015800078E7CE010E94421745E050E061E079E73C
:10159000CE0183960E94421749E150E065E079E769
:1015A000CE010A960E94421780E090E0A0EBB0E4E2
:1015B0008FA798ABA9ABBAAB80E090E0A0E2B0E413
:1015C0008BA79CA7ADA7BEA780E090E0A0E2B1E406
:1015D0008BAB9CABADABBEAB80E090E0AAEFB2E4CE
:1015E0008BAF9CAFADAFBEAF80E090E0A0E2B2ECBD
:1015F0008FAB98AFA9AFBAAFEF9680E090E4A6E9C1
:10160000B4E488839983AA83BB8380E001C082E02D
:10161000DF91CF910895CF93DF93C82FD62FEEE1BE
:10162000F8E283E1DF011D928A95E9F786ED9CE0FF
:101630008083918388ED9CE0828393838AED9CE094
:10164000868397838EED9CE08483958384EE9CE073
:101650008287938782EE9CE0808791878BEE9CE067
:101660008687978788EE9CE084879587CF010E94C4
:101670003E01882351F08AE199E79F938F930E945E
:10168000EB0C0F900F9081E051C06C2F8EE198E22F
:101690000E94BF01882351F086E399E79F938F93BF
:1016A0000E94EB0C0F900F9081E040C06D2F8EE1F7
:1016B00098E20E94CC01882351F08AE599E79F9334
:1016C0008F930E94EB0C0F900F9081E02FC061E090
:1016D0008EE198E20E942902882351F08BE799E776
:1016E0009F938F930E94EB0C0F900F9081E01EC090
:1016F0006AE070E080E090E00E94E80C60E08EE13B
:1017000098E20E942403882351F087EA99E79F9387
:101710008F930E94EB0C0F900F9081E007C06AE05E
:1017200070E080E090E00E94E80C80E0DF91CF91D3
:1017300008959A01AB01BC018EE198E20E94A504D4
:10174000811181E00895242FAB01BC018EE198E264
:101750000E941905811181E008956AE178E28EE125
:1017600098E20E94F707882369F083ED99E79F9339
:101770008F930E94EB0C0F900F9061E070E080E07F
:1017800090E0089560911A2870911B2880911C2880
:1017900090911D280895CF92DF92EF92FF92CF9300
:1017A000DF931F92CDB7DEB7BE016F5F7F4F8EE133
:1017B00098E20E94D9010EC0BE016F5F7F4F8EE19B
:1017C00098E20E94D901811110C08FEFC81AD80A7F
:1017D000E80AF80A8981813041F480EAC81686E86F
:1017E000D80681E0E806F10438F380E00F90DF913D
:1017F000CF91FF90EF90DF90CF9008959A01AB01C9
:10180000BC018EE198E20E941309811106C00E947A
:10181000CB0B882319F081E0089581E00895BC0185
:101820008EE198E20E94C109811106C00E94CB0B93
:10183000882319F081E0089581E00895CF92DF9226
:10184000FF920F931F93CF93DF93CDB7DEB725970A
:10185000CDBFDEBF8C016B018FEF8D8309831A83AF
:101860006B837C8380912E288730A9F41BC0B8013C
:101870008EE198E20E945408F82E811124C041E0C4
:1018800050E0BE016B5F7F4FC8010E94FE0B8111CB
:101890001FC00F5F1F4FC60101960817190738F3C5
:1018A000F12C16C0BE016F5F7F4F8EE198E20E945F
:1018B000A60581110BC00E94CB0BF82E882341F0A6
:1018C000FF24F39405C0FF24F39402C0FF24F39493
:1018D0008F2D2596CDBFDEBFDF91CF911F910F9148
:1018E000FF90DF90CF900895BC018EE198E20E94B6
:1018F000CF02811181E008958F929F92AF92BF92A3
:10190000CF92DF92EF92FF920F931F93CF93DF93CB
:101910006C017B018A01C0E0D0E017C041E050E0DB
:1019200069E178E2CE010E94990B811131C080916A
:1019300019288F3F49F48091172890911828019613
:10194000809317289093182821964E01A12CB12C32
:101950000E94AD0B86169706A806B906F8F20E94FB
:10196000AD0BF60160837183809117289091182840
:10197000F701808391830E94AD0B2091172830914D
:101980001828621B730BF8016083718380E001C02B
:1019900081E0DF91CF911F910F91FF90EF90DF9049
:1019A000CF90BF90AF909F908F90089580E0089562
:1019B00080E008950E94B70E80E008950E94DC0E3A
:1019C00080E0089580E008950E94FD0E80E0089573
:1019D0000E94A60E08950F931F93CF93DF93CDB768
:1019E000DEB7C150D140CDBFDEBF9E01285F3E4F64
:1019F000F901419151919F018E010F5F1F4F80E0CE
:101A000091E0F801BC01119261507040E1F760E093
:101A100071E0C8010E94AE17F80101900020E9F7BB
:101A20003197E01BF10BCF5FDE4FE883C150D1400F
:101A3000CF5FDE4F8881C150D1401F928F931F939B
:101A40000F930E9498170F900F900F900F90CF5FF9
:101A5000DE4FCDBFDEBFDF91CF911F910F91089573
:101A60000E94850F08950E94300D60E182E00E947F
:101A70000B0B90E080939228909393288FE498E248
:101A80000E94B20ACFE4D8E2DF93CF9389EF99E7BF
:101A90009F938F930E94EB0C89E598E29F938F931D
:101AA0008AE09AE79F938F930E94EB0C82E798E27B
:101AB0009F938F938DE19AE79F938F930E94EB0CF6
:101AC0008FA598A929A93AA93F932F939F938F9304
:101AD0008EE29AE79F938F930E94EB0C8BA59CA5B7
:101AE0002DA53EA53F932F939F938F9388E49AE76C
:101AF0009F938F930E94EB0C8BA99CA92DA93EA9C3
:101B00003F932F939F938F9382E69AE79F938F93B0
:101B10000E94EB0C8BAD9CAD2DAD3EAD3F932F9352
:101B20009F938F938DE79AE79F938F930E94EB0C7F
:101B30008FA998AD29AD3AAD4DB75EB74C5D5F4FFB
:101B40004DBF5EBF3F932F939F938F9387E99AE793
:101B50009F938F930E94EB0CC0908E28D0908F287B
:101B6000E0909028F090912820E030E048EC52E49A
:101B7000C701B6010E946D100E94DF1054E6659FF8
:101B8000B0011124072E000C880B990B0E94101134
:101B90009B01AC01C701B6010E94E90F0E94DF1052
:101BA000C62F20E030E04AE754E4C701B6010E94A6
:101BB0006D101F92CF939F938F937F936F9381EBC1
:101BC0009AE79F938F930E94EB0C10923228109209
:101BD000332889E18093972886E998E20E94740C63
:101BE00090E08093922890939328809196281F925A
:101BF0008F938FEC9AE79F938F930E94EB0C409109
:101C0000972850E066E378E280913228909133285B
:101C10000E94990B90E080939228909393288DB71F
:101C20009EB742968DBF9EBFC0E0D0E015C0FE01BA
:101C3000EA5CF74D80811F928F93DF93CF9389EEFB
:101C40009AE79F938F930E94EB0C21960F900F9031
:101C50000F900F900F900F908091972890E0C817E9
:101C6000D9072CF344E050E06AE978E28AE090E09A
:101C70000E94A30B90E080939228909393288091E8
:101C80009D288F9380919C288F9380919B288F9380
:101C900080919A288F9389E09BE79F938F930E946E
:101CA000EB0C80E490E00E940F0C90E0809392286F
:101CB0009093932864E076E08CEF95E00E941E0CF0
:101CC00090E080939228909393284AE050E06AE550
:101CD0007BE78BED97E00E94FE0B90E080939228CB
:101CE0009093932848E958E264E978E284E398E223
:101CF0000E947C0C90E0809392289093932880918E
:101D000099288F93809198288F93809195288F930D
:101D1000809194288F93809135288F9380913428D7
:101D20008F9389E19BE79F938F930E94EB0C8DB774
:101D30009EB70E968DBF9EBF8EB184608EB968EE41
:101D400073E080E090E00E94E80CF6CF0AC0E7E87C
:101D5000F3E13197F1F700C000006150710981098A
:101D60009109623071058105910588F70895EF9218
:101D7000FF920F931F93CF93DF931F92CDB7DEB7E0
:101D800089837B018A0161E0CE0101960E94AC0F3C
:101D90000130110521F461E0C7010E94BC0F602FE2
:101DA000C7010E94BC0F80E00F90DF91CF911F917F
:101DB0000F91FF90EF900895EF92FF920F931F9372
:101DC000CF93DF931F92CDB7DEB789837B018A0162
:101DD00061E0CE0101960E94AC0F0115110521F0C2
:101DE000602FC7010E94AC0F80E00F90DF91CF9170
:101DF0001F910F91FF90EF900895882321F089B1F2
:101E0000886089B903C089B1877F89B980E0089566
:101E100080E0089540E068ED81E690E00E94A00F28
:101E200080E0089580E0089580E008C0E82FF0E0A9
:101E3000E05FFB4F9081986090838F5F8830B0F3B4
:101E400080E008C0E82FF0E0E05DFB4F90819860F3
:101E500090838F5F8830B0F380E008C0E82FF0E017
:101E6000E05BFB4F9081986090838F5F8830B0F388
:101E700080E008C0E82FF0E0E059FB4F90819860C7
:101E800090838F5F8830B0F380E008C0E82FF0E0E7
:101E9000E057FB4F9081986090838F5F8830B0F35C
:101EA00080E008C0E82FF0E0E055FB4F908198609B
:101EB00090838F5F8830B0F3089584B38D7F84BBA7
:101EC000E1EBF4E08081877F808385B38E7F85BBE3
:101ED00084B3816084BB0E94CD0F089580B18F7D53
:101EE00080B9E5E1F4E08081877F808381B18F7ED6
:101EF00081B980B1806180B981B18F7B81B980B1B6
:101F0000806480B90E94A60F08950E94140F89B1C1
:101F1000886089B988B1886088B98DB184608DB9CD
:101F20008CB184608CB90E940A0F0E945D0F0E94E0
:101F30006E0F0E94120F0E94A40F0E94080F0895B6
:101F4000FC0164BF4083089580E0089585E280939A
:101F5000C008109231280895FC0109C09081909327
:101F6000C4089091C3089923E4F73196682F8FEF46
:101F7000860F6111F3CF0895FC010AC01092C408C6
:101F80009091C3089923E4F79091C4089193682F26
:101F90008FEF860F6111F2CF0895E0E4F8E086EB51
:101FA00092E08087918780EC868380E098E280933E
:101FB000A0289093A12880E008959091440895FF6F
:101FC000FCCF8093420808950E94DD0F80E090E0EE
:101FD00008955058BB27AA270E9401100C948B111A
:101FE0000E947D1138F00E94841120F039F49F3F47
:101FF00019F426F40C947A110EF4E095E7FB0C9496
:102000004B11E92F0E949C1158F3BA17620773070E
:102010008407950720F079F4A6F50C94D6110EF4F8
:10202000E0950B2EBA2FA02D0B01B90190010C01E8
:10203000CA01A0011124FF27591B99F0593F50F400
:10204000503E68F11A16F040A22F232F342F442758
:10205000585FF3CF469537952795A795F040539550
:10206000C9F77EF41F16BA0B620B730B840BBAF020
:102070009150A1F0FF0FBB1F661F771F881FC2F78B
:102080000EC0BA0F621F731F841F48F4879577959F
:102090006795B795F7959E3F08F0B0CF9395880F59
:1020A00008F09927EE0F9795879508950E94BE1125
:1020B00090F09F3748F4911116F40C94D71160E01A
:1020C00070E080E89FE3089526F01B16611D711DE6
:1020D000811D0C9451110C946C110E9481100C9470
:1020E0008B110E94841158F00E947D1140F029F458
:1020F0005F3F29F00C944B1151110C94D7110C94A3
:102100007A110E949C1168F39923B1F3552391F33E
:10211000951B550BBB27AA2762177307840738F056
:102120009F5F5F4F220F331F441FAA1FA9F335D0B3
:102130000E2E3AF0E0E832D091505040E695001C67
:10214000CAF72BD0FE2F29D0660F771F881FBB1F21
:10215000261737074807AB07B0E809F0BB0B802DFF
:10216000BF01FF2793585F4F3AF09E3F510578F02B
:102170000C944B110C94D7115F3FE4F3983ED4F3C9
:10218000869577956795B795F7959F5FC9F7880FFF
:10219000911D9695879597F90895E1E0660F771F51
:1021A000881FBB1F621773078407BA0720F0621BE2
:1021B000730B840BBA0BEE1F88F7E09508950E940D
:1021C000A41188F09F5798F0B92F9927B751B0F014
:1021D000E1F0660F771F881F991F1AF0BA95C9F7AB
:1021E00014C0B13091F00E94D611B1E008950C9462
:1021F000D611672F782F8827B85F39F0B93FCCF315
:10220000869577956795B395D9F73EF49095809527
:10221000709561957F4F8F4F9F4F0895E89409C047
:1022200097FB3EF490958095709561957F4F8F4F09
:102230009F4F9923A9F0F92F96E9BB279395F6951F
:10224000879577956795B795F111F8CFFAF4BB0F9D
:1022500011F460FF1BC06F5F7F4F8F4F9F4F16C001
:10226000882311F096E911C0772321F09EE8872F8B
:10227000762F05C0662371F096E8862F70E060E047
:102280002AF09A95660F771F881FDAF7880F9695C0
:10229000879597F9089597F99F6780E870E060E067
:1022A0000895882371F4772321F09850872B762F97
:1022B00007C0662311F499270DC09051862B70E05A
:1022C00060E02AF09A95660F771F881FDAF7880F6B
:1022D0009695879597F908959F3F31F0915020F496
:1022E000879577956795B795880F911D96958795F2
:1022F00097F908959FEF80EC089500240A9416162C
:10230000170618060906089500240A9412161306E3
:10231000140605060895092E0394000C11F4882371
:1023200052F0BB0F40F4BF2B11F460FF04C06F5F8D
:102330007F4F8F4F9F4F089557FD9058440F551F63
:1023400059F05F3F71F04795880F97FB991F61F037
:102350009F3F79F087950895121613061406551FAE
:10236000F2CF4695F1DF08C0161617061806991F1A
:10237000F1CF869571056105089408950E94A41116
:10238000A0F0BEE7B91788F4BB279F3860F4161693
:10239000B11D672F782F8827985FF7CF869577959F
:1023A0006795B11D93959639C8F30895E894BB27B6
:1023B00066277727CB0197F908950E944F1208F4FA
:1023C0008FEF08950E94F5110C948B110E947D11DE
:1023D00038F00E94841120F0952311F00C944B11D9
:1023E0000C947A1111240C94D7110E949C1170F353
:1023F000959FC1F3950F50E0551F629FF001729FAA
:10240000BB27F00DB11D639FAA27F00DB11DAA1FB8
:10241000649F6627B00DA11D661F829F2227B00D05
:10242000A11D621F739FB00DA11D621F839FA00D90
:10243000611D221F749F3327A00D611D231F849FE0
:10244000600D211D822F762F6A2F11249F57504037
:102450009AF0F1F088234AF0EE0FFF1FBB1F661FB2
:10246000771F881F91505040A9F79E3F510580F07B
:102470000C944B110C94D7115F3FE4F3983ED4F3C6
:10248000869577956795B795F795E7959F5FC1F71F
:10249000FE2B880F911D9695879597F90895990FB2
:1024A0000008550FAA0BE0E8FEEF16161706E8071E
:1024B000F907C0F012161306E407F50798F0621B3F
:1024C000730B840B950B39F40A2661F0232B242B14
:1024D000252B21F408950A2609F4A140A6958FEF33
:1024E000811D811D0895A0E1B0E0E9E7F2E10C94BF
:1024F0000A167C011B016A01FC0116821782838186
:1025000081FF44C39E012F5F3F4F3901F701938143
:10251000F10193FD859193FF81911F01882309F4B7
:1025200031C3853239F493FD859193FF81911F0169
:10253000853239F4B70190E00E945C1756016501BD
:10254000E5CF10E0512C912CFFE1F915D8F08B323A
:1025500079F038F4803279F08332A1F4F92DF0610A
:102560002EC08D3261F0803369F4292D21602DC099
:10257000392D3260932E892D8460982E2AC0E92D42
:10258000E86015C097FC2DC020ED280F2A3088F494
:1025900096FE06C03AE0139F200D1124122F19C099
:1025A0008AE0589E200D1124522EE92DE0629E2EC5
:1025B00010C08E3231F496FCE5C2F92DF0649F2EE6
:1025C00008C08C3621F4292D2068922E02C088364E
:1025D00041F4F10193FD859193FF81911F018111D8
:1025E000B3CF9BEB980F933020F4992D9061805ED0
:1025F00007C09BE9980F933008F066C1992D9F7E24
:1026000096FF16E09F73992E853619F49064992EE3
:1026100008C0863621F4392F3068932E02C011117C
:10262000115097FE07C01C3350F444244394410ECC
:1026300027E00BC0183038F027E017E005C027E08E
:102640009CE3492E02C0212F412C560184E0A80EA4
:10265000B11CF6016081718182819381042DA301F7
:102660000E944F166C01F981FC87F0FF02C0F3FF56
:1026700006C091FC06C092FE06C000E205C00DE255
:1026800003C00BE201C000E08C858C7019F00111D1
:102690005AC29BC297FE10C04C0CFC85F4FF04C0CC
:1026A0008A81813309F44A94141474F528E02415BE
:1026B00078F588E0482E2CC096FC2AC0812F90E047
:1026C0008C159D059CF03CEFC3163FEFD30674F0CC
:1026D000892D8068982E0AC0E2E0F0E0EC0FFD1F23
:1026E000E10FF11D8081803319F411501111F4CFE5
:1026F00097FE0EC044244394410E812F90E0C816EB
:10270000D9062CF41C1904C04424439401C010E0E1
:1027100097FE06C01C141D0434F4C601019605C0C2
:1027200085E090E002C081E090E001110196112364
:1027300031F0212F30E02F5F3F4F820F931F252D67
:1027400030E08217930714F4581A01C0512C892DD8
:10275000897049F4552039F0B70180E290E00E9479
:102760005C175A94F7CF002329F0B701802F90E02F
:102770000E945C1793FC09C0552039F0B70180E333
:1027800090E00E945C175A94F7CF97FE4CC0460128
:10279000D7FE02C0812C912CC60188199909F3013A
:1027A000E80FF91FED87FE879601241931092F875D
:1027B000388B012F10E01195019511093FEF831619
:1027C000930629F4B7018EE290E00E945C17C814CA
:1027D000D9044CF08F8598898815990524F4ED85E6
:1027E000FE85818101C080E3F1E08F1A91082D857B
:1027F0003E852F5F3F4F2D873E87801691062CF038
:10280000B70190E00E945C17D9CFC814D90441F4F5
:102810009A81963320F4953319F43C8534FF81E393
:10282000B70190E04EC08A81813319F09C859F7E6C
:102830009C87B70190E00E945C17111105C094FCC1
:1028400018C085E690E017C0B7018EE290E00E94C4
:102850005C171E5F82E001E0080FF301E80FF11D35
:102860008081B70190E00E945C17802F0113F3CFA5
:10287000E6CF85E490E0B7010E945C17D7FC06C064
:10288000C114D10441F4EC85E4FF05C0D194C19496
:10289000D1088DE201C08BE2B70190E00E945C1785
:1028A00080E32AE0C216D1042CF08F5FFAE0CF1A41
:1028B000D108F7CFB70190E00E945C17B701C601BD
:1028C000C0960E945C1754C1833631F0833779F08B
:1028D000833509F056C020C0560132E0A30EB11C6A
:1028E000F6018081898301E010E0630112C0560186
:1028F000F2E0AF0EB11CF601C080D18096FE03C09D
:10290000612F70E002C06FEF7FEFC6010E94511788
:102910008C01F92DFF7714C0560122E0A20EB11CE4
:10292000F601C080D18096FE03C0612F70E002C026
:102930006FEF7FEFC6010E9427178C01F92DF06819
:102940009F2EF3FD1AC0852D90E008171907A8F4F3
:10295000B70180E290E00E945C175A94F4CFF60130
:1029600097FC859197FE81916F01B70190E00E94DD
:102970005C1751105A94015011090115110579F78E
:10298000F7C0843611F0893661F5560197FE09C00B
:1029900024E0A20EB11CF6016081718182819381D5
:1029A0000AC0F2E0AF0EB11CF60160817181072E02
:1029B000000C880B990BF92DFF769F2E97FF09C00D
:1029C00090958095709561957F4F8F4F9F4FF068E0
:1029D0009F2E2AE030E0A3010E94DA17C82EC61805
:1029E0003FC0092D853721F40F7E2AE030E01DC05D
:1029F000097F8F3691F018F4883559F0C3C08037BD
:102A000019F0883711F0BEC0006104FF09C00460EE
:102A100007C094FE08C0066006C028E030E005C08C
:102A200020E130E002C020E132E0560107FF09C09A
:102A300084E0A80EB11CF6016081718182819381CE
:102A400008C0F2E0AF0EB11CF6016081718180E038
:102A500090E0A3010E94DA17C82EC6180F77902EB7
:102A600096FE0BC0092D0E7FC11650F494FE0AC0CD
:102A700092FC08C0092D0E7E05C0DC2C092D03C078
:102A8000DC2C01C0D12E04FF0DC0FE01EC0DF11DA8
:102A90008081803311F4097E09C002FF06C0D394FF
:102AA000D39404C0802F867809F0D39403FD11C01D
:102AB00000FF06C01C2DD51480F4150D1D190DC086
:102AC000D51458F4B70180E290E00E945C17D394CB
:102AD000F7CFD51410F45D1801C0512C04FF10C0BD
:102AE000B70180E390E00E945C1702FF17C001FD70
:102AF00003C088E790E002C088E590E0B7010CC011
:102B0000802F867859F001FF02C08BE201C080E27D
:102B100007FD8DE2B70190E00E945C17C11638F402
:102B2000B70180E390E00E945C171150F7CFCA9480
:102B3000F301EC0DF11D8081B70190E00E945C175C
:102B4000C110F5CF15C0F4E0F51560F584E0581A12
:102B500093FE1FC0011127C02C8523FF2AC00AEB5A
:102B600010E0392D3071932EF8018491811124C029
:102B7000552009F4E4CCB70180E290E00E945C1794
:102B80005A94F6CFF7018681978126C08FEF9FEF89
:102B900023C0B70180E290E00E945C175A94511064
:102BA000F8CFD8CF512CB701802F90E00E945C174E
:102BB000D3CF0EEB10E0D5CF91108052B70190E04B
:102BC0000E945C170F5F1F4FCFCF23E0251510F435
:102BD00083E0BDCF512CC0CF6096E2E10C94231668
:102BE00097FB072E16F4009407D077FD09D00E94BA
:102BF0003B1607FC05D03EF4909581959F4F0895B4
:102C0000709561957F4F0895EE0FFF1F0590F49129
:102C1000E02D09942F923F924F925F926F927F9294
:102C20008F929F92AF92BF92CF92DF92EF92FF92DC
:102C30000F931F93CF93DF93CDB7DEB7CA1BDB0B88
:102C4000CDBFDEBF09942A88398848885F846E84A6
:102C50007D848C849B84AA84B984C884DF80EE80C0
:102C6000FD800C811B81AA81B981CE0FD11DCDBF02
:102C7000DEBFED010895AA1BBB1B51E107C0AA1FCF
:102C8000BB1FA617B70710F0A61BB70B881F991F0D
:102C90005A95A9F780959095BC01CD0108952830EB
:102CA00008F027E03327DA01990F311D87FD916085
:102CB00000966105710539F432602E5F3D9330E373
:102CC0002A95E1F708959F3F30F08038710561053E
:102CD00009F03C5F3C5F3D93913008F08068911DA6
:102CE000DF93CF931F930F93FF92EF92192F987F4B
:102CF0009695E92F96959695E90FFF27E45EFE4F8E
:102D000099273327EE24FF24A701E70105900894B3
:102D1000079428F4360FE71EF81E491F511D660F51
:102D2000771F881F991F0694A1F70590079428F430
:102D3000E70EF81E491F561FC11D770F881F991FE8
:102D4000661F0694A1F70590079428F4F80E491F12
:102D5000561FC71FD11D880F991F661F771F069426
:102D6000A1F70590079420F4490F561FC71FD81FDD
:102D7000990F661F771F881F0694A9F784911095F5
:102D8000177041F0D695C79557954795F794E794F6
:102D90001A95C1F7E2ECF0E0689415901591359121
:102DA0006591959105907FE27395E118F10A430BC7
:102DB000560BC90BD009C0F7E10CF11E431F561F7B
:102DC000C91FD01D7EF4703311F48A95E6CFE894C4
:102DD000015030F0080F0AF40027021708F4202FE2
:102DE0002395022F7A3328F079E37D932A95E9F72A
:102DF00010C07D932A9589F6069497956795379527
:102E000017951794E118F10A430B560BC90BD0091B
:102E100098F023957E9173957A3308F070E37C9354
:102E20002013B8F77E9170617D9330F0839571E344
:102E30007D9370E32A95E1F71124EF90FF900F91B5
:102E40001F91CF91DF91992787FD90950895FC01FF
:102E50000590615070400110D8F7809590958E0FC5
:102E60009F1F0895FB01DC0102C001900D924150AB
:102E70005040D8F70895DC0101C06D934150504097
:102E8000E0F70895FB01DC014150504048F001900B
:102E90000D920020C9F701C01D9241505040E0F74B
:102EA0000895FC016150704001900110D8F78095A1
:102EB00090958E0F9F1F08950F931F93CF93DF93CD
:102EC000FB01238121FD03C08FEF9FEF2CC022FF68
:102ED00016C046815781248135814217530744F437
:102EE000A081B1819D012F5F3F4F208331838C935F
:102EF000268137812F5F3F4F2683378314C08B0194
:102F0000EC01FB010084F185E02D0995892BE1F6A8
:102F1000D80116968D919C911797019616968D93D0
:102F20009C931797CE01DF91CF911F910F91089538
:102F3000A0E0B0E0EEE9F7E10C941A16AE014B5FA9
:102F40005F4FFA0161917191AF018091A02890913A
:102F5000A1280E947312E2E00C943316AEE0B0E0B8
:102F6000E4EBF7E10C9418168C01FA0186E08C83EF
:102F700009831A8377FF02C060E070E8CB010197F4
:102F80008D839E83A901BF01CE0101960E94731219
:102F90004D815E8157FD0AC02F8138854217530746
:102FA0000CF49A01F801E20FF31F10822E96E4E070
:102FB0000C943116FA01AA27283051F1203181F101
:102FC000E8946F936E7F6E5F7F4F8F4F9F4FAF4F31
:102FD000B1E03ED0B4E03CD0670F781F891F9A1F44
:102FE000A11D680F791F8A1F911DA11D6A0F711DF8
:102FF000811D911DA11D20D009F468943F912AE004
:10300000269F11243019305D3193DEF6CF010895EB
:10301000462F4770405D4193B3E00FD0C9F7F6CF1C
:10302000462F4F70405D4A3318F0495D31FD4052E4
:10303000419302D0A9F7EACFB4E0A695979587957A
:1030400077956795BA95C9F7009761057105089559
:103050009B01AC010A2E0694579547953795279505
:10306000BA95C9F7620F731F841F951FA01D08959D
:04307000F894FFCF02
:1030740032354C4378783A2064656C61795F6D73BE
:10308400206973206E756C6C0D0A0032354C4378E0
:10309400783A20696E697469616C697A652069732C
:1030A400206E756C6C0D0A0032354C4378783A20EA
:1030B40064652D696E697469616C697A65206973E8
:1030C400206E756C6C0D0A0032354C4378783A20CA
:1030D4007370692072656164206973206E756C6C0D
:1030E4000D0A0032354C4378783A207370692077A2
:1030F40072697465206973206E756C6C0D0A0032F8
:10310400354C4378783A20636869702073656C6540
:103114006374206973206E756C6C0D0A0032354C33
:103124004378783A206770696F20777269746520F4
:103134006973206E756C6C0D0A0032354C437878D7
:103144003A206661696C656420746F20696E6974E5
:1031540069616C697A65207370690D0A0032354CB7
:103164004378783A206661696C656420746F2064E2
:10317400652D696E697469616C697A65200D0A0050
:1031840032354C4378783A6661696C656420746FB3
:10319400206765742076617269616E740D0A00326D
:1031A400354C4378783A6661696C656420746F20A5
:1031B40067657420706167652073697A650D0A001C
:1031C40032354C4378783A6661696C656420746F73
:1031D400207265616420737461747573207265670D
:1031E4000D0A0032354C4378783A206661696C6583
:1031F4006420746F20656E61626C652077726974F7
:1032040065206F7065726174696F6E200D0A0032FB
:10321400354C4378783A6661696C656420746F2034
:10322400777269746520737461747573207265674D
:103234000D0A0032354C4378783A6661696C6564EE
:1032440020746F20657261736520636869700D0A6C
:103254000032354C4378783A6661696C6564207352
:103264006574206465657020706F776572206D6F7A
:1032740064650D0A0032354C4378783A6661696CAE
:1032840065642072656164204D6672204944202083
:10329400616E642072656C656173652066726F6D22
:1032A40020445044206D6F64650D0A0032354C4350
:1032B400303830783A206164647265737320256411
:1032C4002069732067726561746572207468616E29
:1032D400206D617820616C6C6F7765642025640DC6
:1032E4000A0032354C43313630783A2061646472D6
:1032F4006573732025642069732067726561746542
:1033040072207468616E206D617820616C6C6F77D7
:1033140065642025640D0A0032354C43333230781D
:103324003A20616464726573732025642069732094
:1033340067726561746572207468616E206D61786E
:1033440020616C6C6F7765642025640D0A0032354A
:103354004C43363430783A20616464726573732068
:1033640025642069732067726561746572207468CE
:10337400616E206D617820616C6C6F7765642025C7
:10338400640D0A0032354C433132383A20616464AA
:103394007265737320256420697320677265617494
:1033A4006572207468616E206D617820616C6C6F49
:1033B4007765642025640D0A0032354C4332353676
:1033C4003A206164647265737320256420697320F4
:1033D40067726561746572207468616E206D6178CE
:1033E40020616C6C6F7765642025640D0A003235AA
:1033F4004C4378783A6661696C656420746F207612
:10340400616C6964617465206164647265737320BE
:10341400656570726F6D207479706520756E6B6E62
:103424006F776E0D0A0032354C4378783A20666126
:10343400696C656420746F206973737565207265A7
:10344400616420636F6D6D616E64200D0A00323516
:103454004C4378783A206661696C656420726561D2
:10346400642062797465200D0A0032354C43787803
:103474003A206661696C656420746F206765742006
:1034840062797465730D0A0032354C4378783A20BA
:103494006661696C656420746F2077726974652C49
:1034A40020696E76616C696420616464726573730B
:1034B400200D0A0032354C4378783A6661696C65B0
:1034C4006420746F2073656E642065726173652077
:1034D400736563746F720D0A0032354C4378783A21
:1034E400206661696C656420746F20657865637516
:1034F40074652C20617474656D707420746F20770A
:1035040072697465206265796F6E642070616765A5
:1035140020626F756E646172790D0A0032354C4316
:1035240078783A207061676520256420737461722D
:103534007420616464726573733A256420656E64F3
:1035440020616464726573733A25640D0A00323530
:103554004C43303830783A20706167652025642008
:1035640069732067726561746572207468616E2086
:103574006D61782070616765206E756D626572207B
:1035840025640D0A0032354C43313630783A2070C8
:1035940061676520256420697320677265617465BD
:1035A40072207468616E206D617820706167652097
:1035B4006E756D6265722025640D0A0032354C43C8
:1035C400333230783A20706167652025642069734E
:1035D4002067726561746572207468616E206D6124
:1035E400782070616765206E756D62657220256450
:1035F4000D0A0032354C43363430783A2070616716
:103604006520256420697320677265617465722082
:103614007468616E206D61782070616765206E75D5
:103624006D6265722025640D0A0032354C433132D7
:10363400383A2070616765202564206973206772B9
:103644006561746572207468616E206D61782070A4
:10365400616765206E756D6265722025640D0A00D0
:1036640032354C433235363A207061676520256423
:103674002069732067726561746572207468616E75
:10368400206D61782070616765206E756D6265726A
:103694002025640D0A0032354C433531323A20700E
:1036A40061676520256420697320677265617465AC
:1036B40072207468616E206D617820706167652086
:1036C4006E756D6265722025640D0A0032354C43B7
:1036D40078783A6661696C656420746F2076616CF1
:1036E40069646174652070616765206465766963E7
:1036F40065207479706520756E6B6E6F776E0D0A38
:103704000032354C4378783A696E76616C6964208E
:1037140064657669636520747970650D0A003235D5
:103724004C4378783A206661696C656420746F2034
:1037340077726974652066726F6D20616464726566
:1037440073733A2025642C2032352525206F66209A
:10375400746865207570706572206D656D6F72791F
:103764002069732077726974652070726F74656361
:103774007465640D0A0032354C4378783A206661EA
:10378400696C656420746F20777269746520667251
:103794006F6D20616464726573733A2025642C2014
:1037A40068616C66206F6620746865206D656D6F56
:1037B40072792069732077726974652070726F74EE
:1037C40065637465640D0A0032354C4378783A2099
:1037D4007772697465206661696C65642C2065651F
:1037E40070726F6D2066756C6C206D656D6F72798B
:1037F4002077726974652070726F74656374656490
:103804002C20636865636B207468652042502073C4
:1038140074617475730D0A0032354C4378783A201C
:103824007772697465206661696C65642C756E6B6A
:103834006E6F776E20626C6F636B2070726F74654D
:103844006374207374617475730D0A0032354C43CC
:1038540078783A6661696C656420746F2073656E6C
:103864006420777269746520636F6D6D616E640D99
:103874000A0032354C4378783A6661696C65642095
:10388400746F207772697465206461746120627951
:1038940074650D0A0032354C4378783A20666169C4
:1038A4006C656420746F207075742062797465731C
:1038B4000D0A0032354C4378783A206661696C65AC
:1038C4006420746F207265616420574950207374BA
:1038D400617475730D0A0032354C4378783A666129
:1038E400696C656420746F20657261736520706112
:1038F40067650D0A0032354C437878780053504997
:10390400004D6963726F6368697020546563686E03
:103914006F6C6F67790032354C4378783A20696E62
:10392400697469616C697A65206661696C65640DA6
:103934000A0032354C4378783A206661696C6564D4
:1039440020746F20736574206465766963652074E0
:103954007970650D0A0032354C4378783A666169AE
:103964006C656420746F20736574207061676520D2
:1039740073697A650D0A0032354C4378783A66618A
:10398400696C656420746F2073657420626C6F6366
:103994006B2070726F7465637420737461747573D3
:1039A4000D0A0032354C4378783A6661696C656477
:1039B40020746F2073657420777269746520707247
:1039C4006F74656374207374617475730D0A0032C7
:1039D400354C4378783A206661696C656420746F6D
:1039E40020676574206D656D6F7279206C656E67F4
:1039F40074680D0A0043686970204E616D653A2051
:103A04000925730D0A004D616E75666163747572E4
:103A1400653A200925730D0A00496E746572666162
:103A240063653A200925730D0A00537570706C792B
:103A340020566F6C74204D61783A2009252E31662A
:103A4400560D0A00537570706C7920566F6C742093
:103A54004D696E3A2009252E3166560D0A004D61D6
:103A640078696D756D2043757272656E743A2009BC
:103A7400252E31666D410D0A0054656D70657261C5
:103A840074757265204D61783A2009252E3166439C
:103A94000D0A0054656D7065726174757265204D10
:103AA400696E3A2009252E3166430D0A0044726975
:103AB4007665722056657273696F6E3A20095625D1
:103AC4002E31662E252E32640D0A00426C6F636B14
:103AD4002070726F74656374207374617475733AC3
:103AE4002025640A006164647265737320726561E1
:103AF400643A202564204461746120526561642025
:103B04003A25780A000A47657420646174653A208E
:103B1400256C750A00546F74616C2073697A652092
:103B24003A2025642042797465730A4672656520DB
:103B340073706163653A2025642042797465730A61
:103B4400557365642073706163653A20256420426F
:103B5400797465730A000012544695A5B7C3F42D11
:0E3B64000000000200000000E40F000000005E
:00000001FF
