S015000032356C6378785F656570726F6D2E7372656302
S1130000602B0020711200006D1200006D120000C0
S113001000000000000000000000000000000000DC
S11300200000000000000000000000006D1200004D
S113003000000000000000006D1200006D120000BE
S11300406D1200006D1200006D1200006D120000B0
S11300506D1200006D1200006D1200006D120000A0
S11300606D1200006D1200006D1200006D12000090
S11300706D1200006D1200000D1E00006D120000D4
S11300806D1200006D1200006D1200006D12000070
S11300906D12000000000000000000006D1200005E
S11300A06D1200006D1200006D1200006D12000050
S11300B00000000010B5064C2378002B07D1054B37
S11300C0002B02D0044800E000BF0123237010BDC0
S11300D0B809002000000000B0A20000084B10B5D1
S11300E0002B03D00749084800E000BF0748036815
S11300F0002B00D110BD064B002BFBD09847F9E72D
S113010000000000BC090020B0A20000B0A2000062
S113011000000000F8B505000C0016001F000120C7
S11301202B6998473A0031002000AB689847041EB9
S113013002D001242000F8BD2B6900209847F9E77C
S113014070B50D001100C4681A002800A0470028EB
S113015000D170BD0120FCE710B5041E3FD0C36977
S1130160002B3ED08269002A18D00268002A19D0D8
S1130170416800291AD0C16800291BD08168002970
S11301801CD0416900291DD0016900291ED0904767
S113019000281FD101222223E25421E0124898476B
S11301A003201DE011489847032019E010489847A0
S11301B0032015E00F489847032011E00E489847A4
S11301C003200DE00D489847032009E00C489847A8
S11301D0032005E0E3690B489847012000E0022072
S11301E010BD0320FCE7C046609100007C91000034
S11301F09C910000BC910000D8910000F491000093
S11302001492000034920000002809D02223C35C19
S1130210012B01D0032070471F33C1540020FAE79B
S11302200220F8E7002809D02223C35C012B01D067
S1130230032070472033C1540020FAE70220F8E776
S1130240F0B583B004000F00002822D02223C65C3E
S1130250012E03D00325280003B0F0BD00206369FC
S1130260984701236A460732052120000A4DA84712
S11302700500012063699847002D05D16B46DA79A2
S1130280012313403B70E6E7E369044898473500CF
S1130290E1E70225DFE7C04641010000C09200000B
S11302A0F0B583B005000E0000284BD02223C45CB7
S11302B0012C03D00324200003B0F0BD00206B699F
S11302C0984701236A460732052128001E4FB84784
S11302D0070001206B699847002F27D100206B6924
S11302E098470023002206212800184FB84707002A
S11302F001206B699847002F1CD16B46DF1DDB7909
S11303000C229343B6001E433E7000206B6998474D
S113031001233A00012128000C4EB04706000120B9
S11303206B699847002E09D13400C4E7EB6908488B
S11303309847C0E7EB6907489847BCE7EB6906486C
S11303409847B8E70224B6E7410100001501000010
S1130350C0920000E492000010930000F0B583B056
S113036004000F00002823D02223C65C012E03D0F2
S11303700325280003B0F0BD0020636998470123DA
S11303806A460732052120000A4DA84705000120CE
S113039063699847002D06D16B46DA7992100323DE
S11303A013403B70E5E7E369034898473500E0E70D
S11303B00225DEE741010000C0920000F0B583B0E1
S11303C005000E0000284BD02223C45C012C03D06E
S11303D00324200003B0F0BD00206B69984701237B
S11303E06A460732052128001E4FB847070001203E
S11303F06B699847002F27D100206B699847002329
S1130400002206212800184FB847070001206B6915
S11304109847002F1CD16B46DF1DDA797F231340E8
S1130420F6011E433E7000206B69984701233A0091
S1130430012128000C4EB047060001206B69984743
S1130440002E09D13400C4E7EB6908489847C0E797
S1130450EB6907489847BCE7EB6906489847B8E753
S11304600224B6E74101000015010000C09200001B
S1130470E49200001093000010B500284ED022230F
S1130480C45C012C02D00324200010BD023BC35CD9
S1130490072B3FD89B00234AD3589F46224B9942AF
S11304A001D80024F0E7C3691F4A20489847EBE7C6
S11304B01F4B994201D80024E6E7C3691C4A1D4832
S11304C09847E1E71C4B994201D80024DCE7C36953
S11304D0194A1A489847D7E7194B994201D800247A
S11304E0D2E7C369164A17489847CDE7164B994295
S11304F001D80024C8E7C369134A14489847C3E7DE
S11305000BB2002B01DB0024BEE7C369104A11487B
S11305109847B9E7C36910489847B5E70224B3E799
S11305200024B1E700910000FF030000B093000035
S1130530FF070000E8930000FF0F00002094000074
S1130540FF1F000058940000FF3F0000909400003B
S1130550FF7F0000C894000000950000F0B5CE466F
S113056000B582B006000D0000920193002835D03A
S11305702223C45C012C05D00324200002B004BC57
S11305809146F0BD164B9847002801D00424F4E7A7
S1130590736998470023002203213000114FB847A4
S11305A0002813D1290A0023002230000D4FB84738
S11305B0FF212940019B009A30000B4DA847051EDE
S11305C008D17369012098472C00D6E7F3690748DE
S11305D09847D2E7F36906489847CEE70224CCE768
S11305E07904000015010000410100003895000065
S11305F060950000F0B5DE464F464646C0B582B071
S113060000AF81463A601C007B600733DB08DB00E7
S11306106A46D31A9D46E84600283AD02223C65C8F
S1130620012E08D003263000BD4602B01CBC904603
S11306309946A346F0BDA3B26A46174DA8470028C1
S113064004D04B46DB6915489847ECE70022144B6D
S11306501A700CE04246D15C7A68D21A013A4046DC
S1130660805C4546E854A95401330D4A137062086E
S11306700B4B1B789A42EDD8094D281D22004146A8
S1130680084B98476B687B603B687A681A60002661
S1130690C9E70226C7E7C0465D0500007C95000057
S11306A0D4090020ED500000F8B504000E00002825
S11306B04BD02223C55C012D02D003252800F8BDB0
S11306C0002701E00137FFB2012F0BD87B00F15A5C
S11306D020001F4B98470028F4D0E3691D48984731
S11306E00425EBE7002063699847002300220621D4
S11306F02000194FB8470700012063699847002F6D
S11307001BD100206369984700230022D8212000D0
S1130710114FB8473188090A012332002000B84735
S11307207188090AB21C01232000B847061E08D1AB
S11307306369012098473500C0E7E3690748984793
S1130740BCE7E36906489847B8E70225B6E7C04620
S1130750790400009C95000015010000E49200005B
S1130760C8950000F0B585B0071E0191039249D0E9
S11307702223C65C012E03D00326300005B0F0BD51
S113078000240294204B98472123FD5C29001F4B31
S11307909847844234DA019A10002B006343934251
S11307A002DC0134A4B2ECE7039B9C466044184B82
S11307B0984701902800174B9847011C0198164B45
S11307C09847164B9847164B9847164B984780B254
S11307D0844201D30026D0E7ABB2029A551EADB2D3
S11307E05D43ADB25B199CB2013CA4B20E48FB69F7
S11307F09847FF6923002A0002990C48B847BCE7D0
S11308000026BAE70226B8E7B10F0000252700004A
S1130810AD3100004D320000A52B0000E94D000071
S1130820E5240000E9290000F0950000349600005A
S1130830F8B505000E001700002800D189E0222336
S1130840C45C012C02D003242000F8BD023BC35C2D
S1130850072B7AD89B00404AD3589F462123C15C7A
S11308608020C0003D4B984783B2B34206D3212376
S1130870EB5C013E5E433E800024E5E7EB69000447
S1130880020C310036489847DEE72123C15C802002
S11308900001324B984783B29E42E8D9EB690004C9
S11308A0020C31002F489847CEE72123C15C8020F9
S11308B040012A4B984783B29E42D8D9EB69000481
S11308C0020C310028489847BEE72123C15C8020F0
S11308D08001224B984783B29E42C8D9EB69000439
S11308E0020C310021489847AEE72123C15C8020E7
S11308F0C0011A4B984783B29E42B8D9EB690004F1
S1130900020C31001A4898479EE72123C15C8020DD
S11309100002124B984783B29E42A8D9EB690004A7
S1130920020C3100134898478EE72123C15C8020D4
S113093040020A4B984783B29E4298D9EB6900045F
S1130940020C31000C4898477EE7EB690B48984746
S11309507AE7022478E7C0462091000025270000AA
S113096068960000A0960000D8960000109700003A
S11309704897000080970000B8970000F0970000A7
S113098010B5002833D02223C45C012C02D00324E8
S1130990200010BD023BC35C072B24D89B00154AE2
S11309A0D3589F468023DB000B800024F0E780238C
S11309B01B010B800024EBE780235B010B800024E8
S11309C0E6E780239B010B800024E1E78023DB0121
S11309D00B800024DCE7084B0B800024D8E70023BD
S11309E00B800024D4E7C36904489847D0E7022465
S11309F0CEE7C046409100000080FFFF2898000029
S1130A00F0B585B007000C00002857D02223C55C40
S1130A10012D03D00325280005B0F0BD02ABDE1D77
S1130A203100284B984703A93800274B984733785F
S1130A30012B09D0002B43D0022B20D0032B39D01B
S1130A40FB6922489847E6E7214E2000B047009012
S1130A50019103AB1888B04700221E4B1E4EB047CD
S1130A6002000B00009801991C4EB047002801D1E8
S1130A700025D0E7FB69210019489847CBE7144EBD
S1130A802000B0470090019103AB1888B0470022C2
S1130A90144B114EB04702000B00009801990F4E01
S1130AA0B047002801D10025B5E7FB6921000E48B5
S1130AB09847B0E7FB690D489847ACE70225AAE7D9
S1130AC00025A8E75D0300008109000044990000A7
S1130AD0F54C00000000E83F61410000652900007A
S1130AE0489800000000E03FA0980000F49800003F
S1130AF0F0B5CE4600B582B007000D000192009318
S1130B00002858D02223C45C012C05D003242000E3
S1130B1002B004BC9146F0BD009A284B98470028C7
S1130B2001D00624F3E729003800254B9847002814
S1130B3001D00424EBE729003800224B9847002811
S1130B4001D00524E3E77B69984700231A000621B6
S1130B5038001D4EB047814601207B6998474B46BB
S1130B60002B0ED100207B69984700231A00022134
S1130B703800154EB047002807D0FB691348984742
S1130B80C5E7FB6912489847C1E7290A00231A0000
S1130B9038000D4EB047E9B2009B019A3800B047C7
S1130BA0051E04D17B69012098472C00AFE7FB693F
S1130BB008489847ABE70224A9E7C0466507000048
S1130BC079040000010A0000150100007899000072
S1130BD0E4920000A0990000F0B5D6464F46464680
S1130BE0C0B582B000AF0400796011009A469946FE
S1130BF00733DB08DB006A46D31A9D466E4600289D
S1130C0058D02223C35C9846012B09D0032398466D
S1130C104046BD4602B01CBC90469946A246F0BD73
S1130C2052466846254B98470022254B1A7309E023
S1130C30F15C4A46D21A013AB05CF054B154013323
S1130C401F4A137353465A081D4B1B7B9A42EFD815
S1130C501B4B3A791A730AE0E3691A489847D7E7B5
S1130C601948E3699847164A137B01331373144BED
S1130C70197B7B684B44994219DA89B2104B5A7B31
S1130C80B21801232000114DA8470028E4D10C4AD2
S1130C90537B013353730A490E3120000C4B9847A0
S1130CA00028DDD1064B9B7B002BF4D1DBE700232E
S1130CB09846ADE702239846AAE7C046ED500000E7
S1130CC0D4090020C4990000E4990000F10A00004E
S1130CD041020000F0B585B000AF05000C002123EF
S1130CE0C25CD31DDB08DB006946CB1A9D467B60E2
S1130CF0FF216846394B9847002D00D16BE0222331
S1130D00EE5C012E04D003263000BD4605B0F0BDD4
S1130D10143BFA1821002800314B9847002801D0D1
S1130D200426F1E7F98928002E4B9847002801D0C2
S1130D300526E9E76B69984700231A000621280075
S1130D40294CA047040001206B699847002C1ED150
S1130D5000206B6998472023EB5C072B1BD10023F1
S1130D601A0042212800204CA047F989090A0023CF
S1130D701A002800A047B97B00231A002800A047C6
S1130D800400002C22D0EB6918489847BCE7EB69B3
S1130D9017489847B8E700231A0002212800124C8C
S1130DA0A047002803D0EB6912489847ACE7F989BB
S1130DB0090A00231A0028000B4CA0472123EB5CEE
S1130DC0B97B7A682800A0470400DAE76B69012040
S1130DD09847260098E7022696E7C046715100001E
S1130DE031080000010A000015010000089A000003
S1130DF0E49200007899000070B5041E20D04422CB
S1130E000021104B98470A220F4920000F4DA84794
S1130E102000233005220E49A84720000A30192259
S1130E200C49A8470C4B23630C4BE3620C4B6363E4
S1130E300C4BE3630C4BA3630C4B2364002070BD89
S1130E400220FCE771510000289A0000695200005A
S1130E50309A0000349A00000000B04000002040A6
S1130E60000020410000FA42000020C200409644E5
S1130E7070B505000E002A4C242200212000294BC5
S1130E809847294B2360294B6360294BE360294B26
S1130E90A360294B6361294B2361294BE361294BEF
S1130EA0A3612000284B984700281ED129001C4824
S1130EB0264B984700281ED131001948244B9847E7
S1130EC000281DD101211648224B984700281CD127
S1130ED00A201C4B9847002111481F4B9847041EB9
S1130EE018D10A20174B984703E01C48144B984725
S1130EF00124200070BD1A48114B98470124F8E7DB
S1130F0018480F4B98470124F3E717480C4B9847B0
S1130F100124EEE715480A4B98470124E9E7C04647
S1130F20E409002071510000B9110000BD11000056
S1130F30C1110000D1110000E5110000E111000011
S1130F4001120000F511000059010000090200001F
S1130F5025020000A1020000BD0300004C9A00001D
S1130F60689A00008C9A0000B09A0000DC9A000095
S1130F7010B513000A0001000348044CA0470028E0
S1130F8000D110BD0120FCE7E40900205D0500004C
S1130F9010B5D3B20A0001000348044CA04700284E
S1130FA000D110BD0120FCE7E4090020F505000094
S1130FB010B5074801002431064B9847002802D198
S1130FC0034B586A10BD0448044B98470120F9E7C5
S1130FD0E409002081090000089B000001120000C0
S1130FE010B582B06B46D91D0B480C4B98476B4625
S1130FF007331B78012B0BD1094B9C4208D86B4655
S1131000D91D0548054B9847002801D10134EEE766
S1131010002002B010BDC046E409002041020000D7
S11310209F86010010B513000A0001000648074C12
S1131030A047002801D0012010BD054B9847002887
S1131040FAD00120F8E7C046E4090020F10A0000C4
S1131050E10F000010B5D3B20A0001000648074CA6
S1131060A047002801D0012010BD054B9847002857
S1131070FAD00120F8E7C046E4090020D90B0000AB
S1131080E10F000010B501000648074B98470028FF
S113109001D0012010BD054B98470028FAD001204B
S11310A0F8E7C046E4090020D50C0000E10F000079
S11310B070B582B004000E00FF226B46DA7001ABFB
S11310C0188059802023164AD35C072B17D0731C31
S11310D09C4210DA21001248124B9847051E1CD17D
S11310E001226B46D91C20000F4B9847002803D1DE
S11310F00134A4B2EBE70025280002B070BD01A9B9
S113110007480A4B9847002801D00125F4E7084B0B
S11311109847051EF0D00125EEE70125ECE7C0460F
S1131120E4090020010A000025100000A9060000BF
S1131130E10F000010B501000348044B9847002854
S113114000D110BD0120FCE7E40900205D0300008C
S1131150F0B583B007000E000192002401E00134D1
S1131160A4B2124B9847844210D2012210492A316A
S11311702000104B9847002816D12A230C4AD35C30
S1131180FF2BECD1938D01339385E8E7074DA847F6
S11311903880074CA38D3380A847A38DC01A019BC8
S11311A01880002003B0F0BD0120FBE7B10F000060
S11311B0E4090020710F00000020704700207047F0
S11311C010B5D2B2014B9847002010BD7124000025
S11311D010B5D2B2014B9847002010BD2124000065
S11311E00020704710B5024B9847002010BDC04640
S11311F0CD24000010B5014B984710BD41150000E7
S11312000FB470B5C2B046AC40CC80256D002A0046
S1131210002102A80D4B98470094230032002900B6
S113122002A80B4CA04702A80A4B9847C0B26B46D1
S1131230D871D979C9B202A8074B98470A20074B3D
S1131240984742B070BC08BC04B018477151000004
S11312505553000005520000E9230000F511000079
S113126010B5014B984710BDC1140000FEE7000003
S1131270F8B5234A234B9A4209D0224B204A03E073
S113128011681960043304321F498B42F8D31F4B91
S113129002E000221A6004331D4A9342F9D31D4A26
S11312A0FF211D4B8B439360FD3990235B001B4A48
S11312B0D1501B4AD3780325AB4302242343D37074
S11312C0D3780C27BB4308263343D370154B987B44
S11312D030229043202210439873997BB9433143C1
S11312E099739A7BAA4322439A730F4A51688023C5
S11312F00B4353600D4B98470D4B9847FEE7C04690
S1131300B0A2000000000020B8090020B8090020A5
S1131310600B002000ED00E00000000000700041C0
S1131320005000410048004100400041A550000029
S1131330BD210000F0B5C024E40510236361A3605F
S1131340214B224A9A62C0200006986244215A5CCA
S11313500125AC46AA4301273A43D2B25A54123962
S11313605A5C0E35AA4303252A43D2B25A5420228A
S11313706261A260164A9A62986245201A5C6546C8
S1131380AA433A43D2B21A54585C0F26304030254F
S11313902843C0B25854802262600E4A9A620E4AB0
S11313A09A624722995C042081439954995C60466F
S11313B081433943C9B2995433215A5C32402A4398
S11313C0D2B25A54F0BDC04600440041100000405F
S11313D02000004080000240000002C0044A136A5A
S11313E004210B431362034A034B5A807047C046DF
S11313F00004004014400000000C004010B5044BF1
S1131400984704490448054B9847054B984710BD35
S1131410DD13000000080042640A0020D11500001A
S113142035130000044A136A80210B431362034AF4
S1131430034B5A807047C046000400401940000026
S1131440000C004030B50F4BC222995C0125A94322
S113145001242143C9B29954B120195CB33A914390
S113146003221143C9B21954C3215A5CAA4322432B
S1131470D2B25A541A5CB4390A4030210A43D2B267
S11314801A5430BD0044004110B582B0064B984751
S1131490002300931033054A05490648064CA0472B
S11314A0064B984702B010BD25140000140A002012
S11314B0001C00427C0A0020AD1800004514000006
S11314C010B5124B9847C022D20540235361936054
S11314D00F4B10499962C021090699624624195D8F
S11314E00120814319558021890351619160802233
S11314F0D2059A62084A9A6255215A5C82435A5428
S1131500064B9847064B984710BDC046F51A000095
S11315100044004140000040200000C0FD130000D2
S113152089140000EFF31083036072B6BFF35F8F7A
S11315307047BFF35F8F036883F310887047000020
S113154010B5044B1C68044B984701002000034B62
S1131550984710BD240A0020CD1A0000ED1A00009F
S113156070B504000D00160000280ED000290AD022
S1131570012034220649074B98472368320029008A
S11315802000984770BD0020F3E70020F1E7C04633
S1131590309B0000A519000070B504000D00160072
S11315A000280ED000290AD001203D220649074B0D
S11315B098476368320029002000984770BD0020D6
S11315C0F3E70020F1E7C046309B0000A5190000B6
S11315D070B504000D00002817D0002913D0012095
S11315E040220B490B4B98476560201D29000A4B8C
S11315F09847002806DB094BA382094B2361094B5A
S1131600E360002070BD0020EAE70020E8E7C04660
S1131610449B0000A5190000211E00000080FFFF6C
S1131620D51600009916000010B50400431E984119
S1131630C0B257220349044B9847201D034B9847D7
S113164010BDC046449B0000A51900001D200000E9
S113165030B587B004000D00002815D0002911D042
S11316600120B32209490A4B98472B6803936B68FE
S11316700493AB6801930593201D03A9054B984778
S113168007B030BD0020ECE70020EAE7449B0000EF
S1131690A51900005520000070B584B004000E00A8
S11316A01500431E9841C0B2A3220749074B98472F
S11316B020000C38002302930196039501A9044BE2
S11316C0984704B070BDC046449B0000A5190000B3
S11316D05116000070B584B004000E001500431EBE
S11316E09841C0B287220749074B984720000C381D
S11316F0029600230193039501A9044B984704B073
S113170070BDC046449B0000A5190000511600009E
S113171070B504000D0000280CD0002908D0012069
S1131720BD220549054B98470C342C60002070BD40
S11317300020F5E70020F3E7449B0000A519000012
S113174010B5083800230363436A002B00D0984780
S113175010BD10B5083800230363C36A002B00D002
S1131760984710BD10B504002C30044B9847236AE9
S1131770083C002B01D02000984710BD451A0000FA
S113178070B504000E00150000281DD000291DD0DE
S1131790002A1DD100203C22FF321049104B9847EB
S11317A04423E25A0833E35A9A4213D1A6644C23E1
S11317B0E5520022083BE252433B236320000830F9
S11317C0084B9847280070BD0020E4E70020E2E7BA
S11317D00120E0E71C204042F5E7C046609B000082
S11317E0A5190000FB1D000070B504000200083AB2
S11317F04423D35A4C21525A93420DD00200016C17
S1131800083A5D1C44201552C95C2000044B9847DB
S11318102000044B984770BD034B9847FBE7C04634
S1131820F31D0000FB1D0000031E0000F0B585B091
S113183004000D001600002817D0002917D0002A34
S113184017D10020AC2252001249134B984703A829
S1131850124B9847343420000194114B98470700E9
S113186003A8104B984700240BE00020EAE700206F
S1131870E8E70120E6E70134A4B2691801980A4BAD
S113188098472100A74201D9B442F4D3200005B0FF
S1131890F0BDC046609B0000A5190000251500009E
S11318A0851A000033150000F9190000F8B504008A
S11318B00D0016001F00002826D0002926D0002A7B
S11318C026D0002B26D100203A221549154B9847E3
S11318D0200034303A003100134B984700281BD1C4
S11318E0200008302900114B984700280BD1104BD9
S11318F06360104B2360104BA360104BE360104BEC
S11319002361104B6361F8BD0020DDE70020DBE7B5
S11319100020D9E70120D7E70D204042F3E7C04675
S1131920609B0000A5190000AD190000551D0000C2
S11319302D18000081170000E9170000651700004A
S1131940411700005317000010B50400431E9841CE
S1131950C0B261220449054B984720000830044B6B
S11319609847002010BDC046609B0000A5190000E8
S1131970E11D000070B504000D0000280BD0002903
S113198007D0012077220549054B98472C60002099
S113199070BD0020F6E70020F4E7C046609B00001D
S11319A0A5190000002800D100BE704770B50400DE
S11319B00E001500002812D0002912D0002A12D1DE
S11319C0002028220A490B4B98476B1E2B420CD14E
S11319D063600023A360E3602660002070BD0020E4
S11319E0EFE70020EDE70120EBE70D204042F5E7AB
S11319F0809B0000A519000070B504000D000028AC
S1131A0016D0002912D0012040220C490C4B9847D3
S1131A10A368E2689A420DD0626813402268D35CDE
S1131A202B70A3680133A360002070BD0020EBE796
S1131A300020E9E70A204042F7E7C046809B000007
S1131A40A519000070B504000D00431E9841C0B2F2
S1131A5051220A490A4B98476368E2681340226896
S1131A60D554E368A2689A1A61688A4201D9591A5E
S1131A70A1600133E360002070BDC046809B00007C
S1131A80A519000010B50400431E9841C0B2672296
S1131A900349044B9847E068A368C01A10BDC046C8
S1131AA0809B0000A51900000300064A1268002A62
S1131AB004D0044A1068C318136070470249014AED
S1131AC01160F6E7280A0020602B002010B50300FF
S1131AD0C8208000584302300321034B98478300F9
S1131AE01B18580010BDC046112600000139FDD84E
S1131AF07047000010B5064B5A685A60054B98476A
S1131B00054B9847054B9847FF20054B984710BD58
S1131B1000400041451B000069210000AD21000088
S1131B20251B0000C3070AD5054B802252009A608A
S1131B30832252025A60024B5B78DB09FBD1704767
S1131B40000C0040064B1A7AD2B21A725A7AD2B2F8
S1131B505A729A7AD2B29A72DA7AD2B2DA72704736
S1131B6000040040024B9C466044800AC0B27047A7
S1131B7000F8FFBD10B58469237EDB0702D5A37D81
S1131B80DB070FD4237E9B0702D5A37D9B070ED4CE
S1131B90237E5B0715D5628B37231A420CD008339A
S1131BA0638310BD0123237503689847F9E7022373
S1131BB0237583689847F4E74368218DC9B2984731
S1131BC0EFE7237EDB09ECD080232376C3689847B4
S1131BD0638B9BB26383E4E7034B984200D0704766
S1131BE0024B1960FBE7C046001C00422C0A00208F
S1131BF010B5024B98470930C0B210BD651B0000F8
S1131C00C369DB0708D40368022213430360C36972
S1131C109B07FCD10020704704204042FBE70000F2
S1131C2010B50B4B984702000020002806D0094A43
S1131C3009490020094B9847002010BD83001B1858
S1131C409900074BCB5C9A42F7D00130C0B2ECE765
S1131C50651B00005E020000F49B0000A519000053
S1131C60A49B000070B50400384B9847E369DB0778
S1131C701DD483001B189A00354B9B185A681C23EB
S1131C801A40E3699B07FCD123689B0709D52368A5
S1131C9002218B432360E3699B07FCD1E3699B0723
S1131CA0FCD4012313432360E3699B07FCD1E3695C
S1131CB0DB07FCD483001B189A00254B9B185B6838
S1131CC02360E3699B07FCD183001B189A00204B17
S1131CD09B189B686360E3695B07FCD183001B1856
S1131CE09A001B4B9B185B689A040BD4C022D20148
S1131CF0134207D183001B189A00154B9B189B892C
S1131D00A38115E083001B189A00114989188A8958
S1131D10A389D204D20C5B0B5B031343A3818B7B9B
S1131D2007221A40A3895203DB04DB0C1343A3816B
S1131D30074A83001D18A9000D005118C97BA1731F
S1131D405219127C3023E254002070BD211C000083
S1131D50A49B000070B506000C00431E9841C0B25D
S1131D60C4221949194B98472000194B9847051E5E
S1131D7001D0280070BDB46131002000154B984794
S1131D802000154B984743B2002B0ADB1F2101406A
S1131D9001228A408021114C6250BFF34F8FBFF360
S1131DA06F8F002B07DB1F21014001228A40C021D5
S1131DB049000A4C6250002BDBDB1F2318401E3BFA
S1131DC08340064A1360D4E7F49B0000A519000081
S1131DD0651C0000D91B0000F11B000000E100E0BD
S1131DE08269136802210B431360D3699B07FCD1FA
S1131DF07047836989B219857047836901229A758E
S1131E007047836902229A757047000010B5024B2F
S1131E101868024B984710BD2C0A0020751B00005F
S1131E2070B506000C000800714B98470023002B86
S1131E3000D184E00025002E00D18DE0002C00D1DB
S1131E4088E001206B4A6C496C4B9847002D00D107
S1131E50CBE0E369DB0721D42A786B781B021343B8
S1131E60AA7812041343EA7812061A431C231A4070
S1131E70E3699B07FCD123689B0709D523680221EA
S1131E808B432360E3699B07FCD1E3699B07FCD484
S1131E90012313432360E3699B07FCD1E369DB0758
S1131EA0FCD434602B786A7812021A43AB781B0492
S1131EB01A43EB781B0613431C221340082B4DD006
S1131EC0002C00D18DE0002D00D188E001204C4A87
S1131ED049494A4B98472B786A7812021A43AB78DF
S1131EE01B041A43EB781B061343464A1340236032
S1131EF0E3699B07FCD12B796A7912021A43AB7907
S1131F001B041A43EB791B0613433F4A13408022F8
S1131F10920213436360E3695B07FCD12B7B237359
S1131F206A7B3023E2542B795B075CD10123337144
S1131F30AA7BEB7B1B021343F380002070BD0028B7
S1131F4002D00133DBB272E71D01EA182F4D3C3594
S1131F50AD1870E7002075E7002073E7002C3CD033
S1131F60002D38D001202A4A2349244B98472B7846
S1131F706A7812021A43AB781B041A43EB781B06E7
S1131F801343204A13402360E3699B07FCD12B7958
S1131F906A7912021A43AB791B041A43EB791B06C4
S1131FA013431C4A13401C4A13436360E3695B07F1
S1131FB0FCD12B7A6A7A12021A43AB7A1B041A43B5
S1131FC0EB7A1B06134363626A7B3023E254E369B2
S1131FD0002BFCD1A7E70020C5E70020C3E70020C1
S1131FE075E7002073E70223A1E70D204042A5E72F
S1131FF0651B000052090000F49B0000A5190000B5
S113200017090000FCFEFFFFBF1DFDFFA49B00009D
S11320102B090000BFDDFDFF4002020010B5041EC5
S11320200DD00368002B08D00120064A0649074B4F
S113203098472068064B984710BD0020F5E700201C
S1132040F3E7C046AD090000F49B0000A5190000A9
S1132050011C0000F0B5CE46474680B589B08146E4
S11320600D0004680B6803934B68049300230593E5
S113207006930679002814D0002C10D00120374A8A
S11320803749384B9847E3695B0764D1E3699B0799
S1132090FCD123689B0720D41420404256E0002042
S11320A0EDE70020EBE700222DE0487800024746E8
S11320B00743B84602310391013205924246A262B7
S11320C05BB2002B35DB002000283ADB0598AB68B7
S11320D0984202D3069A934233D9237EDBB25A073D
S11320E0E1D5A16A049A002A08D0501C049011700A
S11320F0012E03D9901C0490090A5170069A01928A
S1132100013206920122002ADAD10699059A9142F7
S1132110D6D34946C888D907D2D50399002906D011
S1132120481C039008788046012EBED8C4E7804638
S1132130C2E701235B426383813323761320404249
S1132140C2E7237E9B07FCD00323237609B00CBC93
S113215090469946F0BD04204042F7E7B20A0000D9
S1132160F49B0000A51900000E4A116A090C136AB9
S11321709B0F9B0709040C4801400B4302210B43AE
S1132180136293690B439361137F1D310B401377E3
S1132190044BDB681B07FBD5024A136A80210B43FF
S11321A013627047000800400000FF0F024A936961
S11321B002218B439361704700080040F0B5C64686
S11321C000B584B0584B984710210220574B9847CC
S11321D0574B98461860574D2800574B984729008D
S11321E05648574CA04729000A315648A0472900B1
S11321F023315548A047554E286BB04702000B00C9
S11322005348A047E86AB04702000B005148A04772
S1132210686BB04702000B004F48A047E86BB0471B
S113222002000B004D48A047A86BB04702000B000A
S11322304B48A0472D6C4B4F4B49281CB847039083
S11322404A49281CB8474A4FB847C3B26420584388
S1132250484B9847011C281C474B9847B847C5B2C0
S11322600398B04702000B0000954448A047444D32
S113227000232B80434E14333370434F3800434BB9
S113228098474346186039784148A04732782888EF
S11322904049414B984743461860002406E03D4BB3
S11322A01A5D21003D48264B98470134354B1B7875
S11322B09C42F4DB04223A490E203A4B98473A4DAB
S11322C0042229000E20394B9847194C20602968B4
S11322D037481B4DA8474020364B98472060364965
S11322E03648374B984720600A2236493648374BE0
S11322F098472060364B9846364F374E1A003900BF
S11323003000364B9847206043461B883A88318812
S11323103348A84780229203C023DB05DA61FA2000
S11323204000304B9847F5E761120000710E000041
S1132330280B0020E40A0020F90D00001C9C00007A
S113234001120000309C0000449C0000E94D000094
S1132350589C0000749C0000909C0000AC9C000001
S1132360C89C0000A52B000000007A440000C8426D
S1132370B9290000AD310000352E0000E49C0000B6
S1132380CC0A00202F0B00202E0B0020351100005A
S1132390049D0000D00A0020710F0000209D000061
S11323A00000002055100000340B0020910F0000A5
S11323B0409D00008510000004060000FC0500009C
S11323C0B1100000109C0000DB0700002510000085
S11323D0300B00202C0B0020CE0A002051110000ED
S11323E0509D0000F511000070B582B006000C008D
S11323F0074D01A92800074B98472800064B98472A
S1132400A2B231000198054B984702B070BDC04696
S11324107C0A0020751900004919000061150000AC
S1132420F0B585B00E0014006B469D1DD8800C4F8E
S113243003A938000B4B984738000B4B98470122EF
S113244029000398094B9847002C02D1002005B0BD
S1132450F0BDA2B231000398044B9847F6E7C0469A
S1132460640A0020111700002916000061150000FD
S1132470F0B585B00E0014006B469D1DD8800E4F3C
S113248003A938000D4B984738000D4B984701229B
S1132490290003980B4B9847012C07D0A2B23100B6
S11324A00398094B9847002005B0F0BD0122310084
S11324B00398054B9847F1E7640A002011170000C0
S11324C0291600006115000099150000002804D1A8
S11324D04022C023DB055A6170474022C023DB053C
S11324E09A61F9E7F8B557464E464546DE464B0035
S11324F0414A5B0DE0B59F1805000C0080460E00B4
S113250089468246132F26DC002F56DB3B4B3B418A
S113251098460B0042461340034316D0384A394BC1
S113252000F0DAFE0022002300F012FA00280AD09C
S1132530002C03DD80235B033B41994443464E4614
S11325409E4300239A46504631003CBC904699462F
S1132550A246AB46F8BD332F08DD8023DB009F4243
S1132560F3D102000B0000F0B7FEEEE7264A9446D2
S1132570012263445242DA4093460242E5D0204AA3
S1132580204B00F0A9FE0022002300F0E1F900280E
S1132590D9D0002C28DD142F23D03423DB1B0127B2
S11325A09F407F19AF429B415B4299445B469F43E6
S11325B04E46BA4631005046C7E7114A114B00F067
S11325C08BFE0022002300F0C3F90028BBD0002CAE
S11325D00CDB00232C439A460026002CB3D00B4E70
S11325E0B1E701239C46E1444746DFE70023802608
S11325F09A463606A7E7C04601FCFFFFFFFF0F001F
S11326009C7500883CE4377EEDFBFFFF0000F03F43
S1132610002243088B4274D303098B425FD3030A1D
S11326208B4244D3030B8B4228D3030C8B420DD330
S1132630FF22090212BA030C8B4202D312120902BE
S113264065D0030B8B4219D300E0090AC30B8B42FC
S113265001D3CB03C01A5241830B8B4201D38B03AA
S1132660C01A5241430B8B4201D34B03C01A52414F
S1132670030B8B4201D30B03C01A5241C30A8B4292
S113268001D3CB02C01A5241830A8B4201D38B027D
S1132690C01A5241430A8B4201D34B02C01A524121
S11326A0030A8B4201D30B02C01A5241CDD2C30993
S11326B08B4201D3CB01C01A524183098B4201D30F
S11326C08B01C01A524143098B4201D34B01C01AFA
S11326D0524103098B4201D30B01C01A5241C30872
S11326E08B4201D3CB00C01A524183088B4201D3E1
S11326F08B00C01A524143088B4201D34B00C01ACD
S11327005241411A00D20146524110467047FFE738
S113271001B5002000F0F0F802BDC0460029F7D052
S113272076E7704703460B437FD4002243088B426D
S113273074D303098B425FD3030A8B4244D3030B44
S11327408B4228D3030C8B420DD3FF22090212BA09
S1132750030C8B4202D31212090265D0030B8B4285
S113276019D300E0090AC30B8B4201D3CB03C01A6F
S11327705241830B8B4201D38B03C01A5241430B4A
S11327808B4201D34B03C01A5241030B8B4201D33A
S11327900B03C01A5241C30A8B4201D3CB02C01AA5
S11327A05241830A8B4201D38B02C01A5241430A1D
S11327B08B4201D34B02C01A5241030A8B4201D30C
S11327C00B02C01A5241CDD2C3098B4201D3CB01B3
S11327D0C01A524183098B4201D38B01C01A524162
S11327E043098B4201D34B01C01A524103098B4266
S11327F001D30B01C01A5241C3088B4201D3CB0051
S1132800C01A524183088B4201D38B00C01A524133
S113281043088B4201D34B00C01A5241411A00D2E3
S113282001465241104670475DE0CA0F00D049424C
S1132830031000D34042534000229C4603098B42BC
S11328402DD3030A8B4212D3FC22890112BA030A44
S11328508B420CD3890192118B4208D389019211C6
S11328608B4204D389013AD0921100E08909C3094B
S11328708B4201D3CB01C01A524183098B4201D34D
S11328808B01C01A524143098B4201D34B01C01A38
S1132890524103098B4201D30B01C01A5241C308B0
S11328A08B4201D3CB00C01A524183088B4201D31F
S11328B08B00C01A5241D9D243088B4201D34B003A
S11328C0C01A5241411A00D20146634652415B107C
S11328D0104601D34042002B00D54942704763465D
S11328E05B1000D3404201B5002000F005F802BDA2
S11328F00029F8D016E770477047C0468446101C7C
S113290062468C46191C634600E0C0461FB501F0C0
S1132910C5FB002801D40021C8421FBD10B501F039
S11329201FFB4042013010BD10B501F0B7FB002879
S113293001DB002010BD012010BDC04610B501F020
S1132940ADFB002801DD002010BD012010BDC046F4
S113295010B501F03FFB002801DC002010BD012070
S113296010BDC04610B501F035FB002801DA002087
S113297010BD012010BDC046002B11D1002A0FD17B
S1132980002900D1002802D00021C943081C07B443
S1132990024802A14018029003BDC0465DFFFFFF3C
S11329A003B4684601B5029800F03CF8019B9E46CA
S11329B002B00CBC7047C0469E2110B5C905041C6A
S11329C002F094FA002803D1201C00F0CFFB10BDC4
S11329D09E21201CC90500F02DFA00F0C7FB8023BE
S11329E01B069C466044F2E770B500220C4B0400C1
S11329F00D00FFF7B7FF002804D12000290002F0E2
S1132A0045F970BD064B00222000290001F028FE84
S1132A1002F03CF980231B069C466044F1E7C04663
S1132A200000E041F0B557464E464546DE46E0B567
S1132A30040083B00D00924699468B422FD82CD0C7
S1132A404946504602F07AFA29000600200002F0B6
S1132A5075FA331A9846203B9B4600D574E05346DA
S1132A605A4693401F005346424693401E00AF42CD
S1132A7029D826D05B46A41BBD41002B00DA79E09F
S1132A80002200230092019301235A4693400193AC
S1132A90012342469340009319E08242D0D9002298
S1132AA00023009201930C9B002B01D01C605D60FD
S1132AB00098019903B03CBC90469946A246AB46A7
S1132AC0F0BDA342D6D900220023009201934346CD
S1132AD0002BE8D0FB0772081A4346467B080EE039
S1132AE0AB4201D1A2420CD8A41A9D410120241961
S1132AF06D410021013E24184D41002E06D0AB4209
S1132B00EED9013E24196D41002EF8D15B460098A0
S1132B10019900196941002B22DB2B005A46D3404E
S1132B202A004446E2401C005B461500002B2CDBC7
S1132B3026009E40330026004746BE403200801ADD
S1132B40994100900191AEE7424620239B1A5246D8
S1132B50DA40414613004A468A4017001F4382E781
S1132B60424620239B1A2A0046469A402300F340FB
S1132B701343D5E74246202300219B1A00220091EB
S1132B8001920122DA40019282E742462023260084
S1132B909B1ADE402F00B446974066463B00334301
S1132BA0C9E7C046F0B557464E46DE464546E0B551
S1132BB044024300C60F83B00F1C640A1B0EB246C6
S1132BC053D0FF2B27D08022E400D20414437F2269
S1132BD0524290469844002399469B467D027800D1
S1132BE0FB0F6D0A000E009324D0FF2846D08023EB
S1132BF00021ED00DB041D437F384746381A4F4659
S1132C000F43BF00B9463300009A874F53404A46EA
S1132C10BA5801939746002C4ED108239946F733AE
S1132C209846FD3B9B467D027800FB0F6D0A000E23
S1132C300093DAD1002D26D1002001213300009A1F
S1132C407A4F53404246101A4A460A439200BA58F1
S1132C501D009746009B2C009A468B465B46022B30
S1132C6031D15346FF21002438E0002C17D104232E
S1132C7099460023984601339B46AFE7FF20002D79
S1132C800BD10221DAE7280002F03AF9431F9D40F4
S1132C9076235B42181A0021AFE70321ADE7200039
S1132CA002F02EF9431F9C4076235B421B1A984680
S1132CB0002399469B4691E70C239946F3339846A3
S1132CC0FC3B9B468AE7032B00D1A5E05546012B2C
S1132CD000D081E00123002100242B406402C905B7
S1132CE0600ADB070843184303B03CBC904699468E
S1132CF0A246AB46F0BD80240023E403FF21EDE7A8
S1132D00FF210024EAE70123591A1B2966DD019AF1
S1132D10134000210024E1E78023DB031C4238D068
S1132D201D4251D01C436402640A3300FF21D5E7DD
S1132D3063016C01A3423BD21B260021013801250B
S1132D401F0049005B00002F01DB9C4201D81B1BC4
S1132D502943013E002EF3D11C00631E9C410C4309
S1132D6001007F310029CEDD630704D00F23234007
S1132D70042B00D00434230103D501002C4B8031F3
S1132D801C40FE290DDD0123019AFF21134000247C
S1132D90A4E78023DB031C436402640A3300FF219D
S1132DA09CE70123019AA401640AC9B2134095E780
S1132DB01B1B1A260121C2E7009B8B469A4600245E
S1132DC04CE76302E5D500258024E4032C43640228
S1132DD0640A009BFF2181E70195C1E723002020BD
S1132DE0CB40411A8C40611E8C411C43630704D0C4
S1132DF00F232340042B00D00434630105D50123A1
S1132E00019A01211340002468E70123019AA401D7
S1132E10640A1340002161E78023DB031C4364023E
S1132E20640A5346FF2159E7949D0000D49D000095
S1132E30FFFFFFF7F0B54F46D64646464400C0B5FF
S1132E40C20F47024802400A844666467B0A48008D
S1132E50C90F9A46240E1500DB00000E8946F600C1
S1132E60FF2800D18FE001214F464F4039009142A5
S1132E7066D0221A002A00DC9DE000283DD1002EF5
S1132E8000D18BE0511E002900D0B5E001249B1B2A
S1132E905A0144D59B019F09380002F031F80538E6
S1132EA08740844200DD96E0041B3A002020013470
S1132EB0E240041BA7403B005F1EBB4100241343B8
S1132EC05A0704D00F221A40042A00D004335A01AE
S1132ED027D50134FF2C00D179E001229B015B0A44
S1132EE0E4B22A405B02E405580AD20720431043A7
S1132EF01CBC90469946A246F0BDFF2CE0D0802130
S1132F00C9040E431B2A7BDC31002020D140821AE5
S1132F109640721E96410E439B1B5A01BAD45A071F
S1132F20D0D10122DF082A40FF2C33D1002F00D159
S1132F30A8E08023DB033B435B025B0AFF24D1E769
S1132F40211A00294CDD00282AD0FF2CB8D080207B
S1132F50C00406431B2900DDAFE030002027C84031
S1132F60791A8E40711E8E4106439B195901D6D59C
S1132F700134FF2C00D185E001227A491A405B0814
S1132F800B4013439CE7002E00D070E76BE73B1E19
S1132F90C5D100227B025B0AE4B2A3E714008FE7E9
S1132FA0002E4DD0481E002857D19B1901245A01E8
S1132FB0B5D50224E0E7002A25D1621CD2B2012A49
S1132FC072DD9F1B7A0135D5F71A0D0064E70122E3
S1132FD000232A4086E73B00634A241A13406FE724
S1132FE000296CD1611CC8B201284EDDFF2949D0EB
S1132FF09B195B080C0063E7FF2A41D00A0081E7B4
S113300001269B1B89E7002C1CD0FF2821D080249B
S1133010E404524223431B2A00DD96E01C002025D1
S1133020D440AA1A93405A1E93412343F31A04002E
S11330300D002DE7002F00D02EE700220024A9E781
S11330400C003DE7002B58D0D243002AEED0FF28D5
S1133050E1D13300FF240D0032E7FF2910D0010035
S113306078E7002B6ED0FF24002E00D128E78022C1
S11330705146D203114203D06146114200D13300BC
S1133080FF241DE7FF2400232CE7002CE9D1002BAB
S113309063D0002E00D113E79B195A0100D43EE7F8
S11330A0314A0C0013400BE7002C1ED1002B2FD10A
S11330B0002E4FD033000D0002E7012655E7002C07
S11330C01FD1002B43D0C94300290BD0FF2839D08E
S11330D01B2944DC1C002027CC40791A8B40591E44
S11330E08B4123439B19040040E7002B1AD1002E87
S11330F024D180270022FF031BE7330004000D00C6
S1133100DEE6FF281ED08024E40449422343DFE79F
S1133110002E00D1D4E69F1B7A0100D437E7F31ABE
S11331200D00CDE6FF24002E00D1C9E680225046D2
S1133130D2031042A4D060461042A1D133000D0046
S1133140FF24BDE63300FF24BAE601236EE7330013
S11331500400B5E6002700221CE73300B0E6012393
S1133160C0E7C046FFFFFF7DFFFFFFFB41024300B6
S1133170C20F490A1B0E00207E2B0DDD9D2B0CDC9B
S1133180802000040143952B0ADC9620C31AD94001
S11331904842002A00D108007047034BD018FBE7CF
S11331A0963B9940F4E7C046FFFFFF7F70B50028C7
S11331B030D0C317C4185C40C50F200001F0A0FE36
S11331C09E231B1A962B0DDC9622D21A94402A00B9
S11331D06402640ADBB26402DB05600AD2071843A6
S11331E0104370BD992B19DC9922D21A002A29DDCB
S11331F094402200144C1440510704D00F210A407B
S1133200042A00D00434620113D4A401640ADBB29A
S11332102A00E0E7002200230024DCE70522210045
S1133220121AD140B922D21A9440621E94410C431E
S1133230DAE7054B2A001C409F23A4011B1A640AE9
S1133240DBB2C8E72200D5E7FFFFFFFB10B5041E81
S113325027D001F055FE9E231B1A962B0ADC9622DA
S1133260D21A94406402640ADBB26402DB05600A89
S1133270184310BD992B17DC9922D21A002A27DD96
S113328094402200134C1440510704D00F210A40EB
S1133290042A00D00434620112D4A401640ADBB20B
S11332A0E3E700230024E0E7B9222100D21A914089
S11332B00A00511E8A410521091ACC401443DBE758
S11332C0044B1C409F23A4011B1A640ADBB2CCE705
S11332D02200D7E7FFFFFFFBF8B54546DE46574619
S11332E04E460C03E0B54E00C90F88460D00610A36
S11332F0440F0C43C70019035800DB0F9B464B0ACD
S1133300510F0B43760D400D1900D200D84500D162
S1133310AEE0351A002D00DCF6E000280FD113438F
S113332000D1DBE06B1E002B00D037E1BA1A9742C4
S1133330BF41641A7F42E41B0126170024E0C64BF8
S11333409E424DD080231B041943382D00DD07E134
S11333501F2D00DD38E12020431B9A460B00504608
S11333608340994613004846EB40184303005046F7
S11333708240501E8241E9401A43BA1A611A9742A8
S1133380A441170064420C1B230262D56402650A3F
S1133390002D00D1DFE0280001F0B2FD0300083B5E
S11333A01F2B00DDD2E020223C00D21A9D40D440E5
S11333B09F4025439E4200DDC4E09E1B731C1F2BCF
S11333C000DDF1E0202238002900D21AD8409140D3
S11333D097402C000143781E8741DC4000260F43B0
S11333E07B0709D00F233B40042B05D03B1DBB4278
S11333F0BF417F42E4191F0023022CD5964B0136AE
S11334009E4200D19AE04546944BFF081C40600759
S1133410760564020743240B760D00212403230B55
S11334200C0D8F4A24051C431440330523435B00D1
S1133430ED075B082B43380019003CBC90469946C5
S1133440A246AB46F8BD6446044300D111E2040031
S113345067467B07C6D145466007FF080743E40873
S11334607D4B9E4230D024037605240B760DD4E7A1
S1133470331A9A46002B78DD002831D076488642EC
S1133480AED08020000401435346382B00DCE9E031
S11334900A43511E8A410021D219BA42BF41091977
S11334A07C4217000C192302D3D56B4B01369E4284
S11334B000D13AE10120694B1C407B0807401F43BF
S11334C0E007074364088BE723003B4300D1CBE1CB
S11334D08022120314432403240B9EE72E007FE76B
S11334E00800104300D1B4E0581E002800D0DEE0EC
S11334F0BA18BA429B4164185B42E41817000126CB
S11335002302A6D50226D5E7002D6ED1701C4005F6
S1133510400D012800DCF9E0B81A84468742804156
S1133520E51A40422D1A280200D489E0D71BBA427A
S113353092411C1B5242A51AD84629E7454600244D
S113354000276AE7454CF61A2C4049E73D00283825
S1133550854000272EE7380001F0D2FC20301DE71B
S11335600A43511E8A41002107E7002B00D0F3E0F3
S1133570701C43055B0D012B00DCADE0364B98421B
S113358000D1D1E0BA18BA42BF4164187F42E419AD
S1133590E707520817436408060021E72E488542CE
S11335A000D193E01D00D0E629001F3EF140202BFE
S11335B000D18DE04022D31A9D402F437D1EAF41A0
S11335C000240F43002644E72B000800203BD8408A
S11335D00300202D00D17DE04020451BA9400A4373
S11335E0511E8A4100211A43C7E6002E50D01A4EBC
S11335F0B04257D080266B429946360434434B463A
S1133600382B00DDD6E01F2B00DD35E12026F51A2E
S11336102600AE40B2463E00DE40AC46350056467B
S11336202E436546AF407D1EAF41DC403743D71B78
S1133630BA4292410C1B5242A41A0600D846A3E691
S1133640644667462C4300D0A2E6002500260027E6
S113365006E71E00C4E6C046FF070000FFFF7FFF29
S1133660FFFF0F801F2B63DC2020C31A0800984043
S11336709C46834653461000D840030058461843DE
S113368063469A40531E9A4153460243D94003E786
S113369026003E4306D0EB439946002BC7D0944EF8
S11336A0B042ACD10C0017000600D84698E6904B07
S11336B09A450BD08246E7E6002800D09EE0180029
S11336C0104300D1E9E01C001700D846884E87E675
S11336D0002572E7002182E723003B43002E00D03F
S11336E0ABE0002B00D1E7E00B00134300D177E6F9
S11336F0BA18BA42BF4164187F42E419230200D4C5
S1133700F2E07C4B17001C40060069E620003843B9
S1133710002ED1D100285BD11C00144300D1A8E0B5
S11337201C001700D8465BE606000024002797E635
S113373050460B002038C34099465346202B00D1F5
S113374095E0402350461B1A99400A43511E8A4172
S11337504B4600211A439FE6002E30D126003E43FB
S113376067D0DB439A46002B1CD0614EB04260D038
S11337705346382B00DD96E01F2B00DD9FE020260A
S1133780F31A26009E409C46B34653463E00DE4054
S113379033005E461E4363469F407B1E9F41534653
S11337A0DC403743BF189742924164185242A41830
S11337B0060078E627437C1EA741002437E74C4ED9
S11337C0B04236D080265B4236049A463443CFE773
S11337D01800104300D103E6B81A84466745AD418A
S11337E0E01A6D42401B050200D42CE6D71BBA42F6
S11337F092411C1B5242A41AD846F1E5180010430A
S113380000D163E7F808670707438020E408000352
S1133810044208D0DD08054205D1D20859071143F6
S11338200F002C00D8467B0FE4001C43FF00304EF1
S1133830D6E50C0017000600D2E5002B38D00B00AB
S1133840134300D142E7F808670707438020E408E0
S113385000030442E7D0CB080342E4D1D20849076D
S113386011430F001C00DEE700270024D5E50021EA
S11338706BE700250027F3E54E462500203EF54082
S11338804B462E00202B2DD04025ED1AAC4027436B
S11338907C1EA74100243743C9E680240025240365
S11338A0134E0027DCE527437C1EA741002479E75B
S11338B00C0017000E4E93E50C00170090E55646D9
S11338C02300203EF34099465346202B0ED040233C
S11338D056469B1B9C4027437C1EA7414B46002415
S11338E01F435FE70024D2E71700B2E50024F2E7A4
S11338F0FF070000FFFF7FFFF0B557464546DE4651
S11339004E46E0B54C000E0387B0834692461D0038
S11339108046360B640DCF0F002C4FD06F4B9C426A
S113392035D08023420F1B04F600134333439946DA
S1133930C30098466A4B00269C46002364440393C4
S11339402B031B0B9B466B00ED0F50465B0D019543
S11339505ED0624A934253D05A46D1008022400F2F
S1133960120402430A4393465246D1005C4A9446E9
S1133970002263443800684084460290E41A1643E7
S11339800F2E00D9B4E0574BB6009B599F46030055
S1133990334399466CD10023984602330826039397
S11339A0CEE7CB464146039A0197022A65D1019B93
S11339B04A4C9C460023002298466BE003003343A4
S11339C099464ED0002E00D1BCE1300001F098FAA7
S11339D003000B3B1C2B00DDACE11D22D31A5A461D
S11339E00100DA4008398E401300334399465B46A0
S11339F08B40984600233C4C0026241A03939FE7EF
S1133A0051465A46114329D1002293460232B1E766
S1133A10594601431ED05B46002B00D19EE1584617
S1133A2001F06EFA03000B3B1C2B00DD8FE102005A
S1133A305946083A91408B461D21CB1A5146D9402C
S1133A400B0059460B4351469B469140264B00229E
S1133A501B1A8FE7002301229B468BE75146032262
S1133A6088E700239846013304260024039367E77C
S1133A700323B14603930C2662E7032A00D15CE2D8
S1133A80019B012A00D0E4E113409C46002300245A
S1133A900022984600211203130B0A0D12051A4343
S1133AA02305124C40462240134362465B00D20772
S1133AB05B081343190007B03CBC90469946A246E4
S1133AC0AB46F0BD002380229C4612039846034C6B
S1133AD0E0E70023014C00229846DBE7FF070000E3
S1133AE001FCFFFF149E00000DFCFFFFFFFF0F8091
S1133AF0D94500D939E100D134E1002346464D4689
S1133B009A46013C5B460A0E1B021A430B02170C31
S1133B10039313041B0C3900280090460193FEF70D
S1133B2077FD0200019B83465A43280039009146E1
S1133B30FEF7F4FD350C09040D43A9450DD95B4688
S1133B404544013BA84500D93AE1A94500D837E1ED
S1133B5002235B429C464544E3444B46EB1A39003E
S1133B6018000493FEF754FD019B050043433900FC
S1133B7004989946FEF7D2FD330409041B0C0B4349
S1133B80994509D943446A1E984500D91AE19945D3
S1133B9000D817E1023D43444A469B1A5A46120490
S1133BA02A4303999346100C0A0C914609045A4679
S1133BB0090C4E460D001204120C45430591514365
S1133BC07243704352190E0CB218954203D98025E2
S1133BD06D02AC466044150C09041204090C281843
S1133BE05218834200D2CEE000D1C8E01D1A5346D9
S1133BF09E1AB24592415242AB1A9A46984500D158
S1133C0017E139001800FEF703FD019B050043434B
S1133C10390050460493FEF781FD04980B04310CDF
S1133C201943884209D941446B1E884500D907E1EC
S1133C30884200D804E1023D4144049BCB1A180099
S1133C4039000493FEF7E4FC019B824643433900A8
S1133C5004980193FEF762FD01980B043104090CEA
S1133C60194388420DD953464144013B884500D944
S1133C70E8E0884200D8E5E002235B429C464144E8
S1133C80E244019B2D04CE1A51462943059D4F461B
S1133C902A000B04080C1B0C5A4345437B4378430E
S1133CA05B19170CFB189D4203D980256D02AC46A5
S1133CB060441D0C12041B04120C28189B18864225
S1133CC000D293E000D18EE001231943A04BE31806
S1133CD0002B00DC99E04A0700D09EE05A46D2014E
S1133CE006D55A469B4B1A4080239346DB00E318C3
S1133CF0994A934268DD0123029A984C1A400023A2
S1133D00944698460022C5E680224B46120313428D
S1133D100AD05B46134206D11A431203120BAC4677
S1133D2088468E4CB6E64B461A431203120BBC4629
S1133D308A4CAFE603005A46283B9A40002391463A
S1133D40984657E6584601F0DBF8203040E6030079
S1133D505246283B9A400021934677E601F0D0F87A
S1133D6020305FE6884500D2C7E64B46DE075D0893
S1133D7043465B081E434346DB079A46C2E60025DA
S1133D80924500D333E7039E5946B446E244B24514
S1133D90AD416D424544EB180139984507D298422C
S1133DA000D97FE000D1BCE01D1A8B461FE798457F
S1133DB0FAD1039D5545F2D943468B461D1A16E7A1
S1133DC09B46CAE61500E7E65A46C90852070A4365
S1133DD05B0590465C0D5A46012302995202194034
S1133DE0120B8C4656E6002B00D16FE746444A1E60
S1133DF0B04529D91100864200D065E7039A934261
S1133E0000D061E762E7012149420120C21A382A41
S1133E1021DD029B03409C4638E60F220A40042A17
S1133E2000D15BE70A00111D914292415242934432
S1133E3054E7474BE318002BE5DD01225242F2E739
S1133E401D00FAE69A461CE7B04239D86ED011003C
S1133E503AE702933AE71F2A3CDC20239B1A0C0022
S1133E605846994098404B1E99415B46D440D340F4
S1133E70204308431A00430709D00F230340042BAF
S1133E8005D00100081D88429B415B42D2181302F1
S1133E903AD50123029A01241A40002394469846F5
S1133EA00022F7E5022149428C46039DE344AC46D7
S1133EB0E244AA45AD416D424544ED182D1A96E6FB
S1133EC08A1E03994D008D42894149424144761826
S1133ED003958FE71F204042C31A5846D840030079
S1133EE0202A28D040205D46821A954029434A1E44
S1133EF091411943072300220B4009D00F230022CC
S1133F000B400800042BBDD1010053075202120BD1
S1133F10C9081943012388460299002419408C4694
S1133F20B8E55245BED88B46002560E6039D9D4208
S1133F30C6D3110062E70025D8E780225B4612034E
S1133F401A43019B1203120B9C468846034CA1E5BD
S1133F50FF030000FFFFFFFEFE070000FF07000055
S1133F60F0B54F464646D6465C00C0B51F03DB0F8E
S1133F709A46174B0E034D0084468046360B6D0D52
S1133F80C90F91463F0B640D01209D4208D09C420D
S1133F9001D0A5420BD01CBC90469946A246F0BD68
S1133FA063463343F7D1AC42F5D13A43F3D1012010
S1133FB0BE42F0D1C845EED1514507D0002DEAD11B
S1133FC063461E433000461EB041E4E70020E2E7AA
S1133FD0FF070000F0B54546DE4657464E46E0B5BD
S1133FE01F033D0B2C4F0E034C00AB465D00844673
S1133FF0360B640DC90F90466D0DDB0FBC422AD001
S1134000254FBD422DD0002C0FD1304307008146EF
S113401078427841C0B2002D17D15F463A4314D19B
S11340204B460020002B0AD006E0002D02D1584652
S1134030024301D0994218D04842012108433CBCB4
S113404090469946A246AB46F0BD0028F2D0012026
S1134050013B1843F3E737000743D1D00220404225
S1134060EDE75F461743CED0F8E7AC42E4DC03DA71
S1134070481E01210843E2E75E45DDD806D0002052
S11340805E45DCD20123481E1843D8E7C445D3D883
S11340900020C445F6D3D2E7FF070000F0B54E4632
S11340A04546DE4657465C00E0B51F03DB0F9946E4
S11340B02A4B0E034D00C90F8446360B6D0D8B46FB
S11340C090463F0B640D9D4220D0244B9C4222D04D
S11340D0002D12D1304343424341DBB2002C1FD0A8
S11340E0002B0CD04B460120013B034318003CBC81
S11340F090469946A246AB46F0BD002C16D0CB455F
S113410017D05B46594201230B43EFE731000223EA
S11341100143EBD1D9E7390002231143E6D1D7E7B4
S11341203A43DDD100230028E0D0EAE73A43E6D160
S1134130E7E7A542E5DC05DBBE42E2D807D0002371
S1134140BE42D3D25946012301390B43CEE7C445BD
S1134150D7D80023C445F5D3C8E7C046FF070000FD
S1134160F0B557464546DE464E46E0B50C03984644
S11341704E00230B87B0070092469B46760DCD0F69
S1134180002E6BD06D4B9E4235D080245B46420F8F
S11341902404DB0014431C43C3009946684BA34624
S11341A09C46002300276644029343461C035A009E
S11341B0DB0F5046240B520D984600D176E05F4B3E
S11341C09A426DD08023410F1B040B435C49E400E9
S11341D08C461C43C300002062444146B618694023
S11341E0721C0191944607430F2F00D9B0E0554A41
S11341F0BF00D25997465B460343994600D087E0F7
S113420000239B46023308270293CEE742460192DD
S1134210022867D0032800D10EE2012800D062E111
S1134220002300240022994601990140CDB20021C7
S113423012030B0D120B1B051343434A24051340B1
S11342401C436400ED0764082C434846210007B072
S11342503CBC90469946A246AB46F0BD0343994602
S11342604FD05B46002B00D189E1584600F048FE50
S113427003000B3B1C2B00DD7AE11D22D31A3A000C
S113428001005C46DA4008398C4013008F40234318
S11342909B46B94600232D4E0027361A029384E725
S11342A0534623432AD10024022096E7534623434E
S11342B020D0002C00D157E1200000F021FE0300A3
S11342C00B3B1C2B00DD49E11D21CB1A514602009A
S11342D0D9405346083A944093400C431B4A121A5F
S11342E000207AE70125019B144C1D400023002285
S11342F099469CE70024002201206EE753460320E0
S11343006BE700239B4601330427002602934CE706
S1134310032381460C27029347E7802200230025CC
S113432012039946054C82E75C464B4602986FE7B8
S11343305C464B46019502986AE7C046FF070000B9
S113434001FCFFFF549E0000FFFF0F800DFCFFFFE8
S11343504A464946170C1A0C1B041B0C0804190086
S1134360000C41431500884619007D4379430395A9
S113437089462900150045434D44029545462D0CB8
S1134380AA46029D5544A94506D98A468021490278
S11343908946CA4451460391290C049141460904B3
S11343A02D04090C88462900250C24044144240CBE
S11343B00591210041438846210079438A46684398
S11343C0414650448146080C48446F43824503D912
S11343D08021490289464F44010C894639004944E9
S11343E0029141460F0404993F0C88460004C01909
S11343F080444146049159460F0C0904090C88462F
S113440059438A4639005143894641464A435146F5
S1134410090C8B467B43D2185A44934203D9802318
S11344205B029B46D94451460904090C8A4641461D
S113443061437C43130C12044B445244A1468A4604
S11344403C0041466C434D4351464D440F0C7D198D
S1134450A94503D98021490288464444049F03990D
S1134460B84641448B468345804141428846514683
S113447008042F04000C3F18584602991018894666
S1134480904292414F44BA46524299469346C2449E
S1134490D144CB448F42BF41C245894199459B4198
S11344A0934592417F4249422D0C52420F435B4255
S11344B013437F19FF185B463C19DB0D059A640210
S11344C01C43430213435D1EAB415A46C00D0343D4
S11344D052021343E20156D501205A080340134304
S11344E0E207134364085A48604400284DDD5A0724
S11344F009D00F221A40042A05D01A1D9A429B4162
S11345005B42E4181300E20104D58020514AC00044
S113451014406044504A904200DDE3E60125DB0884
S113452062071A436402019B9146220B4405640D01
S11345301D407CE6802259461203114208D01442E1
S113454006D122431203120B45469946434C6EE6AC
S11345505B461A431203120B404C68E603005446B0
S1134560283B9C400023B9E600F0CAFC2030A6E6B4
S11345700300283B9F400023BB4699468AE600F08F
S1134580BFFC203074E6B446ADE701252A1A382A68
S113459006DD019B00241D4000230022994646E6C7
S11345A01F2A21DC20252000AD1A1E00AB40A840A4
S11345B0D6405D1EAB4130431843D440430709D075
S11345C00F230340042B05D00300181D98429B4180
S11345D05B42E418230221D50125019B01241D40DF
S11345E000230022994622E61F2521006D42281A45
S11345F0C1400800202A1DD05F35AA1A94402343E5
S11346005C1EA341072503431D400022002D09D051
S11346100F2200241A401800042AD6D1030065078B
S11346206402220BDB082B4301259946019B0024DD
S11346301D40FCE50024E2E7802201251203224309
S113464001991203120B0D409946044CEFE5C04644
S1134650FF030000FFFFFFFEFE070000FF0700004E
S1134660F0B54646D6464F460C03C0B5CD0F4E00B6
S1134670610A440F0C43C1005800400D84468A4629
S11346800F001903500F490A0143C648760DA84686
S1134690DB0FD200844500D1D8E001204340AB4277
S11346A000D1A6E06046351A002D00DC05E10028A3
S11346B010D10B00134300D1D7E06B1E002B00D0A8
S11346C04BE153469F1ABA458041641A4042241A6A
S11346D001261EE0B34B9E4248D080231B0419439D
S11346E0382D00DD19E11F2D00DD4CE120230F00E2
S11346F05B1B10009A409F40E840531E9A41E940DA
S1134700074317435346DF1B611ABA45A441644269
S11347100C1B230200D4C5E06402650A002D00D1FD
S1134720F6E0280000F0ECFB0300083B1F2B00DD43
S1134730E9E020223C00D21A9D40D4409F4025430A
S11347409E4200DDDBE09E1B731C1F2B00DD0AE193
S113475020223800D21A290097402C009140D840DA
S11347607A1E9741DC40002601430F437B0709D0A2
S11347700F233B40042B05D03B1DBB42BF417F426E
S1134780E4191F00230225D5864B01369E4200D131
S1134790AFE0854B01251C4043466207FF086402D5
S11347A076051743240B760D1D4000212403230BAB
S11347B00C0D7E4A24051C431440330523435B003F
S11347C0ED075B082B43380019001CBC9046994642
S11347D0A246F0BD012543466207FF081743E408DB
S11347E01D40704B9E4236D024037605240B760D73
S11347F0DBE76346F31A002B00DC94E060460028F4
S113480035D068488642B1D080273F043943382BDD
S113481000DCFDE00A43170000217A1E974157444B
S113482057458041091944420C1923023AD55D4B7E
S113483001369E4200D14BE101225B4B1C407B08B8
S113484017401F43E207174364088FE7080010432B
S113485000D024E721E723003B4300D1B9E18022C3
S1134860120314432403240B9FE72E007EE7080061
S1134870104300D1CAE0581E8446002800D0E7E067
S113488052445245804164184042241817000126BE
S1134890230207D50226CFE764462C4300D1B3E1B7
S11348A02C0067467B0700D062E76307FF081F43BD
S11348B001254346E4081D4093E7002D78D1751C7B
S11348C06D056D0D012D00DCF2E05046801A824525
S11348D0BF41651A7F42ED1B8446280200D48CE058
S11348E05046171ABA4292410C1B5542651B984612
S11348F014E70125434600241D40002755E72A4CB0
S1134900F61A2C4032E73D0028388540002717E787
S1134910380000F0F5FA203006E70A4317000021BA
S11349207A1E9741EEE6002B00D0E5E0731C9C460E
S11349305B055B0D012B00DC9FE01A4B9C4500D10D
S1134940C5E0524452458041641840422418E707A8
S1134950520817436408664608E71248854200D1A6
S113496085E01D00BCE629001F3EF140202B00D14C
S11349707FE04022D31A9D402F437D1EAF41002487
S11349800F4300268EE72B000F00203BDF40202D35
S113499071D040235D1BA9400A43511E8A41002166
S11349A01743AFE6FF070000FFFF7FFFFFFF0F8005
S11349B0002E3ED0B34EB44545D0802636046D4219
S11349C03443382D00DDA8E01F2D00DD1FE1202633
S11349D027005046761BB740E84007435046B04096
S11349E0461EB041EC403843171ABA4292410C1BA0
S11349F05242A41A664698468BE6644667462C43A0
S1134A0000D08BE6002500260027EAE61E00ADE66E
S1134A101F2B60DC2027F81A0F0084468740100003
S1134A20D840074360468240501E8241D940174314
S1134A30F5E626005046064305D0ED43002DD3D0BD
S1134A40904EB445BDD10C001700664698468DE6DD
S1134A508C4883420BD06346D9E6002D00D096E003
S1134A600800104300D1E2E00C0017009846854E80
S1134A707CE6002580E700218EE7230050460343AF
S1134A80002E00D0A8E0002B00D1DEE00B00134381
S1134A9000D16BE6524452458041641840422418C8
S1134AA01700230200D4FDE6774B66461C405DE602
S1134AB0250050460543002ECFD1002D4FD10C00C8
S1134AC0144300D1A0E00C00170098464EE6664659
S1134AD00024002785E61F000800203FF840070057
S1134AE0202B00D18EE04020C31A99400A43511E66
S1134AF08A410021174392E6002E14D12600504625
S1134B00064362D0DB43002B5CD187189742924165
S1134B1064185242A418664687E650462043441E51
S1134B20A041002460E7574EB4454ED08026360499
S1134B305B423443382B00DD7FE01F2B00DD8BE02C
S1134B40202627005046F61AB740D840074350465F
S1134B50B040461EB0410743DC40BF18D6E70D0005
S1134B60154300D102E65046801A8245BF41651ABA
S1134B707F42ED1B8446280200D48DE65046171A66
S1134B80BA4292410C1B5242A41A9846EEE50D001B
S1134B90154300D16BE750466707C00807438020E0
S1134BA0E4080003044207D0CD08054204D12C00D8
S1134BB09846D70849070F437B0FE4001C43FF00C6
S1134BC0304ED3E52F4EB445B4D10C0017006646E1
S1134BD0CCE500270024E8E5002B39D00B00134373
S1134BE000D144E7C008670707438020E4080003B6
S1134BF00442E1D0CB080342DED1D70849070F4372
S1134C001C00D9E7002171E700250027E9E52E0003
S1134C102700203EF740202D2FD04026751BAC40A6
S1134C2050462043441EA04100243843DCE680243F
S1134C3000252403134E0027D3E5504620430700E4
S1134C40781E87410024BF1860E70C0017008DE52B
S1134C500C0017000B4E89E51E002700203EF7408C
S1134C60202B0CD04026F31A9C4050462043441E6F
S1134C70A04107430024BF1848E70024D0E70024DC
S1134C80F3E7C046FF070000FFFF7FFF30B5134D79
S1134C900A034B00120B5B0DC90F0024AB4210DD5D
S1134CA00F4CA3420FDC80240E4D64032243ED1A03
S1134CB01F2D0BDD0C48C31ADA405442002900D1E1
S1134CC01400200030BD094BCC18FAE7084CE8402A
S1134CD0A44663449A400243EFE7C046FE03000043
S1134CE01D0400003304000013040000FFFFFF7FD5
S1134CF0EDFBFFFF70B5002830D0C317C4185C402B
S1134D00C50F200000F0FCF8174B184A1B1AD21AE2
S1134D101F2A18DD164AD21A9440002224035B0588
S1134D20240B5B0D0021100024030A0D240B120533
S1134D302243104C1B05224013435B00ED075B0824
S1134D402B43190070BD210091400A000B21081A61
S1134D50C4405B052403240B5B0DE3E7002500231B
S1134D6000240022DEE7C0461E04000033040000D5
S1134D7013040000FFFF0F8010B5041E28D000F0BC
S1134D80BFF8154B154A1B1AD21A1F2A15DD144AEF
S1134D90D21A9440002224035B05240B5B0D0021EE
S1134DA0100024030A0D240B120522430D4C1B058D
S1134DB0224013435B00590810BD210091400A00B2
S1134DC00B21081AC4405B052403240B5B0DE6E7A2
S1134DD0002300240022E2E71E0400003304000044
S1134DE013040000FFFF0F804100090E4B1C70B537
S1134DF0DBB24602750AC40F012B14DDE0239B00CD
S1134E006D07360BCB1800210A0D280012051C4D26
S1134E1032435B052A405B0813435B00E4075B08ED
S1134E202343190070BD002914D1002D1ED0280081
S1134E3000F066F80A281CDC0B232A001B1ADA404F
S1134E40030015339D400F4B12031B1A5B05160B11
S1134E505B0DD8E7002D06D0320B802636036D0794
S1134E601643094BCFE7084B0026CCE70023002666
S1134E70C9E703002A000B3B9A400025E3E7C0463C
S1134E80FFFF0F8089030000FF0700008446081C11
S1134E906146FFE71FB500F0C3F8002801D40021E4
S1134EA0C8421FBD10B500F055F84042013010BD96
S1134EB010B500F0B5F8002801DB002010BD01207A
S1134EC010BDC04610B500F0ABF8002801DD00208D
S1134ED010BD012010BDC04610B500F061F80028D7
S1134EE001DC002010BD012010BDC04610B500F04B
S1134EF057F8002801DA002010BD012010BDC0467B
S1134F001C2101231B04984201D3000C10391B0AF5
S1134F10984201D3000A08391B09984201D30009B9
S1134F20043902A2105C40187047C0460403020210
S1134F3001010101000000000000000010B500297B
S1134F4003D1FFF7DDFF203002E0081CFFF7D8FF94
S1134F5010BDC04670B5420045024E024C00C30F5E
S1134F606D0A120E760A240EC90F0120FF2A06D0FC
S1134F70FF2C03D0A24201D1B54206D070BD002D52
S1134F80FCD1FF2CFAD1002EF8D18B4206D001209F
S1134F90002AF3D12800451EA841EFE70020EDE7E1
S1134FA0F0B5420045024C02C30F48006D0A120ED0
S1134FB0640A000EC90FFF2A1ED0FF2821D0002A40
S1134FC00AD16E426E41F6B200280FD1002C0DD1E9
S1134FD00020002D09D005E0002801D1002C01D0CB
S1134FE08B4211D0012158420843F0BD002EF7D066
S1134FF0012001390843F8E7002DDED002204042A9
S1135000F3E7002CDBD0F9E78242EBDC04DBA542BA
S1135010E8D80020A542E8D20121581E0843E4E75D
S1135020F0B542004D024C004602760A120EC30F40
S11350306D0A240EC90FFF2A16D0FF2C18D0002A9F
S11350400AD170427041C0B2002C15D0002805D09E
S1135050012001390843F0BD002C13D0994214D02B
S113506001205B421843F6E70220002EF3D1E4E767
S11350700220002DEFD1E2E7002DE7D10020002E21
S1135080E9D0EDE7002DE9D1EAE7A24206DCDFDB57
S1135090AE4203D80020AE42DAD3DCE70120494215
S11350A00843D8E770B50D4E0D4D0024AD1BAD106F
S11350B005D0A300F35801349847A542F9D105F06F
S11350C0E1F8084E084D0024AD1BAD1005D0A30037
S11350D0F35801349847A542F9D170BD90A200005D
S11350E090A2000090A2000098A20000F0B5050074
S11350F00F2A2FD90B0003439B0734D116000C0051
S11351000300103E350901352D01451927681F603C
S113511067685F60A7689F60E7681034DF601033DA
S11351209D42F3D10F239E431036851989191340EC
S1135130032B1AD91E1F0023B4080134A400CF582E
S1135140EF500433A342FAD10324A643331D224073
S1135150C918ED18002A05D00023CC5CEC540133A7
S11351609342FAD1F0BD0500F6E71A00F2E7C04613
S1135170F0B5830743D0541E002A3FD0CEB20200BC
S1135180032502E01A00013C38D3531C16702B424D
S1135190F8D1032C2AD9FF220A40150215432A0408
S11351A015430F2C14D927001A00103F3E0901366D
S11351B036019E19156055609560D560103296428F
S11351C0F8D10F2297431037DB191440032C0DD963
S11351D01A00271FBE080136B6009E1920C2B2422B
S11351E0FCD1032297430437DB191440002C05D06B
S11351F0C9B21C19197001339C42FBD1F0BD1400D3
S11352000300C6E710B5830725D00378002B24D00C
S11352100300032102E01A78002A1AD001330B425A
S1135220F9D119680E4A0F4C8A188A43224206D1D2
S1135230043319680A4A8A188A432242F8D01A00A9
S11352401B78002B03D0013211780029FBD1101AEE
S113525010BD181AFCE70300E3E70020F8E7C04696
S1135260FFFEFEFE808080800B000343F0B59B07A9
S113527001D1032A14D80600002A10D00C78013A70
S1135280731C3470002C1DD0012406E00D5D013A1E
S1135290355501330134002D14D0002AF6D1F0BD68
S11352A005000D4F06E0043A2E1D04312C60032A3C
S11352B0E2D935000C68094BE318A3433B42F2D012
S11352C02E00DBE79C180021002AE8D01970013376
S11352D0A342FBD1E3E7C04680808080FFFEFEFE50
S11352E030B504009BB01800002A2EDB82236D46E3
S11352F09B00AB8100910491002A11D00123013A53
S11353005B4202920592EB8102001E9B69462000DB
S113531002F06AF8431C12DB0023009A13700CE0BD
S113532001235B4202920592EB8102001E9B6946B7
S1135330200002F059F8431C04DB1BB030BD8B2362
S11353402360E9E78B232360F7E78B2301202360A5
S11353504042F2E710B50400054882B000680093AB
S113536013000A002100FFF7BBFF02B010BDC046C6
S113537008000020034B10B5002B02D0024800F0B7
S113538005F810BD000000007964000010B50100AC
S113539000230022002003F02BFB10BDF0B545468E
S11353A08046DE4657464E464246E0B50C691269D1
S11353B085B00B0002910020944200DD90E014229D
S11353C09446634499464A46013CA300D6181422E5
S11353D0424493469B4433681500591C5B46186845
S11353E00192FDF715F9031E009042D02900002711
S11353F04D460020B146A2463E0004009C462F00C4
S113540008000395634604CF15042D0C5D43120C6C
S11354105A43AD192B0CD21803682D041904090C36
S11354200919160C2D0C1204491B120C1B0C9B1A87
S11354300A149B1809041C14090C1B04194302C008
S1135440B945DFD2039B4E4699465B461B685446DA
S1135450002B0ED15B46019A043B9A4204D306E02A
S1135460043B013C9A4202D219680029F8D0434611
S11354701C610299404601F091FE00282FDB4F4643
S11354800020009B019D013300932B6802CF1A0476
S1135490120C10180A04120C821A090C1B0C5B1A49
S11354A011145B1812041814120C1B04134308C5BE
S11354B0BE42EAD20199A3008C4663441A68002ACA
S11354C00DD1043B0A00994204D306E0043B013C9D
S11354D09A4202D219680029F8D043461C61009808
S11354E005B03CBC90469946A246AB46F0BDC046CA
S11354F0F0B557464E464546DE46E0B5016C99B0D8
S113550082461D0016001F00002909D00123426CA9
S113551093404A608B6001F035FC002352461364CB
S1135520B846002F37DB0023259A13604246D64B3A
S11355301A409A4218D00022002330003900FDF7A7
S1135540EDF900282FD00123249A1360269B002B09
S113555000D12AE2CD481860013819B03CBC90460D
S11355609946A246AB46F0BDC94B249A1360002E5F
S11355700BD14346180308D1269BC648002BECD018
S113558003000833269A1360E7E7269BC248002BE2
S1135590E3D0C31CF6E70123259A6800136043088F
S11355A098461F00C2E716AB019317AB0093320075
S11355B03B00504601F0A8FE434683461A0D00D135
S11355C0D6E13B03B54C1B0B1C43B54B300098464E
S11355D0169B21009946002390440F930022B14B5F
S11355E0FFF73EF8B04AB14BFEF7BAFDB04AB14BF3
S11355F0FDF772FE040040460D00FFF77BFBAE4A48
S1135600AE4BFEF7ADFD02000B0020002900FDF7B4
S113561063FE04000D00FFF739FB00220390002312
S113562020002900FDF780F9002800D0B1E2012311
S1135630039C0C93162C10D8A149E300C91832001E
S1135640086849683B00FDF783F9002800D11DE391
S11356502300013B039300230C934B4642469A1AC2
S1135660002306931300013B049300D5A1E2039B9E
S1135670002B00DA84E29C460D930023049A994699
S1135680110061440491229B092B00D98FE101246C
S1135690052B02DD0024043B2293229B032B01D122
S11356A000F0CEFC01DC00F092FC229B042B01D123
S11356B000F040FC01230B93229B052B01D000F04A
S11356C08BFC239A039B944663440E930133079304
S11356D01D1E01DC00F049FD079B9846002352463D
S11356E000215364172D0AD9012204335B001800EA
S11356F01430110001328542F8D2534659645046A1
S113570001F018FB5346186443460A900E2B00D947
S113571061E1002C00D15EE110961197039E002EEA
S113572001DC00F025FD32000F21654B0A40D20058
S11357309B1836111C685D68F30601D400F0CAFC9E
S1135740604B0E401A6A5B6A10981199FEF7D4F800
S11357500323984608900991002E11D0594F012334
S1135760334209D09C463A687B6820002900E04413
S1135770FEF7F6FC04000D0076100837002EEED17B
S11357802200089809992B00FEF7B6F806000F00CE
S11357900C9B002B09D00022404B30003900FDF750
S11357A0C3F8002801D000F0C2FD4046FFF7A2FA7A
S11357B032003B00FEF7D4FC0022434BFDF78CFD86
S11357C0424A0B0094466344089009910993079B4D
S11357D0002B01D100F050FC039B1393079B129301
S11357E00B9B002B01D100F01DFD129B00205A1EC3
S11357F0334BD2009B181A685B683549FEF77CF876
S1135800089A099BFEF72CFF089009913900300093
S1135810FFF73CFA0400FFF76DFA02000B003000BA
S11358203900FEF71DFF05000E000A9A3034511CA2
S1135830E7B2149117703300089809992A00FDF70C
S113584087F8002801D000F0FEFD2A003300002074
S11358501249FEF705FF02000B0008980999FDF7AD
S113586077F8002801D000F0E7FD129B012B01D14D
S113587000F078FC0A9A129B9446634498464B467F
S11358801293149B994638E00000F07FA99E000013
S11358900F270000989E0000A49E00000000F03F27
S11358A001FCFFFF0000F83F61436F63A787D23F0D
S11358B0B3C8608B288AC63FFB799F501344D33FFB
S11358C0D89E0000B09E000000001C400000C0FCF8
S11358D00000E03F2A0033000020B949FEF7C0FE73
S11358E0089A099BFDF720F8002801D000F074FD08
S11358F0A146444501D100F033FC089809990022DF
S1135900B04BFEF72DFC0022AE4B08900991280005
S11359103100FEF725FC0D000400FFF7B7F907007E
S1135920FFF7E8F902000B0020002900FEF798FEBB
S11359304B463037FFB25C1C1F70089A099B050068
S11359400E00FCF7F1FF0028C4D0139B03935946C3
S1135950504601F017FA00232370039B249A013365
S11359601360269B002B00D1A8E31C600A98F4E581
S1135970169B9946179B4B441C00934BE318202B12
S113598000DC7EE13100914A4046A218D1400A0071
S11359904021CB1A98401043FFF7EEF9631E984656
S11359A001238B4D0F93491918E68A48D5E5002346
S11359B0524600215364504601F0BCF95346186422
S11359C001235B4207930E93023300220B930023BF
S11359D00A9023922293179B002B00DAABE0039AE0
S11359E00E2A00DDA7E07C4BD2009B185C681B6884
S11359F004930594239B002B00DAA7E2049C059DE5
S1135A00300022002B003900FDF776FFFFF73EF946
S1135A108046FFF76FF922002B00FEF7A1FB02007E
S1135A200B0030003900FEF71BFE43460A9A303360
S1135A301370079B06000F00541C012B4ED000224C
S1135A40604BFEF78DFB0022002306000F00FCF7DD
S1135A5065FF002800D07AE70A9B079A9D1C9C46A4
S1135A605B46069353466244AA46049C059D9146B0
S1135A7007930FE00022534BFEF772FB01239C4671
S1135A800022002306000F00E244FCF747FF002831
S1135A9000D0D9E222002B0030003900FDF72CFFA2
S1135AA0FFF7F4F88046FFF725F922002B00FEF7F4
S1135AB057FB02000B0030003900FEF7D1FD5346BE
S1135AC04246013B303206000F00D3461A70D145DE
S1135AD0D0D1069B54469B46079B9A4632003B0016
S1135AE030003900FDF7F8FB06000F0002000B0040
S1135AF004980599FCF718FF00280CD1049805991F
S1135B0032003B00FCF70AFF002800D11FE74346A0
S1135B10DB0700D41BE7651E2F780A9B06E09D4235
S1135B2000D151E3023C27782C00013D392FF6D0F7
S1135B3001372F700BE70B9A002A4FD0229A012AC3
S1135B4000DC2CE2079B5C1E4B46A14500DAB8E260
S1135B501C1B079B002B00DAD4E3069B0893079BCE
S1135B60069A012194469C4462460692049A504641
S1135B7094469C446346049301F09CF9804632E0C9
S1135B80069A039BD21A5B429946002306920D9310
S1135B9079E50398FFF7AEF80B0002002900200016
S1135BA0FCF7BCFE020050425041039B1B1A0393B6
S1135BB03DE501239B1A06930023049357E5C04651
S1135BC00000F03F000024403204000012040000F2
S1135BD0000010FEA89E0000D89E0000069B4C46C4
S1135BE008930023984608990B1E0EDD049A002A98
S1135BF00BDD934200DD87E1069AD21A0692089AD9
S1135C00D21A0892049AD31A04934B46002B1AD042
S1135C100B9B002B00D1BBE1002C10DD4146220080
S1135C20504601F0FBF95A4601008046504601F007
S1135C304BF905005946504601F0A4F8AB464B46D3
S1135C401A1B00D0A5E10121504601F033F90D9B48
S1135C508146002B1DDD1A000100504601F0DEF9DB
S1135C60229B8146012B00DC50E100244B461B693A
S1135C7003339B004B44586801F0D4F820231B1ACB
S1135C8010E020223000D31A984085E600230C93BC
S1135C90E3E4229B0024012B00DC8BE10D9A012319
S1135CA0002AE3D104991F208C466344184000D194
S1135CB0AEE020231B1A042B00DCCCE31C23181AAF
S1135CC0069B9C46844463460693089B9C468444F6
S1135CD063468C468444089363460493069B002BD6
S1135CE005DD59461A00504601F0F8F98346049B35
